:020000040800F2
:100000000000052045690108C5420108C7420108F2
:10001000C9420108CB420108CD420108000000009E
:10002000000000000000000000000000CF420108B6
:10003000D142010800000000D3420108D542010866
:100040009569010895690108956901089569010894
:100050009569010895690108DD4201089569010863
:10006000014301089569010895690108956901082E
:100070009569010895690108956901089569010864
:100080009569010895690108956901089569010854
:100090009569010895690108956901089569010844
:1000A0000D430108956901089569010895690108E2
:1000B000956901089569010885430108956901085A
:1000C0009569010895690108956901089569010814
:1000D000C5430108956901089569010895690108FA
:1000E000D9430108956901089569010895690108D6
:1000F000C5480108956901089569010895690108D5
:100100009569010895690108054901089569010883
:100110009569010895690108BD490108E949010887
:1001200095690108956901089569010895690108B3
:10013000114A010895690108956901089569010846
:100140009569010895690108956901089569010893
:100150009569010895690108956901089569010883
:100160009569010895690108956901089569010873
:10017000956901089569010895690108000000006A
:100180009569010895690108956901089569010853
:100190009569010895690108956901089569010843
:1001A0009569010895690108956901089569010833
:1001B0009569010895690108956901089569010823
:0801C000956901089569010829
:1001D00010B5054C237833B9044B13B10448AFF381
:1001E00000800123237010BD2001002000000000CA
:1001F0007873010808B5034B1BB103490348AFF3FB
:10020000008008BD00000000240100207873010870
:1002100010F8012B11F8013B012A28BF9A42F7D0B0
:10022000D01A70470000000000000000000000002D
:1002300001F0FF01102A2BDB10F0070F08D010F897
:10024000013B013A8B422DD010F0070F42B3F6D19B
:10025000F0B441EA012141EA014122F007047FF0B4
:1002600000070023F0E80256083C85EA010586EA0B
:10027000010685FA47F5A3FA87F586FA47F6A5FA47
:1002800087F68EB9EED1F0BC01F0FF0102F0070253
:1002900032B110F8013B013A83EA010313B1F8D1FE
:1002A0000020704701387047002D06BF35460338DF
:1002B000073815F0010F07D1013015F4807F02BF18
:1002C000013015F4C03F0130F0BC0138704700BF69
:1002D00081F0004102E000BF83F0004330B54FEAF7
:1002E00041044FEA430594EA050F08BF90EA020F64
:1002F0001FBF54EA000C55EA020C7FEA645C7FEAF7
:10030000655C00F0E2804FEA5454D4EB5555B8BF19
:100310006D420CDD2C4480EA020281EA030382EA8A
:10032000000083EA010180EA020281EA0303362D1C
:1003300088BF30BD11F0004F4FEA01314FF4801CEF
:100340004CEA113102D0404261EB410113F0004F01
:100350004FEA03334CEA133302D0524263EB4303B8
:1003600094EA050F00F0A780A4F10104D5F1200E56
:100370000DDB02FA0EFC22FA05F2801841F10001B1
:1003800003FA0EF2801843FA05F359410EE0A5F185
:1003900020050EF1200E012A03FA0EFC28BF4CF0B6
:1003A000020C43FA05F3C01851EBE37101F000456C
:1003B00007D54FF0000EDCF1000C7EEB00006EEB79
:1003C0000101B1F5801F1BD3B1F5001F0CD3490803
:1003D0005FEA30004FEA3C0C04F101044FEA44525A
:1003E00012F5800F80F09A80BCF1004F08BF5FEAE1
:1003F000500C50F1000041EB045141EA050130BDC1
:100400005FEA4C0C404141EB0101013C28BFB1F5D2
:10041000801FE9D291F0000F04BF01460020B1FA1D
:1004200081F308BF2033A3F10B03B3F120020CDAF0
:100430000C3208DD02F1140CC2F10C0201FA0CF0CE
:1004400021FA02F10CE002F11402D8BFC2F1200C33
:1004500001FA02F120FA0CFCDCBF41EA0C019040E9
:10046000E41AA2BF01EB0451294330BD6FEA040432
:100470001F3C1CDA0C340EDC04F11404C4F120021D
:1004800020FA04F001FA02F340EA030021FA04F32F
:1004900045EA030130BDC4F10C04C4F1200220FA86
:1004A00002F001FA04F340EA0300294630BD21FAC4
:1004B00004F0294630BD94F0000F83F4801306BF8A
:1004C00081F480110134013D4EE77FEA645C18BF7E
:1004D0007FEA655C29D094EA050F08BF90EA020F15
:1004E00005D054EA000C04BF1946104630BD91EA0D
:1004F000030F1EBF0021002030BD5FEA545C05D110
:100500004000494128BF41F0004130BD14F580044E
:100510003CBF01F5801130BD01F0004545F0FE41C2
:1005200041F470014FF0000030BD7FEA645C1ABFF7
:10053000194610467FEA655C1CBF0B46024650EA2E
:10054000013406BF52EA033591EA030F41F400215A
:1005500030BD00BF90F0000F04BF0021704730B5E0
:100560004FF4806404F132044FF000054FF00001B5
:1005700050E700BF90F0000F04BF0021704730B576
:100580004FF4806404F1320410F0004548BF40424B
:100590004FF000013EE700BF42004FEAE2014FEAA0
:1005A00031014FEA02701FBF12F07F4393F07F4F7B
:1005B00081F06051704732F07F4208BF704793F07E
:1005C0007F4F04BF41F40021704730B54FF4607491
:1005D00001F0004521F000411CE700BF50EA010294
:1005E00008BF704730B54FF000050AE050EA01023D
:1005F00008BF704730B511F0004502D5404261EBAD
:1006000041014FF4806404F132045FEA915C3FF4ED
:10061000D8AE4FF003025FEADC0C18BF03325FEA8A
:10062000DC0C18BF033202EBDC02C2F1200300FA3B
:1006300003FC20FA02F001FA03FE40EA0E0021FA60
:1006400002F11444BDE600BF70B54FF0FF0C4CF44E
:10065000E06C1CEA11541DBF1CEA135594EA0C0F00
:1006600095EA0C0F00F0DEF82C4481EA030621EA3B
:100670004C5123EA4C5350EA013518BF52EA033576
:1006800041F4801143F4801338D0A0FB02CE4FF028
:100690000005E1FB02E506F00042E0FB03E54FF058
:1006A0000006E1FB03569CF0000F18BF4EF0010E50
:1006B000A4F1FF04B6F5007F64F5407404D25FEA4C
:1006C0004E0E6D4146EB060642EAC62141EA5551FF
:1006D0004FEAC52040EA5E504FEACE2EB4F1FD0C41
:1006E00088BFBCF5E06F1ED8BEF1004F08BF5FEABF
:1006F000500E50F1000041EB045170BD06F0004671
:1007000046EA010140EA020081EA0301B4EB5C041D
:10071000C2BFD4EB0C0541EA045170BD41F4801115
:100720004FF0000E013C00F3AB8014F1360FDEBF3A
:10073000002001F0004170BDC4F10004203C35DA16
:100740000C341BDC04F11404C4F1200500FA05F399
:1007500020FA04F001FA05F240EA020001F000423A
:1007600021F0004110EBD37021FA04F642EB0601B0
:100770005EEA430E08BF20EAD37070BDC4F10C04DA
:10078000C4F1200500FA04F320FA05F001FA04F29E
:1007900040EA020001F0004110EBD37041F100018A
:1007A0005EEA430E08BF20EAD37070BDC4F1200595
:1007B00000FA05F24EEA020E20FA04F301FA05F2FD
:1007C00043EA020321FA04F001F0004121FA04F2A5
:1007D00020EA020000EBD3705EEA430E08BF20EA75
:1007E000D37070BD94F0000F0FD101F000464000AF
:1007F00041EB010111F4801F08BF013CF7D041EA31
:10080000060195F0000F18BF704703F00046520034
:1008100043EB030313F4801F08BF013DF7D043EA05
:100820000603704794EA0C0F0CEA135518BF95EABB
:100830000C0F0CD050EA410618BF52EA4306D1D142
:1008400081EA030101F000414FF0000070BD50EA61
:10085000410606BF1046194652EA430619D094EAEB
:100860000C0F02D150EA013613D195EA0C0F05D1D5
:1008700052EA03361CBF104619460AD181EA030129
:1008800001F0004141F0FE4141F470014FF00000E1
:1008900070BD41F0FE4141F4780170BD70B54FF07C
:1008A000FF0C4CF4E06C1CEA11541DBF1CEA1355FC
:1008B00094EA0C0F95EA0C0F00F0A7F8A4EB0504DE
:1008C00081EA030E52EA03354FEA013100F08880D5
:1008D0004FEA03334FF0805545EA131343EA12639E
:1008E0004FEA022245EA111545EA10654FEA002653
:1008F0000EF000419D4208BF964244F1FD0404F50C
:10090000407402D25B084FEA3202B61A65EB030567
:100910005B084FEA32024FF480104FF4002CB6EB24
:10092000020E75EB030E22BFB61A754640EA0C00A4
:100930005B084FEA3202B6EB020E75EB030E22BFE4
:10094000B61A754640EA5C005B084FEA3202B6EB25
:10095000020E75EB030E22BFB61A754640EA9C00E4
:100960005B084FEA3202B6EB020E75EB030E22BFB4
:10097000B61A754640EADC0055EA060E18D04FEA72
:10098000051545EA16754FEA06164FEAC30343EA12
:1009900052734FEAC2025FEA1C1CC0D111F4801FDF
:1009A0000BD141EA00014FF000004FF0004CB6E7D8
:1009B00011F4801F04BF01430020B4F1FD0C88BF77
:1009C000BCF5E06F3FF6AFAEB5EB030C04BFB6EB82
:1009D000020C5FEA500C50F1000041EB045170BD75
:1009E0000EF0004E4EEA113114EB5C04C2BFD4EBA2
:1009F0000C0541EA045170BD41F480114FF0000E26
:100A0000013C90E645EA060E8DE60CEA135594EAA1
:100A10000C0F08BF95EA0C0F3FF43BAF94EA0C0FA4
:100A20000AD150EA01347FF434AF95EA0C0F7FF419
:100A300025AF104619462CE795EA0C0F06D152EA6D
:100A400003353FF4FDAE1046194622E750EA410651
:100A500018BF52EA43067FF4C5AE50EA41047FF462
:100A60000DAF52EA43057FF4EBAE12E74FF0FF3CC7
:100A700006E000BF4FF0010C02E000BF4FF0010C98
:100A80004DF804CD4FEA410C7FEA6C5C4FEA430C11
:100A900018BF7FEA6C5C1BD001B050EA410C0CBF60
:100AA00052EA430C91EA030F02BF90EA020F0020C2
:100AB000704710F1000F91EA030F58BF994208BF29
:100AC00090422CBFD8176FEAE37040F001007047E6
:100AD0004FEA410C7FEA6C5C02D150EA013C07D13D
:100AE0004FEA430C7FEA6C5CD6D152EA033CD3D088
:100AF0005DF8040B704700BF8446104662468C4682
:100B00001946634600E000BF01B5FFF7B7FF0028B4
:100B100048BF10F1000F01BD4DF808EDFFF7F4FFDD
:100B20000CBF012000205DF808FB00BF4DF808ED68
:100B3000FFF7EAFF34BF012000205DF808FB00BF8B
:100B40004DF808EDFFF7E0FF94BF012000205DF8AD
:100B500008FB00BF4DF808EDFFF7CEFF94BF012062
:100B600000205DF808FB00BF4DF808EDFFF7C4FF5B
:100B700034BF012000205DF808FB00BF4A0011D2FD
:100B800012F5001211D20DD56FF47873B3EB6252E7
:100B90000ED44FEAC12343F0004343EA505323FAF3
:100BA00002F070474FF00000704750EA013002D168
:100BB0004FF0FF3070474FF0000070474FEA41029E
:100BC000B2F1E04324BFB3F5001CDCF1FE5C0DD9AB
:100BD00001F0004C4FEAC0024CEA5070B2F1004FF5
:100BE00040EB830008BF20F00100704711F0804FF8
:100BF00021D113F13872BCBF01F00040704741F4BD
:100C000080114FEA5252C2F11802C2F1200C10FAC0
:100C10000CF320FA02F018BF40F001004FEAC123A4
:100C20004FEAD32303FA0CFC40EA0C0023FA02F348
:100C30004FEA4303CCE77FEA625307D150EA01331E
:100C40001EBF4FF0FE4040F44000704701F00040EE
:100C500040F0FE4040F40000704700BF80F00040CC
:100C600002E000BF81F0004142001FBF5FEA410384
:100C700092EA030F7FEA226C7FEA236C6AD04FEA84
:100C80001262D2EB1363C1BFD218414048404140C9
:100C9000B8BF5B42192B88BF704710F0004F40F47B
:100CA000000020F07F4018BF404211F0004F41F497
:100CB000000121F07F4118BF494292EA030F3FD063
:100CC000A2F1010241FA03FC10EB0C00C3F1200376
:100CD00001FA03F100F0004302D5494260EB400005
:100CE000B0F5000F13D3B0F1807F06D340084FEA70
:100CF000310102F10102FE2A51D2B1F1004F40EB65
:100D0000C25008BF20F0010040EA030070474900CC
:100D100040EB0000013A28BFB0F5000FEDD2B0FA69
:100D200080FCACF1080CB2EB0C0200FA0CF0AABF8C
:100D300000EBC25052421843BCBFD040184370472A
:100D400092F0000F81F4000106BF80F40000013230
:100D5000013BB5E74FEA41037FEA226C18BF7FEA07
:100D6000236C21D092EA030F04D092F0000F08BF49
:100D70000846704790EA010F1CBF0020704712F030
:100D80007F4F04D1400028BF40F00040704712F16F
:100D900000723CBF00F50000704700F0004343F0D4
:100DA000FE4040F4000070477FEA226216BF08460A
:100DB0007FEA23630146420206BF5FEA412390EACD
:100DC000010F40F4800070474FF0000304E000BFC3
:100DD00010F0004348BF40425FEA000C08BF704774
:100DE00043F0964301464FF000001CE050EA010238
:100DF00008BF70474FF000030AE000BF50EA01024D
:100E000008BF704711F0004302D5404261EB410139
:100E10005FEA010C02BF84460146002043F0B6435E
:100E200008BFA3F18053A3F50003BCFA8CF2083A83
:100E3000A3EBC25310DB01FA02FC634400FA02FC8C
:100E4000C2F12002BCF1004F20FA02F243EB020093
:100E500008BF20F00100704702F1200201FA02FCF5
:100E6000C2F1200250EA4C0021FA02F243EB0200E8
:100E700008BF20EADC70704753B94AB9002908BF9F
:100E800000281CBF4FF0FF314FF0FF3000F094B945
:100E9000ADF1080C6DE904CE00F026F8DDF804E0B1
:100EA000DDE9022304B07047D0B5FFF775FB0C4BAA
:100EB000002206460F46FFF7C7FBFFF75FFE04461A
:100EC000FFF748FB074B0022FFF7BEFB02460B462D
:100ED00030463946FFF700FAFFF750FE2146D0BDF5
:100EE0000000F03D0000F0412DE9F047089D044668
:100EF0008E46002B4DD18A42944669D9B2FA82F2CD
:100F000052B101FA02F3C2F1200120FA01F10CFA08
:100F100002FC41EA030E94404FEA1C48210CBEFB40
:100F2000F8F61FFA8CF708FB16E341EA034306FBC9
:100F300007F199420AD91CEB030306F1FF3080F058
:100F40001F81994240F21C81023E63445B1AA4B2A5
:100F5000B3FBF8F008FB103344EA034400FB07F747
:100F6000A7420AD91CEB040400F1FF3380F00A8188
:100F7000A74240F207816444023840EA0640E41B7D
:100F800000261DB1D4400023C5E900433146BDE829
:100F9000F0878B4209D9002D00F0EF800026C5E9CB
:100FA000000130463146BDE8F087B3FA83F6002EE3
:100FB0004AD18B4202D3824200F2F980841A61EB5B
:100FC000030301209E46002DE0D0C5E9004EDDE779
:100FD00002B9FFDEB2FA82F2002A40F09280A1EB61
:100FE0000C014FEA1C471FFA8CFE0126200CB1FBB6
:100FF000F7F307FB131140EA01410EFB03F08842AF
:1010000008D91CEB010103F1FF3802D2884200F23B
:10101000CB804346091AA4B2B1FBF7F007FB1011CD
:1010200044EA01440EFB00FEA64508D91CEB04046B
:1010300000F1FF3102D2A64500F2BB800846A4EBC6
:101040000E0440EA03409CE7C6F12007B34022FAB1
:1010500007FC4CEA030C20FA07F401FA06F31C43E0
:10106000F9404FEA1C4900FA06F3B1FBF9F8200CED
:101070001FFA8CFE09FB181140EA014108FB0EF033
:10108000884202FA06F20BD91CEB010108F1FF3A83
:1010900080F08880884240F28580A8F1020861448F
:1010A000091AA4B2B1FBF9F009FB101144EA01419D
:1010B00000FB0EFE8E4508D91CEB010100F1FF3448
:1010C0006CD28E456AD90238614440EA0840A0FBE0
:1010D0000294A1EB0E01A142C846A64656D353D0B6
:1010E0005DB1B3EB080261EB0E0101FA07F722FADA
:1010F00006F3F1401F43C5E9007100263146BDE803
:10110000F087C2F12003D8400CFA02FC21FA03F365
:10111000914001434FEA1C471FFA8CFEB3FBF7F0E6
:1011200007FB10360B0C43EA064300FB0EF69E420B
:1011300004FA02F408D91CEB030300F1FF382FD2A4
:101140009E422DD9023863449B1B89B2B3FBF7F64C
:1011500007FB163341EA034106FB0EF38B4208D925
:101160001CEB010106F1FF3816D28B4214D9023E66
:101170006144C91A46EA004638E72E46284605E784
:101180000646E3E61846F8E64B45A9D2B9EB020855
:1011900064EB0C0E0138A3E74646EAE7204694E7E5
:1011A0004046D1E7D0467BE7023B614432E7304618
:1011B00009E76444023842E7704700BF10B50446AF
:1011C0000E4B18784FF47A73B3FBF0F30C4A1068A7
:1011D000B0FBF3F000F0EAF868B90F2C01D9012058
:1011E0000AE0002221464FF0FF3000F067F8054B7F
:1011F0001C60002000E0012010BD00BF00000020A6
:10120000880000200400002008B5094B1A6842F449
:1012100000721A601A6842F480721A60032000F0AB
:101220002FF80020FFF7CAFF13F034F8002008BDA4
:10123000003C0240034A1168034B1B780B441360C7
:10124000704700BF3C01002000000020014B1868DF
:10125000704700BF3C01002038B50446FFF7F6FF99
:101260000546B4F1FF3F02D0044B1B781C44FFF746
:10127000EDFF401BA042FAD338BD00BF00000020A4
:1012800010B50446C31E042B0DD8094AD36823F4B5
:10129000E0631B041B0C240204F4E0641C43054BB4
:1012A0002343D36010BD9221034810F0F7FFECE711
:1012B00000ED00E00000FA059873010870B50546DE
:1012C0000C4616460F2A21D80F2C24D8194BDB6860
:1012D000C3F30223C3F10701042928BF04211A1D07
:1012E000062A1DD9033B4FF0FF3202FA01F124EA2E
:1012F00001049C4002FA03F326EA03063443002D5E
:1013000010DB2401E4B20C4B5C5570BDAA210B48E4
:1013100010F0C4FFD8E7AB21084810F0BFFFD5E7B5
:101320000023E0E705F00F052401E4B2044B5C550F
:10133000EBE700BF00ED00E000E400E09873010877
:1013400014ED00E010B5041E0ADB002C07DB04F0EE
:101350001F02640901239340044A42F8243010BD5F
:10136000BE21034810F09AFFEFE700BF00E100E064
:101370009873010810B5041E0FDB002C0CDB04F081
:101380001F026409012393402034064A42F82430A6
:10139000BFF34F8FBFF36F8F10BDCE21024810F007
:1013A0007DFFEAE700E100E0987301080138B0F141
:1013B000807F0BD24FF0E0235861054AF02182F87C
:1013C00023100020986107221A617047012070479E
:1013D00000ED00E0BFF35F8F044B5A6A22F48032C5
:1013E0005A620022C3F89420704700BF00ED00E06D
:1013F00040F00100054BC3F894005A6A42F4803271
:101400005A62BFF34F8FBFF36F8F704700ED00E05C
:1014100030B405682C6824F480242C600468636070
:101420008368402B05D0036899600368DA6030BC9C
:10143000704703689A600368D960F8E710B40168E0
:10144000CAB2103A0A4BA3FB02431B09094CE35CE6
:10145000C3655F2A07D9084B0B4004338365806D51
:101460005DF8044B7047044B0B408365F7E700BF02
:10147000ABAAAAAA0C74010800FCFFFF836A826968
:1014800092B9012B0AD0022B02D00BB10020704779
:10149000C36A13F0807F28D100207047C36AB3F17C
:1014A000C07F24D000207047B2F5005F09D0022B26
:1014B00025D9032B25D1C36A13F0807F23D10020C7
:1014C0007047032B03D8DFE803F01404140A00204C
:1014D0007047C36A13F0807F0DD100207047C36A44
:1014E000B3F1C07F09D00020704701207047012070
:1014F000704701207047012070470120704701208C
:1015000070470020704701207047000070B5044606
:10151000FFF79CFE002C00F0418105462368A0499E
:10152000A04A8B4218BF93422ED0183293422BD040
:101530001832934228D01832934225D01832934261
:1015400022D0183293421FD0183293421CD002F599
:101550005672934218D01832934215D018329342E3
:1015600012D0183293420FD0183293420CD0183256
:10157000934209D01832934206D01832934203D0D6
:10158000B921894810F08AFE6368002B18BFB3F1B7
:10159000007F11D0B3F1806F0ED0B3F1C06F0BD0CC
:1015A000B3F1006F08D0B3F1206F05D0B3F1406FF5
:1015B00002D0B3F1606F75D1A368002B18BF402B28
:1015C00001D0802B73D1E368B3F5007F18BF002BE7
:1015D00072D12369B3F5806F18BF002B71D1636995
:1015E000002B18BFB3F5006F02D0B3F5805F6DD14B
:1015F000A369002B18BFB3F5005F02D0B3F5804F8D
:1016000069D1E369002B18BFB3F5807F01D0202B8F
:1016100066D1236A002B18BFB3F5803F05D0B3F520
:10162000003F02D0B3F5403F5FD1636A002B18BF83
:10163000042B5FD1636AD3B1A36A032B5FD8E36A3B
:10164000002B18BFB3F5000F05D0B3F1807F02D097
:10165000B3F1C07F58D1236B002B18BFB3F5001F27
:1016600005D0B3F5800F02D0B3F5C00F51D10023E0
:1016700084F83430022384F835302268136823F06C
:101680000103136023681A6812F0010F46D0FFF7B8
:10169000DDFD401B0528F5D920236365032084F870
:1016A000350070BDBA21404810F0F8FD84E7BB2139
:1016B0003D4810F0F3FD86E7BC213B4810F0EEFDFD
:1016C00087E7BD21384810F0E9FD88E7BE2136489C
:1016D00010F0E4FD8CE7BF21334810F0DFFD90E708
:1016E000C021314810F0DAFD93E7C1212E4810F0F7
:1016F000D5FD9AE7C2212C4810F0D0FD9AE7C7210A
:10170000294810F0CBFD9AE7C821274810F0C6FD04
:10171000A1E7C921244810F0C1FDA8E71A682348B1
:1017200010406168A2680A43E1680A4321690A43DC
:1017300061690A43A1690A43E1690A43216A0A43CC
:101740000243616A04291ED01A602668756925F073
:101750000705636A1D43042B07D1A36A1D43E36A8F
:101760001BB12046FFF78AFE90B975612046FFF74E
:1017700065FEE26D3F239340836000206065012396
:1017800084F835308DE7E16A206B01430A43DBE7DB
:1017900040236365012084F8350082E7012080E75B
:1017A0001060024028600240D47301083F8010F0AE
:1017B0002DE9F04104460E4617461D46D0F85880E4
:1017C0005A1E4FF6FE739A4211D894F83430012B0A
:1017D0003BD0012384F8343094F83530DBB2012B50
:1017E0000BD0002384F834300220BDE8F08140F2B1
:1017F000CD11174810F052FDE7E7022384F8353089
:10180000002363652B463A4631462046FFF700FE2B
:10181000E26D3F239340C8F808302268136843F014
:10182000160313602268536943F080035361236CED
:1018300023B12268136843F0080313602268136819
:1018400043F0010313600020CFE70220CDE700BF83
:10185000D473010870B50446866DFFF7F7FC94F861
:101860003530DBB2022B06D080236365002384F879
:101870003430012070BD05462268136823F016033A
:1018800013602268536923F080035361236CE3B132
:101890002268136823F0080313602268136823F09A
:1018A0000103136023681B6813F0010F11D0FFF7C9
:1018B000CDFC431B052BF5D920236365002384F859
:1018C0003430032084F83500D4E7A36C002BDFD13B
:1018D000E3E7E26D3F239340B360002084F83400D7
:1018E000012384F83530C5E790F83530DBB2022BA0
:1018F00003D08023436501207047052380F83530ED
:101900000268136823F00103136000207047000091
:10191000F0B583B0044600230193724B1D68724BEF
:10192000A3FB0535AD0A876D3E68C26D0823934061
:10193000334210D003681A6812F0040F0BD01A68F3
:1019400022F004021A60C26D08239340BB60436D0D
:1019500043F001034365E26D01239340334209D014
:101960002268526912F0800F04D0BB60636D43F0AF
:1019700002036365E26D04239340334209D0226879
:10198000126812F0020F04D0BB60636D43F00403D1
:101990006365E26D10239340334224D022681268BD
:1019A00012F0080F1FD0BB6023681A6812F4802F52
:1019B0000DD01B6813F4002F04D1236C9BB120467B
:1019C000984710E0A36C73B1204698470BE01A6863
:1019D00012F4807F03D11A6822F008021A60236C87
:1019E0000BB120469847E26D20239340334255D0F7
:1019F0002268126812F0100F50D0BB6094F8353096
:101A0000DBB2052B0ED023681A6812F4802F33D076
:101A10001B6813F4002F2AD1636C002B3ED02046A4
:101A200098473BE02268136823F01603136022688E
:101A3000536923F080035361236CA3B122681368B8
:101A400023F008031360E26D3F239340BB60002343
:101A500084F83430012384F83530236D002B3FD0D7
:101A6000204698473CE0A36C002BE7D1EBE7E36B03
:101A7000A3B12046984711E01A6812F4807F09D17B
:101A80001A6822F010021A60002384F8343001230F
:101A900084F83530E36B0BB120469847636DFBB19A
:101AA000636D13F0010F17D0052384F835302268D9
:101AB000136823F001031360019B01330193AB42D0
:101AC00004D823681B6813F0010FF5D1002384F8B4
:101AD0003430012384F83530E36C0BB1204698474D
:101AE00003B0F0BD88000020B5814E1B30B40568FE
:101AF0006C6C04F0404C029C44EA03434CEA030340
:101B00006B640368DA634368B3F5403F03D003684E
:101B1000D96030BC704701F07F4C01F47F0301F4C1
:101B20007F45CAB284689CB1012C0FD0022C12D020
:101B3000032C18D04FEA1C7C1B0D2D0B190241EA17
:101B4000051141EA0C3141EA121101E021F07F4117
:101B500003689963DDE7DB0CAD0AD90241EA451160
:101B600041EAD201F4E74FEADC7CDB0CED0A990292
:101B700041EA451141EACC3141EAD201E8E70000EF
:101B8000002852D010B504460268294B9A4203D06F
:101B9000F621284810F082FB6368002B18BFB3F5CC
:101BA000803F05D0B3F5003F02D0B3F5403F27D1C9
:101BB000A368042B29D8E368B3F5804F2AD294F8A0
:101BC000393063B3022384F839302268136823F470
:101BD000403361680B4313602268536B23F00703A3
:101BE000A1680B4353632268116C134B0B40E168EF
:101BF0000B4313640020E063012384F8393010BDE7
:101C0000F7210C4810F04AFBD2E7F821094810F000
:101C100045FBD0E7F921074810F040FBCFE784F8F7
:101C2000383020460FF0CEF9CCE70120704700BFD6
:101C300000B002401474010800C0FFFF2DE9F0411C
:101C400082B00446884617461D46089EB6F5803F7A
:101C50001CD2B5F5804F1FD294F83830012B21D01B
:101C6000012384F83830022384F8393000962B465B
:101C70003A4641462046FFF739FF2268136843F091
:101C800001031360002002B0BDE8F0814FF4297118
:101C9000054810F003FBDCE740F2A521024810F0F4
:101CA000FDFAD9E70220EEE71474010870B582B09E
:101CB00004460D460023019303681B6813F0010FCF
:101CC00011D12268D369526A134313F0200F47D110
:101CD000236812229A60012384F83930002084F8A6
:101CE000380002B070BDFFF7B1FA064623685A68A3
:101CF00012F0020FE5D15A680192019A12F0210FF9
:101D000014D1B5F1FF3FF1D0FFF7A0FA801BA84234
:101D100001D8002DEAD1E36B43F02003E3630320F5
:101D200084F83900002384F83830DAE7019A12F099
:101D3000200F03D0E26B42F00202E263019A12F03C
:101D4000010F03D0E26B42F00102E26321229A60AC
:101D5000042384F83930002384F838300120C0E7A8
:101D6000FFF774FA064623685A6812F0100FAFD1D5
:101D70005A680192019A12F0290F14D1B5F1FF3F70
:101D8000F1D0FFF763FA801BA84201D8002DEAD1F9
:101D9000E36B43F02003E363032084F8390000235E
:101DA00084F838309DE7019A12F0080F03D0E26BF7
:101DB00042F00402E263019A12F0200F03D0E26BBA
:101DC00042F00202E263019A12F0010F03D0E26BCB
:101DD00042F00102E26329229A60042384F8393038
:101DE000002384F8383001207BE7000038B5044632
:101DF0000D46012948D804EB05139B69B3F5804FC4
:101E000048D26368B3F5403F0BD004EB0513DB69A0
:101E10000A2B45D8636823B1AB1C1B01E358022B86
:101E200044D894F83830012B6FD0012384F838302F
:101E3000022384F8393004EB0513DA69AB1C1B016B
:101E4000E35842EA0343093A012A35D9AA1C04EBB4
:101E50000212526843EA0263002D3ED12168486AAB
:101E60002B4A024013434B62226804EB0513996925
:101E70009161DB69093B012B26D9012384F83930B4
:101E8000002084F8380038BD40F24A61214810F043
:101E900005FAB0E740F24B611E4810F0FFF9B0E7D9
:101EA00040F24E611B4810F0F9F9B3E740F251617E
:101EB000184810F0F3F9B4E7AA1C04EB02125268B8
:101EC00002F07F421343C7E7023504EB05156B6848
:101ED000226823F07F439362CFE72168C8690C4AE8
:101EE00002401343CB61226804EB05139969116129
:101EF000DB69093B012BC0D8023504EB05156B6883
:101F0000226823F07F431362B7E70220BBE700BFDC
:101F1000F0FFFC00147401082DE9F04782B0074679
:101F20000E46A84AA84B904218BF98422BD003F502
:101F30000063C31A18BF012302F50062904222D049
:101F40000BB3A24BC31A18BF012302F500629042E3
:101F500019D0C3B19E4BC31A18BF012302F500620A
:101F6000904210D07BB19B4BC31A18BF012302F5DE
:101F70000062904207D033B1974B984203D0B12111
:101F8000964810F08BF9338833B37368112B18BF60
:101F9000012B1CD9022B1AD0122B18D0904A934235
:101FA00015D002F58012934211D002F580129342AF
:101FB0000DD0A2F5F812934209D002F58012934297
:101FC00005D002F58012934201D0032B09D1B368EA
:101FD000022B0BD8002450E0B221804810F05EF9AB
:101FE000D3E7B3217D4810F059F9F0E7B4217B48DD
:101FF00010F054F9EEE7C521784810F04FF955E09C
:10200000D921764810F04AF97DE0092300E0002349
:102010008B4003430232734941F82230724B1A68F5
:102020006FEA080322EA0801706810F4803F01D0CB
:1020300048EA02016C4A1160526803EA02017068C2
:1020400010F4003F01D048EA0201674A51609268EB
:1020500003EA0201706810F4801F01D048EA02010F
:10206000614A9160D2681340716811F4001F01D079
:1020700048EA02035C4AD36001340F2C00F2C880A6
:102080000125A540336803EA050835EA0303F3D1C7
:102090007368122B18BF022B18D133690F2B18BF8E
:1020A0000C2B03D90D2B01D00E2BA4D1E208083242
:1020B00057F8220004F0070399000F238B4020EA11
:1020C000030033698B40034347F822303A684FEAF4
:1020D000440A032303FA0AF36FEA030922EA03021C
:1020E000736803F0030303FA0AF313433B60736856
:1020F0005A1E112B18BF012A01D9122B14D1F368D3
:10210000032B3FF67DAFBA6809EA0202F36803FACF
:102110000AF31343BB607A6822EA05027368C3F3CB
:102120000015A54015437D60FB6809EA0309B36803
:1021300003FA0AF343EA0903FB60736813F0805F54
:102140009AD02A4B5A6C42F480425A645B6C03F476
:1021500080430193019BA208911C224B53F821005C
:1021600004F0030399000F238B4020EA0300154B72
:102170009F423FF44CAF03F580639F4238D003F594
:1021800080639F4236D003F580639F4234D003F5CD
:1021900080639F4232D003F580639F4230D003F5C5
:1021A00080639F422ED003F580639F422CD003F5BD
:1021B00080639F422AD003F580639F423FF425AF9E
:1021C0000A2325E7000002400004024000140240F8
:1021D000001C024000240240002802405074010804
:1021E0000000111000380140003C0140003802405E
:1021F00001230DE702230BE7032309E7042307E785
:10220000052305E7062303E7072301E70823FFE685
:1022100002B0BDE8F08700BF38B504460D4621B1D5
:1022200023691D4207D0012038BD4FF4BD7103481A
:1022300010F034F8F4E70020F6E700BF507401080E
:1022400070B5054614460E4621B1012C08D86CB174
:10225000AE6170BD4FF4CD71064810F01FF8F4E781
:1022600040F29B11034810F019F8F0E73604AE6114
:10227000EFE700BF507401087047000008B5054B38
:102280005B69034200D108BD024B5861FFF7F4FFC0
:10229000F9E700BF003C014003689A6912F0020FA1
:1022A00001D000229A6203689A6912F0010F03D1EB
:1022B0009A6942F001029A61704700002DE9F041ED
:1022C00080460C4617461D46069E03682749284A45
:1022D0008B4218BF93420CD002F58062934208D023
:1022E00002F58062934204D041F6C10121480FF00B
:1022F000D5FFB5F1807F18BFB5F1007F00D045BB99
:102300001D4A1E4B964218BF9E4207D0321E18BF70
:102310000122A3F580639E4200D002BBD8F80020C2
:102320005168730D03F4806343F07F7343F45833B3
:1023300043F47F7343F0030321EA0301C4F3090468
:1023400044EA074444EA050333430B435360BDE8C2
:10235000F08141F6C20107480FF0A0FFD0E741F637
:10236000C30104480FF09AFFD8E700BF00540040B3
:10237000005800408C740108004000800024008058
:10238000F8B505460E46174603689B6913F0100F13
:1023900001D10020F8BD2B689C6914F0200F17D1E3
:1023A000B6F1FF3FF7D0FEF751FFC01BB04201D896
:1023B000002EF0D16B6C43F020036B64202385F872
:1023C0004130002385F8423085F840300120E1E7B4
:1023D0001022DA612B682024DC612846FFF75CFFBD
:1023E0002A68536823F0FF7323F48B3323F4FF73BD
:1023F00023F0010353606B6C43F004036B6485F8B6
:102400004140002385F8423085F840300120C1E783
:1024100070B504460D46164623689B6913F0020FFB
:102420001DD1324629462046FFF7AAFFC8B9B5F1AB
:10243000FF3FF1D0FEF70AFF801BA84201D8002D14
:10244000EAD1636C43F020036364202384F84130B5
:10245000002384F8423084F84030012000E000205E
:1024600070BD0120FCE72DE9F0410646884617467D
:102470001D463468A46938EA04030CBF4FF0010C10
:102480004FF0000CBC4518D1B5F1FF3FF1D0FEF77D
:10249000DDFE069BC01AA84201D8002DE9D1736C5D
:1024A00043F020037364202386F84130002386F82C
:1024B000423086F84030012000E00020BDE8F08185
:1024C0002DE9F04182B0044690461D46089E099FC2
:1024D000194B00934FF08073EAB2FFF7EFFE3A46D4
:1024E00031462046FFF794FFF8B9012D0ED123683D
:1024F0005FFA88F29A6200973346002280212046D4
:10250000FFF7B1FFA8B902B0BDE8F08123684FEA38
:1025100018229A623A4631462046FFF779FF30B9D1
:1025200023685FFA88F29A62E5E70120EBE7012071
:10253000E9E70120E7E700BF002000802DE9F04136
:1025400082B0044690461D46089E099F184B009392
:102550000023EAB2FFF7B2FE3A4631462046FFF7C3
:1025600057FFF8B9012D0ED123685FFA88F29A62FD
:1025700000973346002240212046FFF774FFA8B998
:1025800002B0BDE8F08123684FEA18229A623A4609
:1025900031462046FFF73CFF30B923685FFA88F2E6
:1025A0009A62E5E70120EBE70120E9E70120E7E790
:1025B0000020008070B505460C4616462B689B69C6
:1025C00013F0200F1AD1324621462846FFF7D8FED5
:1025D000B0B9FEF73BFE801BA04201D8002CEDD124
:1025E0006B6C43F020036B64202385F8413000239B
:1025F00085F8423085F84030012070BD0020FCE7AE
:102600000120FAE7002800F0B78010B504460368FF
:102610005A495B4A8B4218BF93420CD002F5806244
:10262000934208D002F58062934204D04FF4EF71D8
:1026300054480FF033FEA368B3F5806F61D2E368AE
:10264000013B012B63D82369002B18BFB3F5004F62
:1026500063D16369FF2B66D8A369072B69D8E36947
:10266000002B18BFB3F5002F69D1236A002B18BFC8
:10267000B3F5003F69D194F84130002B6BD024238F
:1026800084F841302268136823F001031360636803
:10269000226823F0706313612268936823F4004377
:1026A0009360E368012B5CD0A368226843F4044381
:1026B0009360E368022B5AD022685168324B0B4377
:1026C00053602268D36823F40043D36023696269AE
:1026D0001343A169226843EA0123D360E369216AB5
:1026E00022680B4313602268136843F001031360F0
:1026F00000206064202384F84130206384F8420085
:1027000010BD40F2DF111F480FF0C8FD97E74FF4EE
:10271000F0711C480FF0C2FD95E740F2E111194835
:102720000FF0BCFD95E74FF4F17116480FF0B6FDC0
:1027300092E740F2E31113480FF0B0FD8FE74FF43A
:10274000F27110480FF0AAFD8FE740F2E5110D4835
:102750000FF0A4FD8FE784F8403020460FF08EF88C
:102760008DE7A368226843F400439360A1E72368E0
:102770004FF400625A609FE7012070470054004008
:10278000005800408C740108008000022DE9F04FD1
:1027900083B004460D4691469846BDF834A00E9F7E
:1027A000013B9BB2012B22D894F84130DBB2202BA5
:1027B00040F0BF800C9BBAF1000F18BF002B1CD05B
:1027C00094F84030012B00F0B8804FF0010B84F8F2
:1027D00040B0FEF73BFD0646009019235A464FF4E1
:1027E00000412046FFF73FFE60B10120A2E040F625
:1027F000ED0156480FF052FDD6E74FF400736364C5
:10280000012097E0212384F84130402384F84230AE
:10281000002363640C9A6262A4F82AA063630196A1
:10282000009743464A4629462046FFF749FE70B9BD
:10283000638D9BB2FF2B0FD9FF22228500230093CB
:102840004FF0807329462046FFF738FD21E0002332
:1028500084F8403058466DE0628D92B222850023A4
:1028600000934FF00073D2B229462046FFF726FDB1
:102870000FE0628D92B22285002300934FF0007327
:10288000D2B229462046FFF719FD638D9BB2002B7B
:1028900033D0324639462046FFF7BAFD00284ED1E4
:1028A000626A236812789A62636A01336362638D95
:1028B0009BB2013B9BB26385238D013B9BB2238579
:1028C000628D92B2002AE0D0002BDED100963B460A
:1028D000002280212046FFF7C6FD90BB638D9BB28E
:1028E000FF2BC6D9FF222285002300934FF080736F
:1028F00029462046FFF7E2FCC7E732463946204624
:10290000FFF758FEF8B923682022DA6121684B6886
:1029100023F0FF7323F48B3323F4FF7323F00103BD
:102920004B6084F84120002384F8423084F8403022
:1029300000E0022003B0BDE8F08F0220FAE701209A
:10294000F8E70120F6E70120F4E700BF8C740108E6
:102950002DE9F04F83B004460D4691469846BDF8E8
:1029600034A00E9F013B9BB2012B22D894F841303A
:10297000DBB2202B40F0C0800C9BBAF1000F18BFD7
:10298000002B1CD094F84030012B00F0B9804FF0A0
:10299000010B84F840B0FEF759FC0646009019235D
:1029A0005A464FF400412046FFF75DFD60B101201B
:1029B000A3E040F6741156480FF070FCD6E74FF4D0
:1029C00000736364012098E0222384F8413040239F
:1029D00084F84230002363640C9A6262A4F82AA04F
:1029E00063630196009743464A4629462046FFF70F
:1029F000A5FD70B9638D9BB2FF2B0FD9FF222285F5
:102A0000444B00934FF0807329462046FFF756FC55
:102A100021E0002384F8403058466EE0628D92B287
:102A200022853C4B00934FF00073D2B229462046DA
:102A3000FFF744FC0FE0628D92B2228500230093E1
:102A40004FF00073D2B229462046FFF737FC638D62
:102A50009BB2002B34D000963B4600220421204636
:102A6000FFF701FD00284DD123685A6A636A1A7086
:102A7000636A01336362228D013A92B22285638DCB
:102A80009BB2013B9BB26385638D9BB2002BDED072
:102A9000002ADCD100963B4680212046FFF7E3FC6C
:102AA00090BB638D9BB2FF2BC5D9FF2222850023EB
:102AB00000934FF0807329462046FFF7FFFBC6E7DF
:102AC000324639462046FFF775FDF8B923682022C3
:102AD000DA6121684B6823F0FF7323F48B3323F40E
:102AE000FF7323F001034B6084F84120002384F836
:102AF000423084F8403000E0022003B0BDE8F08F9F
:102B00000220FAE70120F8E70120F6E70120F4E7C8
:102B10008C7401080024008038B504460D46036813
:102B20002449254A8B4218BF93420BD002F580629C
:102B3000934207D002F58062934203D05F211F4881
:102B40000FF0ACFB002D18BFB5F5805F28D194F8CD
:102B50004130DBB2202B28D194F84030012B26D015
:102B6000012384F84030242384F84130226813681C
:102B700023F0010313602268136823F48053136069
:102B8000236819680D431D602268136843F0010330
:102B90001360202384F84130002084F8400038BDC1
:102BA000602106480FF07AFBD1E70220F7E7022008
:102BB000F5E700BF0054004000580040C47401080D
:102BC00038B504460D4603682149224A8B4218BF96
:102BD00093420BD002F58062934207D002F58062E7
:102BE000934203D08D211C480FF058FB0F2D26D89F
:102BF00094F84130DBB2202B26D194F84030012BE1
:102C000024D0012384F84030242384F84130226802
:102C1000136823F0010313602368196821F47061BD
:102C200041EA05251D602268136843F00103136023
:102C3000202384F84130002084F8400038BD8E21E4
:102C400005480FF02BFBD3E70220F7E70220F5E75A
:102C50000054004000580040C4740108F0B54D68AD
:102C60000468E368C3F30B431D444FEAC21C04EB42
:102C7000C214D4F8883003F47043C4F888300B6869
:102C80000468E668C6F30B463344013304EBC21410
:102C900043EA0543C4F88830CD680468E368C3F3A9
:102CA0000A031D4404EBC21EDEF88C3003F47043AB
:102CB000CEF88C308B680468E668C6F30A0E73445D
:102CC000013304EBC21443EA0543C4F88C300368B3
:102CD00003EBC213D3F8944024F00704C3F89440E4
:102CE000036803EBC2130C69C3F8944091F8317088
:102CF00091F832608D69046804EBC21404F1840E0B
:102D0000D4F89C300024CEF8184091F8303043EAD3
:102D1000072343EA0643066806EBC21E43EA05633F
:102D2000CEF89C300EF1840E036803EBC213D3F887
:102D3000985025F0FF05C3F89850036803EBC213C1
:102D40004D69C3F89850036803EBC213D3F8A06031
:102D50002E4D3540C3F8A0500D6A036803EBC21333
:102D6000CE693543C3F8A050036803EBC213D3F810
:102D7000AC50C3F8AC40036803EBC2124B6AC2F814
:102D8000AC300B696BB1012B39D0022B18BF042B6F
:102D900037D0032B37D0072B01D0012502E00225C5
:102DA00000E0042502686244D2F8B04004F0E02458
:102DB000C2F8B0408A6A05FB02F44B680A689B1AA5
:102DC00005FB03F303330268624443EA0443C2F899
:102DD000B03003686344D3F8B4400D4A2240C3F8CE
:102DE000B42003686344CA6AC3F8B42003689C44EF
:102DF000DCF8843043F00103CCF88430F0BD0325C7
:102E0000D0E70225CEE70225CCE700BFF8F8FFFFA8
:102E100000F8FFFF002800F0FD8038B50446026886
:102E20007D4B9A4203D0CA217C480FF037FA636980
:102E3000B3F5805F80F0AC80A369B3F5006F80F0DC
:102E4000AC80E369B3F5805F80F0AC80236AB3F5B2
:102E5000006F80F0AC80A36AB3F5006F80F0AC80A7
:102E6000636AB3F5805F80F0AC80236BB3F5006FCD
:102E700080F0AC80E36AB3F5805F80F0AC8063687B
:102E8000002B18BFB3F1004F40F0AA80A368002BBD
:102E900018BFB3F1804F40F0A880E368002B18BF43
:102EA000B3F1005F40F0A6802369002B18BFB3F197
:102EB000805F40F0A48094F8A130002B00F0A48043
:102EC000022384F8A1302268936923F07043936150
:102ED00021688A696368A0680343E0680343206946
:102EE000034313438B6121688A684D4B1A408A6003
:102EF00020688268A169656941EA05410A438260E8
:102F00002168CA681A40CA602068C268216AE569F7
:102F100041EA05410A43C26021680A691A400A6110
:102F200020680269A16A656A41EA05410A430261B3
:102F300021684A6913404B61E06A21684B69226B42
:102F400042EA004213434B6194F8350094F836305E
:102F50001B042168CA6A02F07F42CA622168CA6AF9
:102F600043EA002394F8340003431343CB622268FE
:102F7000536B43F0060353632268936943F00103E4
:102F800093610020C4F8A400012384F8A13038BD67
:102F9000CB2122480FF082F94EE7CC211F480FF0D9
:102FA0007DF94EE7CD211D480FF078F94EE7CE218F
:102FB0001A480FF073F94EE7CF2118480FF06EF959
:102FC0004EE7D02115480FF069F94EE7D12113489B
:102FD0000FF064F94EE7D22110480FF05FF94EE789
:102FE000D3210E480FF05AF950E7D4210B480FF0C7
:102FF00055F952E7D52109480FF050F954E7D62189
:1030000006480FF04BF956E784F8A03020460EF042
:10301000F1FC55E701207047006801400075010888
:1030200000F800F0F8B505460C461646012A5AD8B5
:103030002368B3F5805F5CD26368B3F5803F5ED2EE
:10304000A368B3F5805F60D2E368B3F5803F62D2D6
:103050002369072B65D86369FF2B68D8A369FF2B09
:103060006BD8E369B3F5806F18BFB3F5C06F6AD151
:10307000236A052B18BF072B6BD1A36AB3F5005F3A
:103080006DD2E36AB3F5006F6FD295F8A030012BD3
:1030900071D0012785F8A070022385F8A1304FF088
:1030A000340C0CFB065C0CF1380CA646BEE80F0095
:1030B000ACE80F00BEE80F00ACE80F00BEE80F0060
:1030C000ACE80F00DEF80030CCF800303246214684
:1030D0002846FFF7C3FD2B685F6285F8A1700020CA
:1030E00085F8A000F8BD40F2FE2124480FF0D6F884
:1030F0009EE740F2FF2121480FF0D0F89CE74FF403
:1031000040711E480FF0CAF89AE740F201311B489F
:103110000FF0C4F898E740F2023118480FF0BEF8FB
:1031200096E740F2033115480FF0B8F893E74FF4F3
:10313000417112480FF0B2F890E740F205310F48A4
:103140000FF0ACF88DE740F206310C480FF0A6F80E
:103150008EE740F2073109480FF0A0F88DE74FF4F1
:10316000427106480FF09AF88BE740F209310348A4
:103170000FF094F889E70220B4E700BF007501085A
:10318000F8B504460E461546012A1DD894F8A0301D
:10319000012B1FD0012784F8A070022384F8A130EE
:1031A000342305FB03F303F138012344DE652A468B
:1031B00021442046FFF752FD23685F6284F8A17026
:1031C000002084F8A000F8BD40F2115102480FF031
:1031D00065F8DBE70220F6E70075010838B504461C
:1031E0000D464B1E012B16D894F8A030012B18D099
:1031F000012284F8A020022384F8A13021684B6BBF
:1032000043F008034B6323685D6284F8A12000202B
:1032100084F8A00038BD40F2AA5103480FF03EF8F0
:10322000E2E70220F6E700BF00750108F8B50446A2
:103230000E461546FF291DD8012D21D894F8A0303F
:10324000012B23D0012784F8A070022384F8A13039
:10325000342305FB03F303F138012344DE642A46DB
:1032600021442046FFF7FAFC84F8A170002084F87E
:10327000A000F8BD40F2966105480FF00FF8DBE7BB
:1032800040F2976102480FF009F8D7E70220F0E713
:103290000075010810B582B01B4B1A6C42F08052C9
:1032A0001A641B6C03F080530193019B174A136847
:1032B00043F480331360FDF7C9FF0446134B5B688A
:1032C00013F4803F08D1FDF7C1FF001BB0F57A7FF2
:1032D000F4D9032002B010BD0C4A136843F4003344
:1032E0001360FDF7B3FF0446084B5B6813F4003F1F
:1032F00007D1FDF7ABFF001BB0F57A7FF4D90320AF
:10330000E8E70020E6E700BF003802400070004018
:10331000002800F0628270B582B0044603680F2B6B
:1033200028D8236813F0010F3ED06368002B18BF24
:10333000B3F5803F02D0B3F5A02F21D18B4B9B6812
:1033400003F00C03042B26D0884B9B6803F00C037E
:10335000082B1BD06368B3F5803F54D0002B68D195
:10336000824B1A6822F480321A601A6822F4802292
:103370001A604DE04FF4B2717D480EF08FFFD0E738
:103380004FF4B5717A480EF089FFD7E7774B5B6849
:1033900013F4800FDED0754B1B6813F4003F03D08D
:1033A0006368002B00F01B82236813F0020F00F00B
:1033B0008880E368012B62D823691F2B65D86B4B8B
:1033C0009B6813F00C0F6BD0684B9B6803F00C03E9
:1033D000082B60D0E368002B00F09A80634A1368E2
:1033E00043F001031360FDF731FF05465F4B1B6897
:1033F00013F0020F40F08380FDF728FF401B0228E6
:10340000F4D90320F0E1594A136843F48033136080
:1034100063682BB3FDF71AFF0546544B1B6813F482
:10342000003FC1D1FDF712FF401B6428F5D90320EE
:10343000DAE1B3F5A02F09D04C4B1A6822F48032A0
:103440001A601A6822F480221A60E1E7474B1A6872
:1034500042F480221A601A6842F480321A60D7E778
:10346000FDF7F4FE0546414B1B6813F4003F9BD06B
:10347000FDF7ECFE401B6428F5D90320B4E14FF4BE
:10348000CE713B480EF00AFF96E740F29D11384896
:103490000EF004FF93E7354B5B6813F4800F99D16E
:1034A000324B1B6813F0020F03D0E368012B40F08E
:1034B00098812E4A136823F0F803216943EAC10377
:1034C0001360236813F0080F54D06369012B33D8BD
:1034D0006369002B36D0254A536F43F001035367CD
:1034E000FDF7B4FE0546214B5B6F13F0020F41D18F
:1034F000FDF7ACFE401B0228F5D9032074E11B4AFE
:10350000136823F0F803216943EAC1031360D8E785
:10351000164A136823F001031360FDF797FE054672
:10352000124B1B6813F0020FCBD0FDF78FFE401B30
:103530000228F5D9032057E140F2DD110C480EF0C6
:10354000ADFEC5E7094A536F23F001035367FDF74A
:103550007DFE0546054B5B6F13F0020F0AD0FDF7A9
:1035600075FE401B0228F5D903203DE100380240DA
:103570003C750108236813F0040F00F08680A368EF
:10358000052B18BF012B23D8994B1B6C13F0805FC0
:1035900024D1974B1A6C42F080521A641B6C03F0D2
:1035A00080530193019B0125924B1B6813F4807F8C
:1035B00016D0A368012B27D0002B3DD18C4B1A6F5E
:1035C00022F001021A671A6F22F004021A6720E043
:1035D00040F2072188480EF061FED5E70025E3E7B9
:1035E000844A136843F480731360FDF72FFE064688
:1035F000804B1B6813F4807FDBD1FDF727FE801B17
:103600006428F5D90320EFE0794A136F43F00103F2
:103610001367A36833B3FDF719FE0646744B1B6F9F
:1036200013F0020F2FD1FDF711FE801B41F28833FA
:103630009842F3D90320D7E0052B09D06C4B1A6FC1
:1036400022F001021A671A6F22F004021A67E0E7FB
:10365000674B1A6F42F004021A671A6F42F00102B8
:103660001A67D6E7FDF7F2FD0646614B1B6F13F0B4
:10367000020F08D0FDF7EAFD801B41F28833984223
:10368000F3D90320B0E0002D40D1A369022B43D829
:10369000A369002B00F0A780554A926802F00C0243
:1036A000082A00F0A380022B40F08180E369002B00
:1036B00018BFB3F5800F35D1236A023B3D2B37D8B5
:1036C000636A323BB3F5BF7F38D8A36A022B18BFB9
:1036D000042B03D0062B01D0082B35D1E36A023B23
:1036E0000D2B37D8424A136823F080731360FDF71F
:1036F000ADFD05463E4B1B6813F0007F30D0FDF753
:10370000A5FD401B0228F5D903206DE0384A136C53
:1037100023F080531364B8E740F24B2136480EF093
:10372000BDFDB5E74FF4157133480EF0B7FDC3E7A3
:1037300040F2552130480EF0B1FDC1E740F256216C
:103740002D480EF0ABFDC0E740F257212A480EF09D
:10375000A5FDC3E74FF4167127480EF09FFDC1E7A2
:10376000E369226A1343626A43EA8213A26A520837
:10377000013A43EA0243E26A43EA026343F0005338
:103780001B4A5360136843F080731360FDF75EFDBE
:103790000446174B1B6813F0007F06D1FDF756FD5A
:1037A000001B0228F5D903201EE000201CE0104A6F
:1037B000136823F080731360FDF748FD04460C4B3B
:1037C0001B6813F0007F06D0FDF740FD001B0228A8
:1037D000F5D9032008E0002006E001207047012011
:1037E00002E0012000E0002002B070BD0120FBE7F4
:1037F00000380240007000403C75010808B5254BB8
:103800009B6803F00C03042B3FD0082B3FD1214BC6
:103810005A6802F03F025B6813F4800F12D01D4B10
:103820005968C1F388111C480023A1FB0001FDF772
:1038300023FB184B5B68C3F3014301335B00B0FB10
:10384000F3F025E0134B5968C1F3881C4FEA4C1183
:10385000B1EB0C006EEB0E0E4FEA8E1343EA906351
:103860008101091A63EB0E03DB0043EA5173C900BF
:1038700011EB0C0C43F10003990200234FEA8C205A
:1038800041EA9C51FDF7F8FAD3E7034800E003480A
:1038900008BD00BF0038024040787D010024F400DC
:1038A000002800F0FE8070B50D4604460368013B19
:1038B0000E2B6ED80F2D72D87E4B1B6803F00F03B2
:1038C000AB420BD27B4A136823F00F032B431360E8
:1038D000136803F00F03AB4240F0E580236813F058
:1038E000020F2AD013F0040F04D0734A936843F4F4
:1038F000E0539360236813F0080F04D06E4A936876
:1039000043F460439360A368002B18BF802B0DD055
:10391000902B0BD0A02B09D0B02B07D0C02B05D0FB
:10392000D02B03D0E02B01D0F02B3ED1624A93681C
:1039300023F0F003A1680B439360236813F0010F99
:103940004DD06368022B36D86368012B39D0022B27
:103950003ED0594A126812F0020F00F0A680564974
:103960008A6822F0030213438B60FDF76FFC064662
:10397000514B9B6803F00C036268B3EB820F2ED0AF
:10398000FDF764FC801B41F288339842F0D9032094
:103990007AE040F2CA2149480EF080FC8AE740F202
:1039A000CB2146480EF07AFC86E740F2EF214348EF
:1039B0000EF074FCBAE740F2F62140480EF06EFCBF
:1039C000C2E73D4A126812F4003FC8D101205BE013
:1039D000394A126812F0007FC1D1012054E0354B02
:1039E0001B6803F00F03AB420AD9324A136823F075
:1039F0000F032B431360136803F00F03AB4256D140
:103A0000236813F0040F15D0E368002B18BFB3F53B
:103A1000805F08D0B3F5A05F05D0B3F5C05F02D0DA
:103A2000B3F5E05F31D1244A936823F4E053E168B1
:103A30000B439360236813F0080F16D02369002B03
:103A400018BFB3F5805F08D0B3F5A05F05D0B3F51C
:103A5000C05F02D0B3F5E05F1DD1174A936823F42D
:103A60006043216943EAC1039360FFF7C7FE124B2D
:103A70009B68C3F30313124AD35CD840114B186000
:103A80000020FDF79BFB002070BD40F233310B4856
:103A90000EF004FCC7E740F23A3108480EF0FEFB96
:103AA000DBE7012070470120EEE70120ECE7012071
:103AB000EAE700BF003C0240003802403C750108C4
:103AC00084CA010888000020F0B583B0044602686B
:103AD000904B1340002B00F0FC80266816F0010686
:103AE00014D0636B002B18BFB3F5000F40F0F680C5
:103AF000894B9A6822F400029A609A68616B0A43C3
:103B00009A60636B002B00F0EE800026256815F4A8
:103B100000251BD0E36B002B18BFB3F5801F03D02B
:103B2000B3F5001F40F0E1807B4AD2F88C3023F4DB
:103B30004013E16B0B43C2F88C30E36BB3F5801F8D
:103B400000F0D880002B00F0D7800025236813F404
:103B5000801F19D0236C002B18BFB3F5800F03D042
:103B6000B3F5000F40F0CA806B4AD2F88C3023F4D2
:103B70004003216C0B43C2F88C30236CB3F5800FEB
:103B800000F0C18003B90125236813F0807F00D0C5
:103B9000012613F0200F00F0F680236BB3F5807F31
:103BA00018BFB3F5007F76D05C4A934273D002F51C
:103BB000803293426FD002F5803293426BD002F58F
:103BC0008032934267D002F58032934263D002F58F
:103BD000803293425FD002F5803293425BD002F58F
:103BE0008032934257D002F58032934253D002F58F
:103BF000803293424FD002F5803293424BD002F58F
:103C00008032934247D002F58032934243D002F58E
:103C1000803293423FD002F5803293423BD002F58E
:103C20008032934237D002F58032934233D002F58E
:103C3000803293422FD002F5803293422BD002F58E
:103C40008032934227D002F58032934223D002F58E
:103C5000803293421FD002F5803293421BD002F58E
:103C60008032934217D002F58032934213D002F58E
:103C7000803293420FD002F5803293420BD002F58E
:103C80008032934207D002F58032934203D002F58E
:103C90008032934239D1204B1A6C42F080521A6420
:103CA0001B6C03F080530193019B1D4A136843F47E
:103CB00080731360FDF7CAFA0746194B1B6813F4AB
:103CC000807F31D1FDF7C2FAC01B6428F5D90320EB
:103CD00000E2742113480EF0E1FAFEE67A21114861
:103CE0000EF0DCFA04E7012610E78A210D480EF0F9
:103CF000D5FA19E7012625E7012527E79E2109487E
:103D00000EF0CCFA30E701263CE7B92105480EF069
:103D1000C5FAC0E7F9FFFF010038024000030200C6
:103D20000070004074750108B14B1B6F13F44073B1
:103D300016D0226B02F440729A4211D0AC4B1A6F2B
:103D400022F44072196F41F480311967196F21F420
:103D5000803119671A671B6F13F0010F40F0BC81A7
:103D6000236B03F44072B2F5407F00F0C781A04A94
:103D7000936823F4F81393609D490B6F226BC2F391
:103D80000B0213430B67236813F0100F13D0A36BC0
:103D9000002B18BFB3F1807F40F0B981944BD3F86A
:103DA0008C2022F08072C3F88C20D3F88C20A16B79
:103DB0000A43C3F88C20236813F4804F12D0636E3B
:103DC000002B18BFB3F5803F03D0B3F5003F40F0A0
:103DD000A381874AD2F8903023F44033616E0B43BD
:103DE000C2F89030236813F4004F12D0A36E002B5A
:103DF00018BFB3F5802F03D0B3F5002F40F09181A9
:103E00007B4AD2F8903023F44023A16E0B43C2F8D2
:103E10009030236813F4803F12D0E36E002B18BF5C
:103E2000B3F5801F03D0B3F5001F40F08081704AC6
:103E3000D2F8903023F44013E16E0B43C2F8903077
:103E4000236813F4003F12D0236F002B18BFB3F583
:103E5000800F03D0B3F5000F40F06F81644AD2F8B1
:103E6000903023F44003216F0B43C2F89030236855
:103E700013F0400F10D0636C032B18BF012B02D935
:103E8000022B40F060815A4AD2F8903023F00303AD
:103E9000616C0B43C2F89030236813F0800F12D08E
:103EA000A36C002B18BF042B04D00C2B02D0082BC2
:103EB00040F04F814E4AD2F8903023F00C03A16CB1
:103EC0000B43C2F89030236813F4807F12D0E36C68
:103ED000002B18BF102B04D0302B02D0202B40F029
:103EE0003E81434AD2F8903023F03003E16C0B431B
:103EF000C2F89030236813F4007F12D0236D002B9A
:103F000018BF402B04D0C02B02D0802B40F02D8155
:103F1000374AD2F8903023F0C003216D0B43C2F82A
:103F20009030236813F4806F15D0636D002B18BF99
:103F3000B3F5807F06D0B3F5407F03D0B3F5007FA3
:103F400040F019812A4AD2F8903023F44073616D11
:103F50000B43C2F89030236813F4006F15D0A36DA3
:103F6000002B18BFB3F5806F06D0B3F5406F03D0B8
:103F7000B3F5006F40F005811D4AD2F8903023F46C
:103F80004063A16D0B43C2F89030236813F4805F47
:103F900015D0E36D002B18BFB3F5805F06D0B3F5E5
:103FA000405F03D0B3F5005F40F0F180104AD2F8D3
:103FB000903023F44053E16D0B43C2F890302368F6
:103FC00013F4005F19D0236E002B18BFB3F5804F98
:103FD00006D0B3F5404F03D0B3F5004F40F0DD807D
:103FE000034AD2F8903023F44043216E02E000BF30
:103FF000003802400B43C2F89030236813F4800F5E
:104000000FD0A36FB3F1806F18BF002B40F0CB80AF
:104010007C4AD2F8903023F08063A16F0B43C2F842
:104020009030236813F4001F14D0E36FB3F1006FD6
:1040300018BF002B40F0BD80724AD2F8903023F0B8
:104040000063E16F0B43C2F89030E36FB3F1006F90
:1040500000F0B580236813F0080F00D0012513F499
:10406000802F15D0636F002B18BFB3F1807F06D06F
:10407000B3F1007F03D0B3F1407F40F0A280614AEA
:10408000D2F8903023F04073616F0B43C2F8903048
:10409000236813F4000F11D0D4F88030B3F1805F9F
:1040A00018BF002B40F09380564AD2F8903023F08E
:1040B0008053D4F880100B43C2F89030002E40F0AB
:1040C0008C802368B3F1007F00F08780012D00F021
:1040D0006F81002003B0F0BDFDF7B8F80746494BEB
:1040E0001B6F13F0020F7FF43BAEFDF7AFF8C01B60
:1040F00041F288339842F2D90320EBE741488268C5
:1041000022F4F812404919400A43826034E6F32150
:104110003E480EF0C3F841E6FD213C480EF0BEF8E3
:1041200057E640F2071139480EF0B8F868E640F259
:10413000111136480EF0B2F879E640F21B113348FF
:104140000EF0ACF88AE640F2251130480EF0A6F8E1
:1041500099E640F22F112D480EF0A0F8AAE640F2A1
:1041600039112A480EF09AF8BBE640F2431127486D
:104170000EF094F8CCE640F24D1124480EF08EF883
:10418000E0E640F2571121480EF088F8F4E640F2DC
:1041900061111E480EF082F808E740F26B111B48CF
:1041A0000EF07CF81CE740F2751118480EF076F816
:1041B0002EE740F27F1115480EF070F83CE701251C
:1041C00048E740F2971111480EF068F857E740F2BF
:1041D000A1110E480EF062F866E70A4A136823F050
:1041E00080631360FDF732F80646064B1B6813F038
:1041F000006F0DD0FDF72AF8801B6428F5D9032045
:1042000068E700BF00380240FFFCFF0F747501082B
:104210006368323BB3F5BF7F00F29A80236813F0E6
:10422000010F18D0636BB3B9A368023B052B00F2F2
:104230009580B14AD2F88430D2F88410606803F4D3
:10424000403343EA801301F070610B43A16843EAF5
:104250000173C2F88430236813F4002F03D0E26B9B
:10426000B2F5801F06D013F4801F26D0236CB3F55F
:10427000800F22D1E368023B0D2B75D8636A013BA6
:104280001F2B77D89C4AD2F88430D2F8841060680B
:1042900003F4403343EA8013E06843EA006301F02B
:1042A000E0410B43C2F88430D2F88C3023F01F0376
:1042B000616A01390B43C2F88C30236813F0807FA8
:1042C00014D02369032B5BD88B4AD2F88400D2F830
:1042D0008410666823691B0443EA861300F070604B
:1042E000034301F0E0410B43C2F88430236813F02C
:1042F000007F18D02369032B48D8A368023B052B05
:104300004AD8E368023B0D2B4CD8626823691B0432
:1043100043EA8213E26843EA0263A26843EA027353
:10432000754AC2F88430744A136843F0806313609E
:10433000FCF78CFF0646704B1B6813F0006F7FF490
:10434000C5AEFCF783FF801B6428F4D90320C1E6C7
:104350004FF4EE7169480DF0A1FF5FE74FF4F17182
:1043600066480DF09BFF64E74FF4F97163480DF068
:1043700095FF83E74FF4FA7160480DF08FFF81E7F6
:1043800040F207215D480DF089FF9DE740F21621BC
:104390005A480DF083FFB0E740F2172157480DF05F
:1043A0007DFFAEE74FF4067154480DF077FFACE7A0
:1043B000514A136823F080531360FCF747FF05460A
:1043C0004D4B1B6813F0005F06D0FCF73FFF401B0E
:1043D0006428F5D903207DE66369323BB3F5BF7FDE
:1043E00078D8236813F4002F01D0E26B22B113F4C4
:1043F000801F25D0236C1BBBA369023B0D2B6FD8FC
:10440000A36A013B1F2B71D83B4AD2F88830D2F8FF
:104410008810606903F4403343EA8013A06943EADB
:10442000006301F0E0410B43C2F88830D2F88C30D1
:1044300023F4F853A16A013943EA0123C2F88C300E
:10444000236813F4001F03D0E36FB3F1006F57D05C
:10445000236813F0080F29D0E369023B052B6BD8C2
:10446000E36A002B18BFB3F5803F05D0B3F5003FDA
:1044700002D0B3F5403F65D11F4AD2F88810D2F878
:104480008830606903F4403343EA801301F07061BF
:104490000B43E16943EA0173C2F88830D2F88C30EB
:1044A00023F44033E16A0B43C2F88C30124A13689C
:1044B00043F080531360FCF7C9FE04460E4B1B68A3
:1044C00013F0005F44D1FCF7C1FE001B6428F5D94E
:1044D0000320FFE540F2462108480DF0DFFE80E7AB
:1044E00040F24D2105480DF0D9FE89E740F24F21F9
:1044F00002480DF0D3FE87E70038024074750108CA
:10450000236A032B12D8134AD2F88800D2F88810F5
:104510006569236A1B0443EA851300F07060034356
:1045200001F0E0410B43C2F8883091E740F262218C
:1045300009480DF0B3FEE6E740F2712106480DF0A0
:10454000ADFE8DE740F2722103480DF0A7FE93E720
:104550000020BFE50038024074750108564B036027
:10456000564BD3F88420C2F388124260D3F88420DB
:10457000C2F301420261D3F88420C2F30362C26035
:10458000D3F88420C2F302728260D3F88820C2F389
:1045900088124261D3F88820C2F301420262D3F844
:1045A0008820C2F303628261D3F88820C2F30272CA
:1045B000C261D3F88C2002F01F024262D3F88C2033
:1045C000C2F304228262D3F88C20C2F30142C26299
:1045D000D3F88C2002F44012C263D3F88C2002F48A
:1045E000400202649A6802F400024263D3F8902009
:1045F00002F440324266D3F8902002F440228266F0
:10460000D3F8902002F44012C266D3F8902002F44E
:1046100040020267D3F8902002F003024264D3F80C
:10462000902002F00C028264D3F8902002F0300255
:10463000C264D3F8902002F0C0020265D3F8902043
:1046400002F440724265D3F8902002F44062826521
:10465000D3F8902002F44052C265D3F8902002F4BF
:1046600040420266D3F8902002F040724267D3F8CD
:10467000902002F080628267D3F8902002F00062FE
:10468000C267D3F8902002F08052C0F88020996869
:1046900001F4F8111A6F02F440720A430263D3F86E
:1046A0008C3013F0807F02D10023836370474FF07A
:1046B00080738363704700BFF1FFFF000038024042
:1046C0000246B0F5002F04D00020B2F5801F62D062
:1046D0007047614BD3F88C3003F44013B3F5801F5F
:1046E0002ED0B3F5001F54D00BB10020EDE75A4B8C
:1046F0005B6813F4800F1BD1574B5B6803F03F0CD2
:10470000564BB3FBFCFC5449D1F88800C0F303605E
:10471000D1F88830C3F388130CFB03F3B3FBF0F339
:10472000D1F88C00C0F304200130B3FBF0F0CCE7EB
:10473000494B5B6803F03F0C494BB3FBFCFCE2E7E1
:10474000454B5B6813F4800F1BD1434B5B6803F050
:104750003F0C424BB3FBFCFC3F49D1F88400C0F353
:104760000360D1F88430C3F388130CFB03F3B3FB6D
:10477000F0F3D1F88C0000F01F000130B3FBF0F033
:10478000A3E7354B5B6803F03F0C354BB3FBFCFCF8
:10479000E2E7344899E7304BD3F88C3003F4400318
:1047A000B3F5800F2DD0B3F5000F53D0002B8FD170
:1047B000294B5B6813F4800F1BD1274B596801F01C
:1047C0003F012648B0FBF1F1234BD3F88820C2F318
:1047D0000362D3F88800C0F3881001FB00F0B0FB3F
:1047E000F2F0D3F88C30C3F304230133B0FBF3F0C1
:1047F0007047194B596801F03F011948B0FBF1F1BE
:10480000E2E7154B5B6813F4800F1BD1124B59681C
:1048100001F03F011148B0FBF1F10F4BD3F88420B8
:10482000C2F30362D3F88400C0F3881001FB00F0E8
:10483000B0FBF2F0D3F88C3003F01F030133B0FB70
:10484000F3F07047044B596801F03F010448B0FB96
:10485000F1F1E2E703483BE7003802400024F400AE
:1048600040787D010080BB0001290AD00123026B42
:10487000082A08D04268023A012A0CD943F0040001
:1048800070470923F3E74268012A18BF032AF1D1D0
:1048900043F01003EEE743F0600070470E4B1B68D7
:1048A0000E4AA2FB03231B0B9B0001680A6822F43B
:1048B00080320A601A46013B32B10268126812F473
:1048C000803FF7D100207047D0F8803043F040039C
:1048D000C0F8803003207047880000201BECCB9587
:1048E000002800F0568238B504460368AD49AE4A48
:1048F0008B4218BF93420BD002F57872934207D0D7
:104900002032934204D04FF4B871A8480DF0C6FC91
:10491000E369A749A74A8B4218BF93421BD04BF6C5
:104920008032934217D04AF64442934213D0B3F5F3
:10493000FA4F10D045F2226293420CD0B3F57A5F61
:1049400009D042F61132934205D0B3F5FA5F02D096
:10495000002B40F06581236B002B18BF082B02D081
:10496000042B40F063816368032B00F26581636B65
:10497000402B18BF602B08D0802B06D0A02B04D072
:10498000C02B02D0E02B40F05D81A36B002B18BF41
:10499000B3F5807F40F05C81E36B012B00F25E8118
:1049A000A368032B00F260812369002B18BFB3F5C5
:1049B000005F40F05F816369002B18BFB3F5002FE3
:1049C00040F05E81A369042B00F26081636AB3F555
:1049D000805F18BF002B40F05F81A36A002B18BFD7
:1049E000B3F5004F09D0B3F5404F06D0B3F5204FD3
:1049F00003D0B3F5604F40F05581E36A002B18BF38
:104A0000102B40F05581E368022B00F25781236C94
:104A1000083BF82B00F25881636C013B7F2B00F2BE
:104A20005981A36C002B18BFB3F5803F40F058812B
:104A3000E36C002B18BFB3F5003F40F05781236DA6
:104A4000002B18BFB3F5802F40F05681636D182BF3
:104A500000F25881A36D002B18BF402B02D0802B91
:104A600040F05681E36D013B0F2B00F25781236E1E
:104A7000B3F5803F80F0588194F87D30002B00F032
:104A80005981022384F87D302046FFF707FFE36851
:104A9000012B00F05581022B40F054812022A368A5
:104AA000022B00F05981032B00F05181012B00F003
:104AB0004B81002523683B483B498B4218BF83420A
:104AC00040F04D813C4BC3F80028E36923B32368D1
:104AD0003449354A934218BF8B4200F0448100208C
:104AE00023683649364A934218BF8B4200F0408112
:104AF00000EB80004000E3695B02B0FBF3F0314B58
:104B0000A3FB0023DB08236203EB8302A0EB42003C
:104B1000082801D9013323626368022B18BF002BD8
:104B200040F02E81E36B012B00F027814FF4007CD5
:104B300021680B68244A1A400A6022681168636879
:104B4000206B0343606B0343A06B034343EA0C03F6
:104B50002B43606A03432069034360690343206A6F
:104B600043EA00530B43136022685168174B0B4014
:104B7000536021684A68A369A06A0343E06A03435B
:104B800013434B6022689168114B0B40936020687F
:104B90008268236C013B216D0B43A16C0B43E16CDC
:104BA0000B4317E00458014024580140B075010838
:104BB00000EE02000077010000500140045C01405B
:104BC000245C0140CDCCCCCC10C005FFF01FFFFF12
:104BD0000080F8FF616C013943EA012313438360CD
:104BE0002268D36823F47D6323F00F031B041B0C9E
:104BF000D3602068C268636DA16D0B43216E43EAE8
:104C00000143E16D013943EA01231343C3600020EE
:104C1000C4F88000012384F87D3084F87C0038BD1E
:104C200040F273115C480DF039FB94E64FF4BA7111
:104C300059480DF033FB96E640F2751156480DF0D9
:104C40002DFB94E64FF4BB7153480DF027FB9CE617
:104C500040F2771150480DF021FB9DE64FF4BC71F6
:104C60004D480DF01BFB9BE640F279114A480DF0D0
:104C700015FB99E64FF4BD7147480DF00FFB9AE61E
:104C800040F27B1144480DF009FB9BE64FF4BE71E6
:104C900041480DF003FB99E640F27D113E480DF0CE
:104CA000FDFA9AE64FF4BF713B480DF0F7FAA4E61F
:104CB00040F27F1138480DF0F1FAA4E64FF4C071CC
:104CC00035480DF0EBFAA2E640F2831132480DF0C0
:104CD000E5FAA1E64FF4C2712F480DF0DFFAA0E625
:104CE00040F285112C480DF0D9FAA1E64FF4C371BA
:104CF00029480DF0D3FAA2E640F2871126480DF0BC
:104D0000CDFAA3E64FF4C57123480DF0C7FAA1E62A
:104D100040F28B1120480DF0C1FAA3E64FF4C671A2
:104D20001D480DF0BBFAA2E640F28D111A480DF0B5
:104D3000B5FAA1E684F87C3020460EF023FDA0E60B
:104D40001022ACE60022AAE64FF48065B2E642F0FB
:104D500001024FF40065ADE64FF40065AAE60F4B83
:104D6000C3F8002CB1E64FF40020FFF7A9FCB7E62A
:104D70004FF48010FFF7A4FCBAE64FF0000CD7E622
:104D8000E36B012B02D04FF0000CD1E64FF4007C16
:104D9000CEE60120704700BFB07501080050014009
:104DA00090F87C30012B0CD0012380F87C30026815
:104DB000136823F400331360002380F87C30184616
:104DC00070470220704790F87C30012B15D00123EA
:104DD00080F87C300268136843F400331360036882
:104DE0001A6812F4803F03D11A6842F480321A60C4
:104DF000002380F87C30184670470220704738B591
:104E000090F87C30012B4CD00446012380F87C3094
:104E10000268136823F400331360C06E68B394F81B
:104E20007D30DBB2122B17D00025206F20B194F813
:104E30007D30DBB2222B24D02046FFF72FFD2268E5
:104E4000536843F008035360012384F87D30002346
:104E500084F87C30284638BDFCF7FCFC0546002869
:104E6000E3D0E36E5B6D802B09D0D4F8803043F043
:104E70008003C4F880300125D7E70025D5E7002559
:104E8000D3E7FCF7E7FC0028D6D0236F5B6D802BBF
:104E9000D2D0D4F8803043F08003C4F880300125AC
:104EA000CAE70225D6E7000070B5002A18BF00291E
:104EB0004CD00446134694F87D50EDB2012D48D1F4
:104EC00094F87C20012A46D0012284F87C20616677
:104ED000A4F86830A4F86A300023C4F880301222A5
:104EE00084F87D20E26E1D491164E26E1C49D16395
:104EF000E26E1C49D164E26E13652268B4F8683032
:104F00001C32616EE06EFCF753FC064618B10023BC
:104F100084F87C301BE023681A6812F4803F03D1C8
:104F20001A6842F480321A6000212046FFF79CFC88
:104F300022681369034313612268136843F4003342
:104F40001360002384F87C30354600E001252846B4
:104F500070BD0225FBE70225F9E700BFA54F000859
:104F6000694F0008AF4F000810B5846B03681B68D9
:104F700013F4807F12D10021A4F86A10226813680C
:104F800023F4003313602046FFF76EFC2268136998
:104F900023EA00031361012384F87D3020460EF0DC
:104FA0001DFE10BD08B5806B0EF058FE08BD10B593
:104FB000846BD4F8803043F08003C4F88030E36E13
:104FC0005B6D012B07D0236F5B6D012B03D0204657
:104FD0000EF086FE10BD2268136823F400331360C0
:104FE0002046FFF75BFC012384F87D300023A4F802
:104FF0006A30ECE790F87D00704770B582B00446E7
:1050000000230193006802F053FD054610B12846C5
:1050100002B070BD206802F05EFD0646F8B10023C4
:10502000A3642846C0B9019B5A1C01924FF6FF7237
:1050300093423FD00021206802F064FD00283CD15B
:105040000021206802F076FD002839D10021206877
:1050500002F008FBC00FE5E700236364D7E70123F4
:10506000A3640546E0B9019B5A1C01924FF6FF72FA
:10507000934228D00021206802F044FD0546002814
:10508000C5D14FF08041206802F054FD054600284C
:10509000BDD10021206802F0E5FA0546C00FE1E726
:1050A00015F0804503D0012363643546AFE7002344
:1050B0006364ACE74FF08075A9E74FF08055A6E731
:1050C0004FF08055A3E74FF08075A0E7F0B589B0A9
:1050D00004460F46FCF7BAF80646002300930193F6
:1050E0000821206802F03AFC054610B1284609B0B4
:1050F000F0BD216D0904206802F004FD054600287A
:10510000F4D14FF0FF330293082303933023049329
:1051100002230593002306930123079302A9206825
:1051200002F0B6FB206802F037FD054630B1DDE73E
:10513000FCF78CF8831BB3F1FF3F42D02068426B31
:1051400040F22A431A4209D1436B13F4001FEFD0F7
:1051500002F02CFA4DF825000135E9E7436B13F016
:10516000080F25D1436B13F0020F24D1456B15F0C6
:10517000200523D140F2FF538363009A130203F406
:105180007F0343EA0263110A01F47F410B4343EAC0
:1051900012637B60019A130203F47F0343EA026304
:1051A000110A01F47F410B4343EA12633B609DE720
:1051B000082585639AE70225856397E7202585639F
:1051C00094E74FF0004591E710B582B00446002106
:1051D00000910191006802F045FA10F0007F13D1B0
:1051E00069462046FFF772FF80B9019B13F4802FB8
:1051F0000ED0216D0904206802F084FC30B9022130
:10520000206802F0B1FC01E04FF4006002B010BD74
:105210004FF08060FAE710B582B00446002100919B
:105220000191006802F01EFA10F0007F13D1694668
:105230002046FFF74BFF80B9019B13F4803F0ED04F
:10524000216D0904206802F05DFC30B9002120685E
:1052500002F08AFC01E04FF4006002B010BD4FF094
:105260008060FAE770B581B104460E46016D09040D
:10527000006802F0EBFC054608B1284670BD00212D
:10528000206802F0EFF93060F7E74FF00065F4E7CF
:105290002DE9F04786B004460E4615469946DDF8DE
:1052A00038A0FBF7D3FF46B3804694F83470FFB2C2
:1052B000012F40F0F1800023A36305EB0903E26DA9
:1052C000934220D8032384F8343023680022DA6222
:1052D000636C012B00D06D024FF40071206802F066
:1052E0003DFBA8B1236840F2FF519963A36B0343D0
:1052F000A363012384F83430D3E0A36B43F000634D
:10530000A3630127CDE0A36B43F00073A363C8E060
:105310004FF0FF3300934FEA492301939023029308
:105320000223039300230493012305936946206815
:1053300002F0AEFAB9F1010F11D902232363294615
:10534000206802F03BFB18B3236840F2FF529A63D7
:10535000A36B1843A063012384F83430A1E0012338
:1053600023632946206802F011FBECE7206802F075
:105370001DF946F825000135072DF7D92036BAF179
:10538000000F0FD0FBF762FFA0EB0800504509D2D9
:105390002068456B15F4957511D1436B13F4004FDC
:1053A000EDD0E9E7236840F2FF529A63A36B43F024
:1053B0000043A363012384F83430032771E0436B77
:1053C00013F4807F05D0B9F1010F02D9636C032B70
:1053D0002AD123685A6B12F0080F34D15A6B12F09D
:1053E000020F3BD15A6B12F0200F42D12068436B61
:1053F00013F4001F48D002F0D9F846F8040BBAF1B4
:10540000000F05D0FBF722FFA0EB08005045EDD3BD
:10541000236840F2FF529A63A36B43F00043A363F7
:10542000012384F834303CE002F010FB0028D0D097
:10543000236840F2FF519963A36B0343A3630123E5
:1054400084F834302DE040F2FF529A63A36B43F0AE
:105450000803A363012384F8343022E040F2FF52B2
:105460009A63A36B43F00203A363012384F83430EF
:1054700017E040F2FF529A63A36B43F02003A3634B
:10548000012384F834300CE040F2FF53836301239E
:1054900084F83430002704E0A36B43F00053A36387
:1054A0000127384606B0BDE8F0872DE9F04F87B0F8
:1054B00004460E4615469946DDF840A0FBF7C6FEA9
:1054C000002E36D0804694F83470FFB2012F40F0A1
:1054D000D8800023A36305EB0903E26D93422ED825
:1054E000032384F8343023680022DA62636C012BD2
:1054F00000D06D024FF40071206802F02FFA18BB43
:10550000B9F1010F2BD9202323632946206802F02B
:1055100085FA8346BBF1000F29D0236840F2FF5281
:105520009A63A06B40EA0B00A063012384F8343037
:10553000ACE0A36B43F00063A3630127A6E0A36B79
:1055400043F00073A363A1E0236840F2FF51996325
:10555000A36B0343A363012384F8343096E0102344
:1055600023632946206802F041FA8346D2E74FF0D0
:10557000FF3300934FEA49230193902302930023C2
:1055800003930493012305936946206802F080F990
:1055900011E006EB8501206802F00BF80135072DBC
:1055A000F7D92036BAF1000F0FD0FBF74FFEA0EB72
:1055B0000800504509D22068456B15F48D7511D14E
:1055C000436B13F4804FEDD0E9E7236840F2FF52BC
:1055D0009A63A06B40EA0B00A063012384F8343087
:1055E000032753E0436B13F4807F05D0B9F1010F1B
:1055F00002D9636C032B17D123685A6B12F0080F82
:1056000021D15A6B12F0020F28D15A6B12F0100FF1
:105610002FD040F2FF529A63A36B43F01003A363B1
:10562000012384F8343031E002F010FA0028E3D08E
:10563000236840F2FF519963A36B0343A3630123E3
:1056400084F8343022E040F2FF529A63A36B43F0B7
:105650000803A363012384F8343017E040F2FF52BB
:105660009A63A36B43F00203A363012384F83430ED
:105670000CE040F2FF529A63012384F83430002793
:1056800004E0A36B43F00053A3630127384607B03F
:10569000BDE8F08F10B4436E9A0F0A70C3F38362B3
:1056A0004A70C3F301638B7090F86630CB7090F84A
:1056B00065300B7190F864304B7190F86B301B01C2
:1056C000CB80B0F86A20CB889BB2C2F3031423438B
:1056D000CB8002F00F020A7290F86930DA094A7240
:1056E000C3F380128A72C3F34012CA72C3F300126A
:1056F0000A7300224A73426C002A40F08F809B029A
:1057000003F440630B610B6990F8682043EA82035D
:105710000B61C36E0A6942EA93720A61C3F3C26203
:105720000A75C3F302634B7590F86E305A098A7597
:10573000C3F38202CA755B0003F006030B7690F890
:105740006D300A7E42EAD3120A760A690132426556
:105750000C7E0234A24042650C7A5FFA84FC01247C
:1057600004FA0CF48465640A04FB02F2C2654FF487
:1057700000720266C3F380124A765B0003F07E0378
:105780008B7690F86C308A7E42EAD3128A7603F0E8
:105790007F03CB76036F1A0EDC0F0C77C3F34174D3
:1057A0004C77C3F382638B77930003F00C03CB77C2
:1057B00090F87230CA7F42EA9312CA77C3F340125C
:1057C00081F82020002281F8212003F0010381F8D4
:1057D000223090F87130DC0981F82340C3F3801443
:1057E00081F82440C3F3401481F82540C3F300142A
:1057F00081F82640C3F3810481F8274003F00303B6
:1058000081F8283090F870305B0881F82930012346
:1058100081F82A3010465DF8044B7047012A1CD1EC
:1058200090F868301B0403F47C130B6190F86F2030
:105830000B6943EA02230B610A6990F86E30134347
:105840000B6190F86D300A69013292024265C265BF
:105850004FF40072826502668CE7036840F2FF52E3
:105860009A63836B43F080538363012280F8342072
:105870001046D0E770B590B004460123ADF8123061
:10588000006801F09FFE00286AD0636C032B43D1AF
:10589000636C032B5BD1636C032B1DD0BDF812101E
:1058A00021650904206802F0A4F90546002859D1B1
:1058B0000021206801F0D6FE60660421206801F016
:1058C000D1FEA0660821206801F0CCFEE0660C2124
:1058D000206801F0C7FE20670421206801F0C2FEA5
:1058E000000DE06405A92046FFF7D4FE226D1204E6
:1058F0000023206802F0C4F8054698BB234653F8FD
:10590000106B93E807008DE80700043494E80E005C
:10591000304601F0DDFD25E0206802F055F905462E
:1059200000BB0021206801F09DFE60670421206813
:1059300001F098FEA0670821206801F093FEE0675F
:105940000C21206801F08EFEC4F88000A0E70DF164
:105950001201206802F062F9054600289BD001E0A0
:105960004FF08065284610B070BD10B58AB004466F
:1059700000230493059306930793089376230993D2
:105980000AAB13E907008DE8070004AB0ECB2068D3
:1059900001F09EFD2268536823F4807353602068F1
:1059A00001F00CFE2268536843F4807353600220B8
:1059B000FBF752FC2046FFF720FB40B102460120D6
:1059C00084F83400A36B1343A3630AB010BD2046D0
:1059D000FFF750FF024608B90020F6E7012084F8DF
:1059E0003400A36B1343A363EFE70000002867D0E4
:1059F00010B504460268334B9A4204D040F2551168
:105A000031480CF04BFC6368002B18BFB3F5005F06
:105A10002DD1A368002B18BFB3F5806F2DD1E3689B
:105A2000002B18BFB3F5007F2DD12369002B18BFC1
:105A3000B3F5006F02D0B3F5805F2AD16369002B04
:105A400018BFB3F5804F2AD1A369FF2B2DD894F846
:105A5000343083B3032384F834302046FFF785FFC6
:105A60000020A0632063012384F8343010BD4FF47C
:105A7000AB7115480CF012FCCBE740F257111248FD
:105A80000CF00CFCCBE74FF4AC710F480CF006FCAB
:105A9000CBE740F259110C480CF000FCCEE74FF474
:105AA000AD7109480CF0FAFBCEE740F25B110648F5
:105AB0000CF0F4FBCBE7237720460DF043FFC9E75A
:105AC00001207047002C0140E8750108436C0B6011
:105AD000836C4B60C36C8B60036DCB60436D0B615B
