:020000040800F2
:1000000000000520615E0208DD180208EB180208F6
:10001000F1180208F7180208FD1802080000000095
:1000200000000000000000000000000003190208AA
:1000300011190208000000001F1902082D190208FA
:10004000B15E0208B15E0208B15E0208B15E02084C
:10005000B15E0208B15E020839190208B15E0208F9
:1000600061190208B15E0208B15E0208B15E0208C1
:10007000B15E0208B15E0208B15E0208B15E02081C
:10008000B15E0208B15E0208B15E0208B15E02080C
:10009000B15E0208B15E0208B15E0208B15E0208FC
:1000A00071190208B15E0208B15E0208B15E020871
:1000B000B15E0208B15E0208111A0208B15E0208C0
:1000C000B15E0208B15E0208B15E0208B15E0208CC
:1000D000551A0208B15E0208B15E0208B15E02085C
:1000E000691A0208B15E0208B15E0208B15E020838
:1000F000C5200208B15E0208B15E0208B15E0208C6
:10010000B15E0208B15E020819210208B15E020860
:10011000B15E0208B15E0208ED2102081522020854
:10012000B15E0208B15E0208B15E0208B15E02086B
:1001300041220208B15E0208B15E0208B15E020807
:10014000B15E0208B15E0208B15E020855220208E3
:10015000B15E0208B15E0208B15E0208B15E02083B
:10016000B15E0208B15E0208B15E0208B15E02082B
:10017000B15E020865220208B15E020800000000BC
:10018000B15E0208B15E0208B15E0208B15E02080B
:10019000B15E0208B15E0208B15E0208B15E0208FB
:1001A000B15E0208B15E0208B15E0208B15E0208EB
:1001B000B15E0208B15E0208B15E0208B15E0208DB
:0801C000B15E0208B15E020805
:1001D00010B5054C237833B9044B13B10448AFF381
:1001E00000800123237010BD4001002000000000AA
:1001F0009468020808B5034B1BB103490348AFF3E9
:10020000008008BD0000000044010020946802083E
:1002100010F8012B11F8013B012A28BF9A42F7D0B0
:10022000D01A70470000000000000000000000002D
:1002300001F0FF01102A2BDB10F0070F08D010F897
:10024000013B013A8B422DD010F0070F42B3F6D19B
:10025000F0B441EA012141EA014122F007047FF0B4
:1002600000070023F0E80256083C85EA010586EA0B
:10027000010685FA47F5A3FA87F586FA47F6A5FA47
:1002800087F68EB9EED1F0BC01F0FF0102F0070253
:1002900032B110F8013B013A83EA010313B1F8D1FE
:1002A0000020704701387047002D06BF35460338DF
:1002B000073815F0010F07D1013015F4807F02BF18
:1002C000013015F4C03F0130F0BC0138704700BF69
:1002D00081F0004102E000BF83F0004330B54FEAF7
:1002E00041044FEA430594EA050F08BF90EA020F64
:1002F0001FBF54EA000C55EA020C7FEA645C7FEAF7
:10030000655C00F0E2804FEA5454D4EB5555B8BF19
:100310006D420CDD2C4480EA020281EA030382EA8A
:10032000000083EA010180EA020281EA0303362D1C
:1003300088BF30BD11F0004F4FEA01314FF4801CEF
:100340004CEA113102D0404261EB410113F0004F01
:100350004FEA03334CEA133302D0524263EB4303B8
:1003600094EA050F00F0A780A4F10104D5F1200E56
:100370000DDB02FA0EFC22FA05F2801841F10001B1
:1003800003FA0EF2801843FA05F359410EE0A5F185
:1003900020050EF1200E012A03FA0EFC28BF4CF0B6
:1003A000020C43FA05F3C01851EBE37101F000456C
:1003B00007D54FF0000EDCF1000C7EEB00006EEB79
:1003C0000101B1F5801F1BD3B1F5001F0CD3490803
:1003D0005FEA30004FEA3C0C04F101044FEA44525A
:1003E00012F5800F80F09A80BCF1004F08BF5FEAE1
:1003F000500C50F1000041EB045141EA050130BDC1
:100400005FEA4C0C404141EB0101013C28BFB1F5D2
:10041000801FE9D291F0000F04BF01460020B1FA1D
:1004200081F308BF2033A3F10B03B3F120020CDAF0
:100430000C3208DD02F1140CC2F10C0201FA0CF0CE
:1004400021FA02F10CE002F11402D8BFC2F1200C33
:1004500001FA02F120FA0CFCDCBF41EA0C019040E9
:10046000E41AA2BF01EB0451294330BD6FEA040432
:100470001F3C1CDA0C340EDC04F11404C4F120021D
:1004800020FA04F001FA02F340EA030021FA04F32F
:1004900045EA030130BDC4F10C04C4F1200220FA86
:1004A00002F001FA04F340EA0300294630BD21FAC4
:1004B00004F0294630BD94F0000F83F4801306BF8A
:1004C00081F480110134013D4EE77FEA645C18BF7E
:1004D0007FEA655C29D094EA050F08BF90EA020F15
:1004E00005D054EA000C04BF1946104630BD91EA0D
:1004F000030F1EBF0021002030BD5FEA545C05D110
:100500004000494128BF41F0004130BD14F580044E
:100510003CBF01F5801130BD01F0004545F0FE41C2
:1005200041F470014FF0000030BD7FEA645C1ABFF7
:10053000194610467FEA655C1CBF0B46024650EA2E
:10054000013406BF52EA033591EA030F41F400215A
:1005500030BD00BF90F0000F04BF0021704730B5E0
:100560004FF4806404F132044FF000054FF00001B5
:1005700050E700BF90F0000F04BF0021704730B576
:100580004FF4806404F1320410F0004548BF40424B
:100590004FF000013EE700BF42004FEAE2014FEAA0
:1005A00031014FEA02701FBF12F07F4393F07F4F7B
:1005B00081F06051704732F07F4208BF704793F07E
:1005C0007F4F04BF41F40021704730B54FF4607491
:1005D00001F0004521F000411CE700BF50EA010294
:1005E00008BF704730B54FF000050AE050EA01023D
:1005F00008BF704730B511F0004502D5404261EBAD
:1006000041014FF4806404F132045FEA915C3FF4ED
:10061000D8AE4FF003025FEADC0C18BF03325FEA8A
:10062000DC0C18BF033202EBDC02C2F1200300FA3B
:1006300003FC20FA02F001FA03FE40EA0E0021FA60
:1006400002F11444BDE600BF70B54FF0FF0C4CF44E
:10065000E06C1CEA11541DBF1CEA135594EA0C0F00
:1006600095EA0C0F00F0DEF82C4481EA030621EA3B
:100670004C5123EA4C5350EA013518BF52EA033576
:1006800041F4801143F4801338D0A0FB02CE4FF028
:100690000005E1FB02E506F00042E0FB03E54FF058
:1006A0000006E1FB03569CF0000F18BF4EF0010E50
:1006B000A4F1FF04B6F5007F64F5407404D25FEA4C
:1006C0004E0E6D4146EB060642EAC62141EA5551FF
:1006D0004FEAC52040EA5E504FEACE2EB4F1FD0C41
:1006E00088BFBCF5E06F1ED8BEF1004F08BF5FEABF
:1006F000500E50F1000041EB045170BD06F0004671
:1007000046EA010140EA020081EA0301B4EB5C041D
:10071000C2BFD4EB0C0541EA045170BD41F4801115
:100720004FF0000E013C00F3AB8014F1360FDEBF3A
:10073000002001F0004170BDC4F10004203C35DA16
:100740000C341BDC04F11404C4F1200500FA05F399
:1007500020FA04F001FA05F240EA020001F000423A
:1007600021F0004110EBD37021FA04F642EB0601B0
:100770005EEA430E08BF20EAD37070BDC4F10C04DA
:10078000C4F1200500FA04F320FA05F001FA04F29E
:1007900040EA020001F0004110EBD37041F100018A
:1007A0005EEA430E08BF20EAD37070BDC4F1200595
:1007B00000FA05F24EEA020E20FA04F301FA05F2FD
:1007C00043EA020321FA04F001F0004121FA04F2A5
:1007D00020EA020000EBD3705EEA430E08BF20EA75
:1007E000D37070BD94F0000F0FD101F000464000AF
:1007F00041EB010111F4801F08BF013CF7D041EA31
:10080000060195F0000F18BF704703F00046520034
:1008100043EB030313F4801F08BF013DF7D043EA05
:100820000603704794EA0C0F0CEA135518BF95EABB
:100830000C0F0CD050EA410618BF52EA4306D1D142
:1008400081EA030101F000414FF0000070BD50EA61
:10085000410606BF1046194652EA430619D094EAEB
:100860000C0F02D150EA013613D195EA0C0F05D1D5
:1008700052EA03361CBF104619460AD181EA030129
:1008800001F0004141F0FE4141F470014FF00000E1
:1008900070BD41F0FE4141F4780170BD70B54FF07C
:1008A000FF0C4CF4E06C1CEA11541DBF1CEA1355FC
:1008B00094EA0C0F95EA0C0F00F0A7F8A4EB0504DE
:1008C00081EA030E52EA03354FEA013100F08880D5
:1008D0004FEA03334FF0805545EA131343EA12639E
:1008E0004FEA022245EA111545EA10654FEA002653
:1008F0000EF000419D4208BF964244F1FD0404F50C
:10090000407402D25B084FEA3202B61A65EB030567
:100910005B084FEA32024FF480104FF4002CB6EB24
:10092000020E75EB030E22BFB61A754640EA0C00A4
:100930005B084FEA3202B6EB020E75EB030E22BFE4
:10094000B61A754640EA5C005B084FEA3202B6EB25
:10095000020E75EB030E22BFB61A754640EA9C00E4
:100960005B084FEA3202B6EB020E75EB030E22BFB4
:10097000B61A754640EADC0055EA060E18D04FEA72
:10098000051545EA16754FEA06164FEAC30343EA12
:1009900052734FEAC2025FEA1C1CC0D111F4801FDF
:1009A0000BD141EA00014FF000004FF0004CB6E7D8
:1009B00011F4801F04BF01430020B4F1FD0C88BF77
:1009C000BCF5E06F3FF6AFAEB5EB030C04BFB6EB82
:1009D000020C5FEA500C50F1000041EB045170BD75
:1009E0000EF0004E4EEA113114EB5C04C2BFD4EBA2
:1009F0000C0541EA045170BD41F480114FF0000E26
:100A0000013C90E645EA060E8DE60CEA135594EAA1
:100A10000C0F08BF95EA0C0F3FF43BAF94EA0C0FA4
:100A20000AD150EA01347FF434AF95EA0C0F7FF419
:100A300025AF104619462CE795EA0C0F06D152EA6D
:100A400003353FF4FDAE1046194622E750EA410651
:100A500018BF52EA43067FF4C5AE50EA41047FF462
:100A60000DAF52EA43057FF4EBAE12E74FF0FF3CC7
:100A700006E000BF4FF0010C02E000BF4FF0010C98
:100A80004DF804CD4FEA410C7FEA6C5C4FEA430C11
:100A900018BF7FEA6C5C1BD001B050EA410C0CBF60
:100AA00052EA430C91EA030F02BF90EA020F0020C2
:100AB000704710F1000F91EA030F58BF994208BF29
:100AC00090422CBFD8176FEAE37040F001007047E6
:100AD0004FEA410C7FEA6C5C02D150EA013C07D13D
:100AE0004FEA430C7FEA6C5CD6D152EA033CD3D088
:100AF0005DF8040B704700BF8446104662468C4682
:100B00001946634600E000BF01B5FFF7B7FF0028B4
:100B100048BF10F1000F01BD4DF808EDFFF7F4FFDD
:100B20000CBF012000205DF808FB00BF4DF808ED68
:100B3000FFF7EAFF34BF012000205DF808FB00BF8B
:100B40004DF808EDFFF7E0FF94BF012000205DF8AD
:100B500008FB00BF4DF808EDFFF7CEFF94BF012062
:100B600000205DF808FB00BF4DF808EDFFF7C4FF5B
:100B700034BF012000205DF808FB00BF4A0011D2FD
:100B800012F5001211D20DD56FF47873B3EB6252E7
:100B90000ED44FEAC12343F0004343EA505323FAF3
:100BA00002F070474FF00000704750EA013002D168
:100BB0004FF0FF3070474FF0000070474FEA41029E
:100BC000B2F1E04324BFB3F5001CDCF1FE5C0DD9AB
:100BD00001F0004C4FEAC0024CEA5070B2F1004FF5
:100BE00040EB830008BF20F00100704711F0804FF8
:100BF00021D113F13872BCBF01F00040704741F4BD
:100C000080114FEA5252C2F11802C2F1200C10FAC0
:100C10000CF320FA02F018BF40F001004FEAC123A4
:100C20004FEAD32303FA0CFC40EA0C0023FA02F348
:100C30004FEA4303CCE77FEA625307D150EA01331E
:100C40001EBF4FF0FE4040F44000704701F00040EE
:100C500040F0FE4040F40000704700BF80F00040CC
:100C600002E000BF81F0004142001FBF5FEA410384
:100C700092EA030F7FEA226C7FEA236C6AD04FEA84
:100C80001262D2EB1363C1BFD218414048404140C9
:100C9000B8BF5B42192B88BF704710F0004F40F47B
:100CA000000020F07F4018BF404211F0004F41F497
:100CB000000121F07F4118BF494292EA030F3FD063
:100CC000A2F1010241FA03FC10EB0C00C3F1200376
:100CD00001FA03F100F0004302D5494260EB400005
:100CE000B0F5000F13D3B0F1807F06D340084FEA70
:100CF000310102F10102FE2A51D2B1F1004F40EB65
:100D0000C25008BF20F0010040EA030070474900CC
:100D100040EB0000013A28BFB0F5000FEDD2B0FA69
:100D200080FCACF1080CB2EB0C0200FA0CF0AABF8C
:100D300000EBC25052421843BCBFD040184370472A
:100D400092F0000F81F4000106BF80F40000013230
:100D5000013BB5E74FEA41037FEA226C18BF7FEA07
:100D6000236C21D092EA030F04D092F0000F08BF49
:100D70000846704790EA010F1CBF0020704712F030
:100D80007F4F04D1400028BF40F00040704712F16F
:100D900000723CBF00F50000704700F0004343F0D4
:100DA000FE4040F4000070477FEA226216BF08460A
:100DB0007FEA23630146420206BF5FEA412390EACD
:100DC000010F40F4800070474FF0000304E000BFC3
:100DD00010F0004348BF40425FEA000C08BF704774
:100DE00043F0964301464FF000001CE050EA010238
:100DF00008BF70474FF000030AE000BF50EA01024D
:100E000008BF704711F0004302D5404261EB410139
:100E10005FEA010C02BF84460146002043F0B6435E
:100E200008BFA3F18053A3F50003BCFA8CF2083A83
:100E3000A3EBC25310DB01FA02FC634400FA02FC8C
:100E4000C2F12002BCF1004F20FA02F243EB020093
:100E500008BF20F00100704702F1200201FA02FCF5
:100E6000C2F1200250EA4C0021FA02F243EB0200E8
:100E700008BF20EADC70704753B94AB9002908BF9F
:100E800000281CBF4FF0FF314FF0FF3000F094B945
:100E9000ADF1080C6DE904CE00F026F8DDF804E0B1
:100EA000DDE9022304B07047D0B5FFF775FB0C4BAA
:100EB000002206460F46FFF7C7FBFFF75FFE04461A
:100EC000FFF748FB074B0022FFF7BEFB02460B462D
:100ED00030463946FFF700FAFFF750FE2146D0BDF5
:100EE0000000F03D0000F0412DE9F047089D044668
:100EF0008E46002B4DD18A42944669D9B2FA82F2CD
:100F000052B101FA02F3C2F1200120FA01F10CFA08
:100F100002FC41EA030E94404FEA1C48210CBEFB40
:100F2000F8F61FFA8CF708FB16E341EA034306FBC9
:100F300007F199420AD91CEB030306F1FF3080F058
:100F40001F81994240F21C81023E63445B1AA4B2A5
:100F5000B3FBF8F008FB103344EA034400FB07F747
:100F6000A7420AD91CEB040400F1FF3380F00A8188
:100F7000A74240F207816444023840EA0640E41B7D
:100F800000261DB1D4400023C5E900433146BDE829
:100F9000F0878B4209D9002D00F0EF800026C5E9CB
:100FA000000130463146BDE8F087B3FA83F6002EE3
:100FB0004AD18B4202D3824200F2F980841A61EB5B
:100FC000030301209E46002DE0D0C5E9004EDDE779
:100FD00002B9FFDEB2FA82F2002A40F09280A1EB61
:100FE0000C014FEA1C471FFA8CFE0126200CB1FBB6
:100FF000F7F307FB131140EA01410EFB03F08842AF
:1010000008D91CEB010103F1FF3802D2884200F23B
:10101000CB804346091AA4B2B1FBF7F007FB1011CD
:1010200044EA01440EFB00FEA64508D91CEB04046B
:1010300000F1FF3102D2A64500F2BB800846A4EBC6
:101040000E0440EA03409CE7C6F12007B34022FAB1
:1010500007FC4CEA030C20FA07F401FA06F31C43E0
:10106000F9404FEA1C4900FA06F3B1FBF9F8200CED
:101070001FFA8CFE09FB181140EA014108FB0EF033
:10108000884202FA06F20BD91CEB010108F1FF3A83
:1010900080F08880884240F28580A8F1020861448F
:1010A000091AA4B2B1FBF9F009FB101144EA01419D
:1010B00000FB0EFE8E4508D91CEB010100F1FF3448
:1010C0006CD28E456AD90238614440EA0840A0FBE0
:1010D0000294A1EB0E01A142C846A64656D353D0B6
:1010E0005DB1B3EB080261EB0E0101FA07F722FADA
:1010F00006F3F1401F43C5E9007100263146BDE803
:10110000F087C2F12003D8400CFA02FC21FA03F365
:10111000914001434FEA1C471FFA8CFEB3FBF7F0E6
:1011200007FB10360B0C43EA064300FB0EF69E420B
:1011300004FA02F408D91CEB030300F1FF382FD2A4
:101140009E422DD9023863449B1B89B2B3FBF7F64C
:1011500007FB163341EA034106FB0EF38B4208D925
:101160001CEB010106F1FF3816D28B4214D9023E66
:101170006144C91A46EA004638E72E46284605E784
:101180000646E3E61846F8E64B45A9D2B9EB020855
:1011900064EB0C0E0138A3E74646EAE7204694E7E5
:1011A0004046D1E7D0467BE7023B614432E7304618
:1011B00009E76444023842E7704700BF80B500AFDA
:1011C000084B1B68074A43F480731360032000F048
:1011D00073F9002000F008F820F03EFB00231846C9
:1011E00080BD00BF003C024080B582B000AF786097
:1011F000124B1A68124B1B7819464FF47A73B3FBE3
:10120000F1F3B2FBF3F3184600F0D2F90346002BDA
:1012100001D001230EE07B680F2B0AD800227968E9
:101220004FF0FF3000F068F9064A7B681360002336
:1012300000E0012318460837BD4680BDA400002009
:10124000040000200000002080B400AF064B1B7893
:101250001A46064B1B681344044A136000BFBD4680
:101260005DF8047B704700BF040000205C01002093
:1012700080B400AF034B1B681846BD465DF8047B85
:10128000704700BF5C01002080B584B000AF78607B
:10129000FFF7EEFFB8607B68FB60FB68B3F1FF3FD0
:1012A00005D00A4B1B781A46FB681344FB6000BF4D
:1012B000FFF7DEFF0246BB68D31AFA689A42F7D8F6
:1012C00000BF00BF1037BD4680BD00BF0400002036
:1012D00080B485B000AF78607B6803F00703FB60E3
:1012E0000B4BDB68BB60BA684FF6FF031340BB6073
:1012F000FB681A02BB681A43064B1343BB60044ADF
:10130000BB68D36000BF1437BD465DF8047B7047EF
:1013100000ED00E00000FA0580B400AF044BDB688C
:101320001B0A03F007031846BD465DF8047B7047AF
:1013300000ED00E080B483B000AF0346FB7197F985
:101340000730002B0BDBFB7903F01F02074997F9ED
:1013500007305B09012000FA02F241F8232000BFA8
:101360000C37BD465DF8047B704700BF00E100E02C
:1013700080B483B000AF0346FB7197F90730002BB0
:1013800012DBFB7903F01F020A4997F907305B096A
:10139000012000FA02F2203341F82320BFF34F8FDF
:1013A00000BFBFF36F8F00BF00BF0C37BD465DF8B5
:1013B000047B704700E100E080B483B000AF0346D7
:1013C0003960FB7197F90730002B0ADB3B68DAB212
:1013D0000C4997F907301201D2B20B4483F800236D
:1013E0000AE03B68DAB20849FB7903F00F03043BDB
:1013F0001201D2B20B441A7600BF0C37BD465DF81D
:10140000047B704700E100E000ED00E080B489B0AB
:1014100000AFF860B9607A60FB6803F00703FB6116
:10142000FB69C3F10703042B28BF0423BB61FB69DD
:101430000433062B02D9FB69033B00E000237B61E8
:101440004FF0FF32BB6902FA03F3DA43BB681A407C
:101450007B699A404FF0FF317B6901FA03F3D9436E
:101460007B680B40134318462437BD465DF8047B68
:101470007047000080B582B000AF78607B68013BA8
:10148000B3F1807F01D301230FE00A4A7B68013B5F
:1014900053600F214FF0FF30FFF78EFF054B002206
:1014A0009A60044B07221A60002318460837BD468D
:1014B00080BD00BF10E000E080B582B000AF786072
:1014C0007B68072B0FD07B68062B0CD07B68052B25
:1014D00009D07B68042B06D07B68032B03D09221B4
:1014E00004481DF099F87868FFF7F2FE00BF08374E
:1014F000BD4680BDAC68020880B586B000AF03462B
:10150000B9607A60FB7300237B617B680F2B03D982
:10151000AA210E481DF080F8BB680F2B03D9AB2120
:101520000A481DF079F8FFF7F7FE78617A68B96824
:101530007869FFF76BFF024697F90F30114618469E
:10154000FFF73AFF00BF1837BD4680BDAC68020800
:1015500080B582B000AF0346FB7197F90730002BCE
:1015600003DABE2105481DF057F897F907301846F1
:10157000FFF7E0FE00BF0837BD4680BDAC6802083B
:1015800080B582B000AF0346FB7197F90730002B9E
:1015900003DACE2105481DF03FF897F907301846C9
:1015A000FFF7E6FE00BF0837BD4680BDAC68020805
:1015B00080B582B000AF78607868FFF75BFF0346C4
:1015C00018460837BD4680BD80B400AFBFF35F8FBB
:1015D00000BF074B5B6A064A23F480335362054B16
:1015E00000225A6000BFBD465DF8047B704700BF13
:1015F00000ED00E090ED00E080B483B000AF7860D3
:101600000B4A7B6843F0010353600A4B5B6A094A4B
:1016100043F480335362BFF34F8F00BFBFF36F8F2C
:1016200000BF00BF0C37BD465DF8047B704700BFAC
:1016300090ED00E000ED00E080B586B000AF78608E
:1016400000237B61FFF714FE38617B68002B01D11A
:10165000012303E27B681B688B4A93424ED07B6870
:101660001B688A4A934249D07B681B68884A934228
:1016700044D07B681B68874A93423FD07B681B68D5
:10168000854A93423AD07B681B68844A934235D09E
:101690007B681B68824A934230D07B681B68814A12
:1016A00093422BD07B681B687F4A934226D07B688D
:1016B0001B687E4A934221D07B681B687C4A934218
:1016C0001CD07B681B687B4A934217D07B681B68E1
:1016D000794A934212D07B681B68784A93420DD0B6
:1016E0007B681B68764A934208D07B681B68754A02
:1016F000934203D0B92174481CF08EFF7B685B686D
:10170000002B26D07B685B68B3F1007F21D07B681B
:101710005B68B3F1806F1CD07B685B68B3F1C06F0E
:1017200017D07B685B68B3F1006F12D07B685B6891
:10173000B3F1206F0DD07B685B68B3F1406F08D0C8
:101740007B685B68B3F1606F03D0BA215E481CF020
:1017500063FF7B689B68002B0BD07B689B68402BEA
:1017600007D07B689B68802B03D0BB2156481CF0B8
:1017700053FF7B68DB68B3F5007F07D07B68DB68CD
:10178000002B03D0BC2150481CF046FF7B681B692E
:10179000B3F5806F07D07B681B69002B03D0BD2198
:1017A00049481CF039FF7B685B69002B0DD07B68D2
:1017B0005B69B3F5006F08D07B685B69B3F5805F48
:1017C00003D0BE2140481CF027FF7B689B69002B9B
:1017D0000DD07B689B69B3F5005F08D07B689B697F
:1017E000B3F5804F03D0BF2137481CF015FF7B684D
:1017F000DB69002B0CD07B68DB69B3F5807F07D0F9
:101800007B68DB69202B03D0C0212F481CF004FF2C
:101810007B681B6A002B12D07B681B6AB3F5803F84
:101820000DD07B681B6AB3F5003F08D07B681B6A4C
:10183000B3F5403F03D0C12123481CF0EDFE7B6887
:101840005B6A002B07D07B685B6A042B03D0C22144
:101850001D481CF0E1FE7B685B6A002B64D07B684E
:101860009B6A002B32D07B689B6A012B2ED07B6851
:101870009B6A022B2AD07B689B6A032B26D0C72148
:1018800011481CF0C9FE21E01060024028600240AF
:101890004060024058600240706002408860024030
:1018A000A0600240B8600240106402402864024018
:1018B0004064024058640240706402408864024000
:1018C000A0640240B8640240E86802087B68DB6AF2
:1018D000002B12D07B68DB6AB3F5000F0DD07B685C
:1018E000DB6AB3F1807F08D07B68DB6AB3F1C07F2D
:1018F00003D0C8215B481CF08FFE7B681B6B002B5C
:1019000012D07B681B6BB3F5001F0DD07B681B6B7F
:10191000B3F5800F08D07B681B6BB3F5C00F03D005
:10192000C92150481CF078FE7B68002283F83420DF
:101930007B68022283F835207B681B681A687B6805
:101940001B6822F001021A600FE0FFF791FC0246CB
:101950003B69D31A052B08D97B6820225A657B681E
:10196000032283F83520032378E07B681B681B681B
:1019700003F00103002BE8D17B681B681B687B61C7
:101980007A69394B13407B617B685A687B689B6836
:101990001A437B68DB681A437B681B691A437B68C0
:1019A0005B691A437B689B691A437B68DB691A434E
:1019B0007B681B6A13437A6913437B617B685B6AAC
:1019C000042B07D17B68DA6A7B681B6B13437A6947
:1019D00013437B617B681B687A691A607B681B68AC
:1019E0005B697B617B6923F007037B617B685B6AD2
:1019F0007A6913437B617B685B6A042B17D17B6830
:101A00009B6A7A6913437B617B68DB6A002B0ED08B
:101A1000786800F019FB0346002B08D07B68402251
:101A20005A657B68012283F83520012316E07B6824
:101A30001B687A695A61786800F0D0FA0346FB6047
:101A40007B68DB6D3F229A40FB689A607B680022CE
:101A50005A657B68012283F8352000231846183721
:101A6000BD4680BDE86802083F8010F080B586B0B2
:101A700000AFF860B9607A603B600023FB75FB68DB
:101A80009B6D3B613B68002B03D03B68B3F5803F07
:101A900004D340F2CD112B481CF0BEFDFB6893F837
:101AA0003430012B01D1022348E0FB68012283F886
:101AB0003420FB6893F83530DBB2012B37D1FB685B
:101AC000022283F83520FB6800225A653B687A6859
:101AD000B968F86800F054FAFB68DB6D3F229A4061
:101AE0003B699A60FB681B681A68FB681B6842F0D8
:101AF00016021A60FB681B685A69FB681B6842F093
:101B000080025A61FB681B6C002B07D0FB681B68C6
:101B10001A68FB681B6842F008021A60FB681B68C1
:101B20001A68FB681B6842F001021A6005E0FB6856
:101B3000002283F834200223FB75FB7D18461837FA
:101B4000BD4680BDE868020880B584B000AF78600B
:101B50007B689B6DFB60FFF78BFBB8607B6893F83D
:101B60003530DBB2022B08D07B6880225A657B6857
:101B7000002283F83420012352E07B681B681A6836
:101B80007B681B6822F016021A607B681B685A6922
:101B90007B681B6822F080025A617B681B6C002BFB
:101BA00003D17B689B6C002B07D07B681B681A688D
:101BB0007B681B6822F008021A607B681B681A6841
:101BC0007B681B6822F001021A6013E0FFF750FBEC
:101BD0000246BB68D31A052B0CD97B6820225A65B4
:101BE0007B68002283F834207B68032283F8352049
:101BF000032315E07B681B681B6803F00103002BBF
:101C0000E4D17B68DB6D3F229A40FB689A607B6879
:101C1000002283F834207B68012283F835200023DA
:101C200018461037BD4680BD80B483B000AF7860E1
:101C30007B6893F83530DBB2022B04D07B688022BE
:101C40005A6501230CE07B68052283F835207B6808
:101C50001B681A687B681B6822F001021A60002367
:101C600018460C37BD465DF8047B704780B586B0DA
:101C700000AF78600023BB608E4B1B688E4AA2FBCE
:101C800003239B0A7B617B689B6D3B613B691B68FF
:101C9000FB607B68DB6D08229A40FB681340002BD9
:101CA0001AD07B681B681B6803F00403002B13D059
:101CB0007B681B681A687B681B6822F004021A6044
:101CC0007B68DB6D08229A403B699A607B685B6D9C
:101CD00043F001027B685A657B68DB6D01229A4004
:101CE000FB681340002B12D07B681B685B6903F014
:101CF0008003002B0BD07B68DB6D01229A403B698F
:101D00009A607B685B6D43F002027B685A657B6872
:101D1000DB6D04229A40FB681340002B12D07B68D5
:101D20001B681B6803F00203002B0BD07B68DB6D84
:101D300004229A403B699A607B685B6D43F0040221
:101D40007B685A657B68DB6D10229A40FB68134004
:101D5000002B43D07B681B681B6803F00803002B33
:101D60003CD07B68DB6D10229A403B699A607B68AF
:101D70001B681B6803F48023002B18D07B681B684A
:101D80001B6803F40023002B08D17B681B6C002B1D
:101D900024D07B681B6C786898471FE07B689B6C3D
:101DA000002B1BD07B689B6C7868984716E07B689B
:101DB0001B681B6803F48073002B07D17B681B68CA
:101DC0001A687B681B6822F008021A607B681B6C2B
:101DD000002B03D07B681B6C786898477B68DB6DB1
:101DE00020229A40FB681340002B00F08F807B6814
:101DF0001B681B6803F01003002B00F087807B68D2
:101E0000DB6D20229A403B699A607B6893F83530FD
:101E1000DBB2052B36D17B681B681A687B681B68B0
:101E200022F016021A607B681B685A697B681B687F
:101E300022F080025A617B681B6C002B03D17B6807
:101E40009B6C002B07D07B681B681A687B681B683B
:101E500022F008021A607B68DB6D3F229A403B69E2
:101E60009A607B68002283F834207B68012283F823
:101E700035207B681B6D002B7ED07B681B6D7868DE
:101E8000984779E07B681B681B6803F48023002B6C
:101E90001DD07B681B681B6803F40023002B0DD149
:101EA0007B685B6C002B31D07B685B6C78689847F3
:101EB0002CE000BFA4000020B5814E1B7B68DB6BCB
:101EC000002B23D07B68DB6B786898471EE07B682B
:101ED0001B681B6803F48073002B0FD17B681B68A1
:101EE0001A687B681B6822F010021A607B68002267
:101EF00083F834207B68012283F835207B68DB6B14
:101F0000002B03D07B68DB6B786898477B685B6D40
:101F1000002B32D07B685B6D03F00103002B22D0D5
:101F20007B68052283F835207B681B681A687B680C
:101F30001B6822F001021A60BB680133BB607A693A
:101F40009A4207D37B681B681B6803F00103002BD0
:101F5000F2D100E000BF7B68002283F834207B6868
:101F6000012283F835207B68DB6C002B05D07B6871
:101F7000DB6C7868984700E000BF1837BD4680BD2D
:101F800080B485B000AFF860B9607A603B60FB68F0
:101F90001B681A68FB681B6822F480221A60FB68C1
:101FA0001B683A685A60FB689B68402B08D1FB6845
:101FB0001B687A689A60FB681B68BA68DA6007E099
:101FC000FB681B68BA689A60FB681B687A68DA600D
:101FD00000BF1437BD465DF8047B704780B485B000
:101FE00000AF78607B681B68DBB2103B134AA2FB32
:101FF00003231B09FB60124AFB6813441B781A4633
:102000007B68DA65FB68032B08D97B681B681A4676
:102010000C4B13401A1D7B689A6506E07B681B68B1
:102020001A46084B13407A6893657B689B6D184687
:102030001437BD465DF8047B704700BFABAAAAAA5F
:102040006C6F020800FCFFFF80B485B000AF7860C1
:102050000023FB737B689B6ABB607B689B69002BDA
:102060001FD1BB68032B56D801A252F823F000BF42
:102070008120000893200008812000081721000813
:102080007B68DB6A03F08073002B46D00123FB736F
:1020900043E07B68DB6AB3F1C07F40D10123FB736F
:1020A0003DE07B689B69B3F5005F21D1BB68032BE2
:1020B00037D801A252F823F0C9200008CF20000829
:1020C000C9200008E12000080123FB7330E07B6891
:1020D000DB6A03F08073002B25D00123FB7322E021
:1020E0007B68DB6AB3F1C07F1FD10123FB731CE067
:1020F000BB68022B03D9BB68032B03D018E0012374
:10210000FB7315E07B68DB6A03F08073002B0ED055
:102110000123FB730BE000BF0AE000BF08E000BF33
:1021200006E000BF04E000BF02E000BF00E000BF27
:10213000FB7B18461437BD465DF8047B704700BF33
:1021400080B582B000AF78607B68002B01D101239D
:102150007AE07B681B683E4A934203D0F6213D48F3
:102160001CF05AFA7B685B68002B12D07B685B68B6
:10217000B3F5803F0DD07B685B68B3F5003F08D0B6
:102180007B685B68B3F5403F03D0F72131481CF012
:1021900043FA7B689B68002B13D07B689B68012BFC
:1021A0000FD07B689B68022B0BD07B689B68032B4E
:1021B00007D07B689B68042B03D0F82125481CF0CE
:1021C0002BFA7B68DB68B3F5804F03D3F9212148F4
:1021D0001CF022FA7B6893F83930DBB2002B06D171
:1021E0007B68002283F8382078681AF069FC7B68E5
:1021F000022283F839207B681B681B6823F4403176
:102200007B685A687B681B680A431A607B681B6896
:102210005B6B23F007017B689A687B681B680A4345
:102220005A637B681B681A6C0B4B13407A68D16841
:102230007A6812680B4313647B680022DA637B6858
:10224000012283F83920002318460837BD4680BD97
:1022500000B002402069020800C0FFFF80B586B0D0
:1022600002AFF860B9607A603B60BB69B3F5803F4C
:1022700004D34FF4297118481CF0CEF93B68B3F52C
:10228000804F04D340F2A52113481CF0C5F9FB6828
:1022900093F83830012B01D1022318E0FB680122AA
:1022A00083F83820FB68022283F83920BB69009349
:1022B0003B687A68B968F86800F024FAFB681B6824
:1022C0001A68FB681B6842F001021A600023184676
:1022D0001037BD4680BD00BF2069020880B586B0BA
:1022E00000AF786039600023FB607B681B681B6867
:1022F00003F00103002B56D0FEF7BAFF78614BE0E4
:102300007B681B685B68FB60FB6803F02103002BA4
:1023100023D0FB6803F02003002B05D07B68DB6B28
:1023200043F002027B68DA63FB6803F00103002BD1
:1023300005D07B68DB6B43F001027B68DA637B6866
:102340001B6821229A607B68042283F839207B680D
:10235000002283F838200123A5E03B68B3F1FF3F5A
:102360001AD0FEF785FF02467B69D31A3A689A4273
:1023700002D33B68002B0FD17B68DB6B43F020025C
:102380007B68DA637B68032283F839207B6800224C
:1023900083F83820032386E07B681B685B6803F0C2
:1023A0000203002BACD07B681B68DB6903F02003C1
:1023B0003B617B681B685B6A03F020033A69134347
:1023C0003B613B69002B61D0FEF752FF786156E01C
:1023D0007B681B685B68FB60FB6803F02903002BCC
:1023E0002ED0FB6803F00803002B05D07B68DB6B65
:1023F00043F004027B68DA63FB6803F02003002BE0
:1024000005D07B68DB6B43F002027B68DA63FB6814
:1024100003F00103002B05D07B68DB6B43F0010266
:102420007B68DA637B681B6829229A607B680422D8
:1024300083F839207B68002283F83820012332E0BA
:102440003B68B3F1FF3F1AD0FEF712FF02467B69EB
:10245000D31A3A689A4202D33B68002B0FD17B68AB
:10246000DB6B43F020027B68DA637B68032283F82E
:1024700039207B68002283F83820032313E07B682F
:102480001B685B6803F01003002BA1D07B681B68FE
:1024900012229A607B68012283F839207B6800222F
:1024A00083F83820002318461837BD4680BD000049
:1024B00080B586B000AF786039603B68002B07D0EC
:1024C0003B68012B04D040F24A618C481CF0A4F810
:1024D0007A683B681B01134418331B68B3F5804FBF
:1024E00004D340F24B6185481CF096F87B685B682A
:1024F000B3F5403F7DD07A683B681B0113441C3321
:102500001B68002B54D07A683B681B0113441C33B2
:102510001B68012B4CD07A683B681B0113441C33A9
:102520001B68022B44D07A683B681B0113441C33A0
:102530001B68032B3CD07A683B681B0113441C3397
:102540001B68042B34D07A683B681B0113441C338E
:102550001B68052B2CD07A683B681B0113441C3385
:102560001B68062B24D07A683B681B0113441C337C
:102570001B68072B1CD07A683B681B0113441C3373
:102580001B68082B14D07A683B681B0113441C336A
:102590001B68092B0CD07A683B681B0113441C3361
:1025A0001B680A2B04D040F24E6154481CF034F8EA
:1025B0007B685B68002B1CD07A683B6802331B0188
:1025C00013441B68002B14D07A683B6802331B014C
:1025D00013441B68012B0CD07A683B6802331B0143
:1025E00013441B68022B04D040F2516143481CF095
:1025F00013F87B6893F83830012B01D1022379E07E
:102600007B68012283F838207B68022283F8392016
:102610003B681B0118337A6813443B613B695A6875
:102620003B699B681B0413437B61354BFB603B6933
:102630005B680A2B03D03B695B68092B07D13B69B8
:10264000DB6803F07F437A6913437B6105E03B69F4
:10265000DB681B067A6913437B613B68002B20D142
:102660007B681B685A6AFB68DB4302EA03017B68EC
:102670001B687A690A435A627B681B683A69126868
:102680009A613B695B680A2B03D03B695B68092B45
:1026900027D13B69DA687B681B6822F07F429A6227
:1026A0001FE07B681B68DA69FB68DB4302EA030111
:1026B0007B681B687A690A43DA617B681B683A6940
:1026C00012681A613B695B680A2B03D03B695B683F
:1026D000092B06D13B69DA687B681B6822F07F42D0
:1026E0001A627B68012283F839207B68002283F814
:1026F0003820002318461837BD4680BD20690208DF
:102700000F0003FF80B48BB000AFF860B9607A604F
:102710003B60FB681B685B6C03F040413B681A043C
:102720003B6B1A43FB681B680A435A64FB681B68CF
:102730007A68DA63FB685B68B3F5403F74D1BB68C5
:1027400003F07F433B62BB6803F47F03FB61BB681C
:1027500003F47F43BB61BB68DBB27B61FB689B68B2
:10276000002B08D1BA69FB691A433B6A13437A69A3
:1027700013437B6253E0FB689B68012B06D1BA6967
:10278000FB6913437A6913437B6248E0FB689B68EB
:10279000022B11D1FB69DB0CFB61BB699B0ABB619E
:1027A0007B69DB087B61BB695A01FB69DB02134370
:1027B0007A6913437B6232E0FB689B68032B17D175
:1027C0003B6ADB0F3B62FB69DB0CFB61BB69DB0A2D
:1027D000BB617B69DB087B61BB695A01FB699B02BA
:1027E0001A433B6ADB0313437A6913437B6216E0A7
:1027F0003B6A1B0F3B62FB691B0DFB61BB691B0B3B
:10280000BB617B691B097B61BB691A01FB691B0208
:102810001A433B6A1B0313437A6913437B62FB68C9
:102820001B687A6A9A6303E0FB681B68BA68DA601F
:1028300000BF2C37BD465DF8047B704780B588B07B
:1028400000AF786039600023FB6100237B610023C7
:102850003B610023BB617B68424A93422BD07B687B
:10286000414A934227D07B68404A934223D07B68F9
:102870003F4A93421FD07B683E4A93421BD07B68FD
:102880003D4A934217D07B683C4A934213D07B6801
:102890003B4A93420FD07B683A4A93420BD07B6805
:1028A000394A934207D07B68384A934203D0B1211A
:1028B00037481BF0B1FE3B681B689BB2002B03D16D
:1028C000B22133481BF0A8FE3B685B68002B35D073
:1028D0003B685B68012B31D03B685B68112B2DD0C6
:1028E0003B685B68022B29D03B685B68122B25D0C4
:1028F0003B685B68274A934220D03B685B68264A66
:1029000093421BD03B685B68244A934216D03B68D5
:102910005B68234A934211D03B685B68214A93422B
:102920000CD03B685B68204A934207D03B685B68E9
:10293000032B03D0B32116481BF06EFE3B689B6847
:10294000002B0BD03B689B68012B07D03B689B6832
:10295000022B03D0B4210E481BF05EFE0023FB6166
:10296000D9E200BF0000024000040240000802401B
:10297000000C024000100240001402400018024007
:10298000001C0240002002400024024000280240B7
:102990005C690208000011100000211000003110D5
:1029A0000000121000002210000032100122FB690A
:1029B00002FA03F37B613B681B687A6913403B6151
:1029C0003A697B699A4240F0A3823B685B68022BBC
:1029D00004D03B685B68122B40F034813B681B6974
:1029E000002B00F00B813B681B69012B00F0068176
:1029F0003B681B69002B00F001813B681B69002BC1
:102A000000F0FC803B681B69002B00F0F7803B68FE
:102A10001B69012B00F0F2803B681B69022B00F060
:102A2000ED803B681B69022B00F0E8803B681B6966
:102A3000022B00F0E3803B681B69032B00F0DE8073
:102A40003B681B69032B00F0D9803B681B69032B93
:102A500000F0D4803B681B69032B00F0CF803B68FB
:102A60001B69032B00F0CA803B681B69032B00F035
:102A7000C5803B681B69042B00F0C0803B681B6964
:102A8000042B00F0BB803B681B69042B00F0B68070
:102A90003B681B69042B00F0B1803B681B69042B69
:102AA00000F0AC803B681B69052B00F0A7803B68F9
:102AB0001B69052B00F0A2803B681B69052B00F009
:102AC0009D803B681B69052B00F098803B681B6963
:102AD000052B00F093803B681B69052B00F08E806E
:102AE0003B681B69062B00F089803B681B69062B3D
:102AF00000F084803B681B69072B7FD03B681B6913
:102B0000072B7BD03B681B69072B77D03B681B6981
:102B1000072B73D03B681B69072B6FD03B681B6981
:102B2000072B6BD03B681B69072B67D03B681B6981
:102B3000082B63D03B681B69082B5FD03B681B697F
:102B4000082B5BD03B681B69082B57D03B681B697F
:102B5000082B53D03B681B69082B4FD03B681B697F
:102B6000082B4BD03B681B69092B47D03B681B697E
:102B7000092B43D03B681B69092B3FD03B681B697D
:102B8000092B3BD03B681B69092B37D03B681B697D
:102B9000092B33D03B681B69092B2FD03B681B697D
:102BA0000A2B2BD03B681B690A2B27D03B681B697B
:102BB0000A2B23D03B681B690A2B1FD03B681B697B
:102BC0000B2B1BD03B681B690C2B17D03B681B6978
:102BD0000C2B13D03B681B690C2B0FD03B681B6977
:102BE0000F2B0BD03B681B690D2B07D03B681B6973
:102BF0000E2B03D0C52187481BF00EFDFB69DA08B8
:102C00007B68083253F82230BB61FB6903F007038D
:102C10009B000F2202FA03F3DB43BA691340BB6146
:102C20003B681A69FB6903F007039B0002FA03F390
:102C3000BA691343BB61FB69DA087B680832B9697A
:102C400043F822107B681B68BB61FB695B000322B1
:102C500002FA03F3DB43BA691340BB613B685B686C
:102C600003F00302FB695B0002FA03F3BA69134342
:102C7000BB617B68BA691A603B685B68012B0BD04B
:102C80003B685B68022B07D03B685B68112B03D065
:102C90003B685B68122B44D13B68DB68002B0FD08C
:102CA0003B68DB68012B0BD03B68DB68022B07D04D
:102CB0003B68DB68032B03D0D92156481BF0ACFCE2
:102CC0007B689B68BB61FB695B00032202FA03F32C
:102CD000DB43BA691340BB613B68DA68FB695B00A0
:102CE00002FA03F3BA691343BB617B68BA699A605D
:102CF0007B685B68BB610122FB6902FA03F3DB437B
:102D0000BA691340BB613B685B681B0903F00102B1
:102D1000FB6902FA03F3BA691343BB617B68BA69C2
:102D20005A607B68DB68BB61FB695B00032202FAC7
:102D300003F3DB43BA691340BB613B689A68FB69E4
:102D40005B0002FA03F3BA691343BB617B68BA699B
:102D5000DA603B685B6803F08053002B00F0D8809A
:102D60002D4B5B6C2C4A43F4804353642A4B5B6CC1
:102D700003F48043FB60FB68284AFB699B0802332D
:102D800052F82330BB61FB6903F003039B000F2261
:102D900002FA03F3DB43BA691340BB617B68204A44
:102DA000934251D07B681F4A934231D07B681E4AC0
:102DB00093422BD07B681D4A934225D07B681C4AE6
:102DC00093421FD07B681B4A934219D07B681A4AF2
:102DD000934213D07B68194A93420DD07B68184AFE
:102DE000934207D07B68174A934201D109232CE014
:102DF0000A232AE0082328E0072326E0062324E00C
:102E0000052322E0042320E003231EE002231CE02C
:102E100001231AE05C6902080038024000380140D2
:102E2000000002400004024000080240000C024082
:102E3000001002400014024000180240001C024032
:102E400000200240002402400023FA6902F003023D
:102E500092009340BA691343BB613349FB699B08F5
:102E60000233BA6941F82320304B1B68BB613B69D0
:102E7000DB43BA691340BB613B685B6803F4803392
:102E8000002B03D0BA693B691343BB61274ABB6976
:102E90001360264B5B68BB613B69DB43BA69134037
:102EA000BB613B685B6803F40033002B03D0BA6955
:102EB0003B691343BB611D4ABB6953601B4B9B6855
:102EC000BB613B69DB43BA691340BB613B685B682C
:102ED00003F48013002B03D0BA693B691343BB6131
:102EE000124ABB699360114BDB68BB613B69DB43F2
:102EF000BA691340BB613B685B6803F40013002BA5
:102F000003D0BA693B691343BB61084ABB69D3600C
:102F1000FB690133FB61FB690F2B7FF647AD00BFF7
:102F200000BF2037BD4680BD00380140003C014055
:102F300080B584B000AF78600B467B807B88002B27
:102F400004D14FF4BD7109481BF066FB7B681A6918
:102F50007B881340002B02D00123FB7301E0002388
:102F6000FB73FB7B18461037BD4680BD5C690208C9
:102F700080B582B000AF78600B467B8013467B70D3
:102F80007B88002B04D14FF4CD710E481BF044FB1D
:102F90007B78002B07D07B78012B04D040F29B116B
:102FA00008481BF039FB7B78002B03D07A887B68BC
:102FB0009A6103E07B881A047B689A6100BF083736
:102FC000BD4680BD5C69020880B582B000AF034693
:102FD000FB80084B5A69FB881340002B06D0054A3A
:102FE000FB885361FB88184600F006F800BF0837DD
:102FF000BD4680BD003C014080B483B000AF0346B5
:10300000FB8000BF0C37BD465DF8047B70470000B5
:10301000F0B58DB00AAF78607B68002B01D1012339
:1030200056E07B681B68B3F1A04F08D07B681B6833
:10303000294A934203D07C2128481BF0EDFA7B6893
:1030400093F8B932DBB2002B06D17B68002283F8FB
:10305000B822786820F036FB7B68032283F8B92217
:103060007B681B68184607F0B2FF7B681B683B60F3
:103070007E686D4606F110040FCC0FC50FCC0FC54E
:1030800094E8030085E80300331D0ECB386807F091
:1030900035FF7B681B680121184607F0A9FF7B6894
:1030A0001B683B607E686D4606F110040FCC0FC5AF
:1030B0000FCC0FC594E8030085E80300331D0ECB49
:1030C000386808F0BBF87B68012283F8B922002336
:1030D00018460C37BD46F0BD000004409869020850
:1030E00090B589B004AF7860084611461A46034689
:1030F000FB700B46BB7013467B707B6893F8B8324D
:10310000012B01D102237FE07B68012283F8B822E2
:10311000FA78796813469B001344DB000B443D3377
:1031200000221A70FA78796813469B001344DB007A
:103130000B4438337A781A70FA78796813469B0012
:103140001344DB000B4440333A8D1A80FA787968D7
:1031500013469B001344DB000B443933FA781A7092
:10316000FA78796813469B001344DB000B443F3325
:1031700097F824201A70FA78BB7803F07F03D8B24E
:10318000796813469B001344DB000B443A33024634
:103190001A7097F90230002B0ADAFA787968134628
:1031A0009B001344DB000B443B3301221A7009E0FF
:1031B000FA78796813469B001344DB000B443B33D9
:1031C00000221A70FA78796813469B001344DB00DA
:1031D0000B443C3397F820201A707B6818687C7881
:1031E000BA78F9783B8D029397F82430019397F8D9
:1031F00020300093234608F097F90346FB737B6861
:10320000002283F8B822FB7B18461437BD4690BDD8
:1032100080B584B000AF78600B46FB700023FB7371
:103220007B6893F8B832012B01D102230FE07B6851
:10323000012283F8B8227B681B68FA781146184689
:1032400008F0CFFB7B68002283F8B822FB7B18468E
:103250001037BD4680BD000080B582B000AF7860F9
:10326000084611461A460346FB700B46BB701346D0
:103270007B70FA78796813469B001344DB000B449B
:103280003B33BA781A70FA78796813469B00134476
:10329000DB000B443F337A781A703B7C002B0AD159
:1032A000FA78796813469B001344DB000B444233E1
:1032B00003221A7009E0FA78796813469B001344D8
:1032C000DB000B44423302221A707B78032B00F29E
:1032D000D68001A252F823F0E932000869340008D0
:1032E00055330008DF3300083B7C012B40F0C980D8
:1032F000BB78002B40F0C5803B8B002B09D1FA78BE
:10330000796813469B001344DB000B4451330122C0
:103310001A70FA78796813469B001344DB000B445B
:1033200051331B78002B0AD1FA78796813469B0039
:103330001344DB000B44423300221A70A1E0FA78F8
:10334000796813469B001344DB000B44423302228E
:103350001A7096E0BB78002B20D1FA787968134672
:103360009B001344DB000B4451331B78002B0AD124
:10337000FA78796813469B001344DB000B44423310
:1033800000221A707EE0FA78796813469B00134495
:10339000DB000B44423302221A7073E0FA7879683A
:1033A00013469B001344DB000B4450331B78002B67
:1033B0000AD1FA78796813469B001344DB000B446A
:1033C000423300221A705DE0FA78796813469B0058
:1033D0001344DB000B44423302221A7052E0BB78E4
:1033E000002B20D1FA78796813469B001344DB0048
:1033F0000B4451331B78002B0AD1FA7879681346B5
:103400009B001344DB000B44423300221A7039E066
:10341000FA78796813469B001344DB000B4442336F
:1034200002221A702EE0FA78796813469B00134442
:10343000DB000B4450331B78002B0AD1FA787968F3
:1034400013469B001344DB000B44423300221A70E6
:1034500018E0FA78796813469B001344DB000B44AC
:10346000423302221A700DE0FA78796813469B0005
:103470001344DB000B44423300221A7002E000BF09
:1034800000E000BFFA78796813469B001344DB0024
:103490000B4444337A691A60FA78398B786813469A
:1034A0009B001344DB00034448331960FA787968C1
:1034B00013469B001344DB000B445C3300221A705C
:1034C000FA78796813469B001344DB000B444C33B5
:1034D00000221A60FA78796813469B001344DB00D7
:1034E0000B443933FA781A70FA78796813469B00DE
:1034F0001344DB000B445D3300221A707B681868AC
:10350000FA7813469B001344DB0038337A68D118ED
:103510007B681B69DBB21A4608F010F903461846AF
:103520000837BD4680BD00BF80B586B000AF78606B
:103530007B681B683B613B69FB607B681B681846C6
:1035400007F039FE0346012B40F0F1807B681B68D1
:10355000184607F01DFE0346002B00F0E7807B684D
:103560001B68184607F014FE034603F40013B3F576
:10357000001F04D17B681B684FF400125A617B68FE
:103580001B68184607F004FE034603F48013B3F5E6
:10359000801F04D17B681B684FF480125A617B68DE
:1035A0001B68184607F0F4FD034603F08063B3F18F
:1035B000806F04D17B681B684FF080625A617B6822
:1035C0001B68184607F0E4FD034603F00203022BD4
:1035D00003D17B681B6802225A617B681B6818460E
:1035E00007F0D6FD034603F00053B3F1005F17D197
:1035F000FB6803F588631B68FA6802F5886223F0AC
:103600002E031360786820F0B5F97B681B680121F0
:10361000184607F0C3FE7B681B684FF000525A61E2
:103620007B681B68184607F0B3FD034603F0807300
:10363000B3F1807F02D1786801F0CAF87B681B681B
:10364000184607F0A5FD034603F00803082B06D132
:10365000786820F073F97B681B6808225A617B68E0
:103660001B68184607F094FD034603F00073B3F19E
:10367000007F38D17B681B68184608F0A1F9B86054
:1036800000237B6125E07B6903F00F03BA6822FA0F
:1036900003F303F00103002B18D07B695A01FB6888
:1036A000134403F5A0631B6803F40043B3F5004F14
:1036B00006D17B69DBB21946786800F0CFF805E0E7
:1036C0007B69DBB21946786800F05FFC7B690133E7
:1036D0007B617B689B687A699A42D4D37B681B685C
:1036E0004FF000725A617B681B68184607F050FD66
:1036F000034603F01003102B01D1012300E0002347
:10370000002B14D07B681B689A697B681B6822F0C9
:1037100010029A61786800F0ADFF7B681B689A69B7
:103720007B681B6842F010029A6100E000BF183706
:10373000BD4680BD80B582B000AF78607B6893F8ED
:10374000B832012B01D1022313E07B68012283F8F8
:10375000B8227B681B68184607F028FC7B681B684A
:103760000121184607F07EFE7B68002283F8B8220C
:10377000002318460837BD4680BD80B582B000AF33
:1037800078607B6893F8B832012B01D102230DE0F9
:103790007B68012283F8B8227B681B68184608F012
:1037A0005BFA7B68002283F8B822002318460837AA
:1037B000BD4680BD80B582B000AF78607B681B6875
:1037C000184607F025FE034618460837BD4680BD5B
:1037D00080B483B000AF78600B46FB70FA787968EC
:1037E00013469B001344DB000B445C331B781846E4
:1037F0000C37BD465DF8047B704780B483B000AFE2
:1038000078600B46FB70FA78796813469B00134486
:10381000DB000B444C331B6818460C37BD465DF883
:10382000047B704780B582B000AF78607B681B680E
:10383000184607F067FE034618460837BD4680BDA8
:1038400080B582B000AF78607B681B68184607F0CF
:1038500042FE034618460837BD4680BD80B586B097
:1038600000AF78600B46FB707B681B687B617B69EF
:103870003B61FB78FB60FB685A013B69134403F52D
:10388000A0639B6803F00403042B19D1FB685A0161
:103890003B69134403F5A0631A4604239360FB6855
:1038A0005A013B69134403F5A063DB68FA685101D0
:1038B0003A690A4402F5A06243F00203D36095E03E
:1038C000FB685A013B69134403F5A0639B6803F04E
:1038D0002003202B09D1FB685A013B69134403F5EF
:1038E000A0631A462023936080E0FB685A013B697D
:1038F000134403F5A0639B6803F00803082B34D13D
:10390000FB685A013B69134403F5A063DB68FA685E
:1039100051013A690A4402F5A06243F00203D36000
:103920007968FA6813469B001344DB000B445D334F
:1039300005221A70FB685A013B69134403F5A06322
:103940001A4610239360FB685A013B69134403F540
:10395000A0631A46082393607B681B68FA68D2B29A
:103960001146184608F03DF840E0FB685A013B69F3
:10397000134403F5A0639B6803F48063B3F5806F81
:1039800034D1FB685A013B69134403F5A063DB683B
:10399000FA6851013A690A4402F5A06243F0020351
:1039A000D3607B681B68FA68D2B21146184608F0EB
:1039B00018F8FB685A013B69134403F5A0631A46E3
:1039C000102393607968FA6813469B001344DB0068
:1039D0000B445D3308221A70FB685A013B6913449B
:1039E00003F5A0631A464FF480639360FB685A01A5
:1039F0003B69134403F5A0639B6803F40073B3F5BC
:103A0000007F22D1FB685A013B69134403F5A06390
:103A1000DB68FA6851013A690A4402F5A06243F092
:103A20000203D3607B681B68FA68D2B2114618465D
:103A300007F0D7FFFB685A013B69134403F5A06305
:103A40001A464FF4007393609BE2FB685A013B698E
:103A5000134403F5A0639B6803F00103012B40F0BE
:103A6000C1807B681B69002B1BD07968FA681346FC
:103A70009B001344DB000B4448331A68FB68590170
:103A80003B690B4403F5A0631B69C3F31203D11A0E
:103A90007868FA6813469B001344DB0003444C33F8
:103AA00019607968FA6813469B001344DB000B44E5
:103AB0005D3301221A707968FA6813469B0013443B
:103AC000DB000B44583300221A60FB685A013B6943
:103AD000134403F5A0631A46012393607968FA68DA
:103AE00013469B001344DB000B443F331B78002B31
:103AF0000AD07968FA6813469B001344DB000B4434
:103B00003F331B78022B21D1FB685A013B691344D8
:103B100003F5A063DB68FA6851013A690A4402F5CB
:103B2000A06243F00203D3607B681B68FA68D2B2DC
:103B30001146184607F055FFFB685A013B691344CC
:103B400003F5A0631A461023936034E07968FA689D
:103B500013469B001344DB000B443F331B78032BBD
:103B600029D1FB685A013B69134403F5A0631B6824
:103B7000FA6851013A690A4402F5A06243F0005321
:103B800013607968FA6813469B001344DB000B440A
:103B90005C3301221A70FB68D8B27968FA68134660
:103BA0009B001344DB000B445C331B781A46014630
:103BB00078681FF0EDFE7968FA6813469B0013449D
:103BC000DB000B4450331B7883F00103D8B27968D3
:103BD000FA6813469B001344DB000B445033024643
:103BE0001A70CEE1FB685A013B69134403F5A063E8
:103BF0009B6803F00203022B40F0F180FB685A013E
:103C00003B69134403F5A063DB68FA6851013A6924
:103C10000A4402F5A06223F00203D3607968FA68CF
:103C200013469B001344DB000B445D331B78012BD0
:103C30000AD17968FA6813469B001344DB000B44F1
:103C40005C3301221A70B0E07968FA6813469B0071
:103C50001344DB000B445D331B78052B0AD17968D4
:103C6000FA6813469B001344DB000B445C330522C7
:103C70001A709AE07968FA6813469B001344DB00D7
:103C80000B445D331B78062B0AD07968FA6813461B
:103C90009B001344DB000B445D331B78082B56D18B
:103CA0007968FA6813469B001344DB000B445833D1
:103CB0001B68591C7868FA6813469B001344DB00A4
:103CC0000344583319607968FA6813469B0013441B
:103CD000DB000B4458331B68032B14D97968FA684E
:103CE00013469B001344DB000B44583300221A6038
:103CF0007968FA6813469B001344DB000B445C337D
:103D000004221A7009E07968FA6813469B0013448C
:103D1000DB000B445C3302221A70FB685A013B69DA
:103D2000134403F5A0631B68BB60BB6823F08043AA
:103D3000BB60BB6843F00043BB60FB685A013B6952
:103D4000134403F5A0631A46BB6813602DE079683D
:103D5000FA6813469B001344DB000B445D331B7869
:103D6000032B22D17968FA6813469B001344DB00C9
:103D70000B445C3302221A70FB685A013B691344FE
:103D800003F5A0631B68BB60BB6823F08043BB6086
:103D9000BB6843F00043BB60FB685A013B691344B6
:103DA00003F5A0631A46BB681360FB685A013B69C0
:103DB000134403F5A0631A4602239360FB68D8B24C
:103DC0007968FA6813469B001344DB000B445C33AC
:103DD0001B781A46014678681FF0DAFDD1E0FB68CF
:103DE0005A013B69134403F5A0639B6803F0800309
:103DF000802B3ED1FB685A013B69134403F5A06355
:103E0000DB68FA6851013A690A4402F5A06243F09E
:103E10000203D3607968FA6813469B001344DB0001
:103E20000B4458331B68591C7868FA6813469B008A
:103E30001344DB000344583319607968FA68134669
:103E40009B001344DB000B445D3306221A707B6831
:103E50001B68FA68D2B21146184607F0C2FDFB682B
:103E60005A013B69134403F5A0631A46802393600B
:103E700087E0FB685A013B69134403F5A0639B6824
:103E800003F01003102B7CD17968FA6813469B006D
:103E90001344DB000B443F331B78032B22D179689A
:103EA000FA6813469B001344DB000B44583300228E
:103EB0001A60FB685A013B69134403F5A063DB6891
:103EC000FA6851013A690A4402F5A06243F002031C
:103ED000D3607B681B68FA68D2B21146184607F0B7
:103EE00080FD45E07968FA6813469B001344DB00C7
:103EF0000B443F331B78002B0AD07968FA681346CD
:103F00009B001344DB000B443F331B78022B2FD163
:103F10007968FA6813469B001344DB000B4458335E
:103F200000221A607B681B69002B21D17968FA682E
:103F300013469B001344DB000B445D3303221A70CD
:103F4000FB685A013B69134403F5A063DB68FA6818
:103F500051013A690A4402F5A06243F00203D360BA
:103F60007B681B68FA68D2B21146184607F039FD23
:103F7000FB685A013B69134403F5A0631A461023FA
:103F8000936000BF1837BD4680BD80B586B000AFD6
:103F900078600B46FB707B681B687B617B693B61CB
:103FA000FB78FB60FB685A013B69134403F5A0638F
:103FB0009B6803F00403042B19D1FB685A013B6989
:103FC000134403F5A0631A4604239360FB685A0167
:103FD0003B69134403F5A063DB68FA6851013A6951
:103FE0000A4402F5A06243F00203D3603EE3FB689B
:103FF0005A013B69134403F5A0639B6803F0200357
:10400000202B41D1FB685A013B69134403F5A0639F
:104010001A46202393607968FA6813469B0013447C
:10402000DB000B443D331B78012B40F01F83796884
:10403000FA6813469B001344DB000B443D33002217
:104040001A707968FA6813469B001344DB000B442E
:104050005C3302221A70FB685A013B69134403F572
:10406000A063DB68FA6851013A690A4402F5A0626C
:1040700043F00203D3607B681B68FA68D2B2114632
:10408000184607F0AEFCF1E2FB685A013B691344A5
:1040900003F5A0639B6803F04003402B3FD1796890
:1040A000FA6813469B001344DB000B445D33042283
:1040B0001A707968FA6813469B001344DB000B44BE
:1040C0003D3301221A707968FA6813469B00134445
:1040D000DB000B44583300221A60FB685A013B692D
:1040E000134403F5A063DB68FA6851013A690A4496
:1040F00002F5A06243F00203D3607B681B68FA6894
:10410000D2B21146184607F06CFCFB685A013B69B5
:10411000134403F5A0631A4640239360A6E2FB68AC
:104120005A013B69134403F5A0639B6803F40073D1
:10413000B3F5007F22D1FB685A013B69134403F5B4
:10414000A063DB68FA6851013A690A4402F5A0628B
:1041500043F00203D3607B681B68FA68D2B2114651
:10416000184607F03EFCFB685A013B69134403F50F
:10417000A0631A464FF40073936077E2FB685A011C
:104180003B69134403F5A0639B6803F00103012B13
:1041900035D17968FA6813469B001344DB000B4461
:1041A000583300221A60FB685A013B69134403F537
:1041B000A063DB68FA6851013A690A4402F5A0621B
:1041C00043F00203D3607B681B68FA68D2B21146E1
:1041D000184607F006FCFB685A013B69134403F5D7
:1041E000A0631A46012393607968FA6813469B001E
:1041F0001344DB000B445D3301221A7036E2FB6886
:104200005A013B69134403F5A0639B6803F008035C
:10421000082B2BD1FB685A013B69134403F5A063BB
:104220001A4608239360FB685A013B69134403F55F
:10423000A063DB68FA6851013A690A4402F5A0629A
:1042400043F00203D3607B681B68FA68D2B2114660
:10425000184607F0C6FB7968FA6813469B001344BA
:10426000DB000B445D3305221A70FFE1FB685A0145
:104270003B69134403F5A0639B6803F01003102B04
:1042800055D17968FA6813469B001344DB000B4450
:10429000583300221A607968FA6813469B00134469
:1042A000DB000B445D3303221A707968FA68134609
:1042B0009B001344DB000B443D331B78002B14D1CF
:1042C0007968FA6813469B001344DB000B443C33C7
:1042D0001B78002B09D17968FA6813469B001344B8
:1042E000DB000B443D3301221A70FB685A013B6925
:1042F000134403F5A063DB68FA6851013A690A4484
:1043000002F5A06243F00203D3607B681B68FA6881
:10431000D2B21146184607F064FBFB685A013B69AC
:10432000134403F5A0631A46102393609EE1FB68D3
:104330005A013B69134403F5A0639B6803F08003B3
:10434000802B2BD1FB685A013B69134403F5A06312
:10435000DB68FA6851013A690A4402F5A06243F049
:104360000203D3607B681B68FA68D2B21146184614
:1043700007F037FB7968FA6813469B001344DB00AB
:104380000B445D3306221A70FB685A013B691344E3
:1043900003F5A0631A468023936067E1FB685A0126
:1043A0003B69134403F5A0639B6803F48063B3F592
:1043B000806F35D1FB685A013B69134403F5A06354
:1043C000DB68FA6851013A690A4402F5A06243F0D9
:1043D0000203D3607B681B68FA68D2B211461846A4
:1043E00007F0FFFAFB685A013B69134403F5A06329
:1043F0001A4610239360FB685A013B69134403F586
:10440000A0631A464FF4806393607968FA68134694
:104410009B001344DB000B445D3308221A7025E136
:10442000FB685A013B69134403F5A0639B6803F0E2
:104430000203022B40F01A81FB685A013B691344C6
:1044400003F5A063DB68FA6851013A690A4402F592
:10445000A06223F00203D3607968FA6813469B00D8
:104460001344DB000B445D331B78012B37D1796893
:10447000FA6813469B001344DB000B445C330122B3
:104480001A707968FA6813469B001344DB000B44EA
:104490003F331B78022B0BD07968FA6813469B00D8
:1044A0001344DB000B443F331B78032B40F0C580E3
:1044B0007968FA6813469B001344DB000B445133C0
:1044C0001B7883F00103D8B27968FA6813469B0021
:1044D0001344DB000B44513302461A70ADE0796897
:1044E000FA6813469B001344DB000B445D331B78D2
:1044F000032B0AD17968FA6813469B001344DB004A
:104500000B445C3302221A7097E07968FA6813460C
:104510009B001344DB000B445D331B78042B0AD152
:104520007968FA6813469B001344DB000B445C3344
:1045300002221A7081E07968FA6813469B001344DE
:10454000DB000B445D331B78052B0AD17968FA68D0
:1045500013469B001344DB000B445C3305221A70A6
:104560006BE07968FA6813469B001344DB000B4448
:104570005D331B78062B0AD07968FA6813469B00D6
:104580001344DB000B445D331B78082B55D179684D
:10459000FA6813469B001344DB000B4458331B6836
:1045A000591C7868FA6813469B001344DB000344E7
:1045B000583319607968FA6813469B001344DB008E
:1045C0000B4458331B68032B14D97968FA681346D7
:1045D0009B001344DB000B44583300221A607968B7
:1045E000FA6813469B001344DB000B445C3304223F
:1045F0001A7009E07968FA6813469B001344DB00DF
:104600000B445C3302221A70FB685A013B69134465
:1046100003F5A0631B68BB60BB6823F08043BB60ED
:10462000BB6843F00043BB60FB685A013B6913441D
:1046300003F5A0631A46BB681360FB685A013B6927
:10464000134403F5A0631A4602239360FB68D8B2B3
:104650007968FA6813469B001344DB000B445C3313
:104660001B781A46014678681FF092F900BF183788
:10467000BD4680BD80B58AB000AF78607B681B689E
:104680007B627B6A3B627B681B681B6AFB61FB6920
:1046900003F00F03BB61FB695B0C03F00F037B614D
:1046A000FB691B09C3F30A033B617B69022B04D03E
:1046B0007B69052B00F0828083E03B69002B7FD073
:1046C0007968BA6913469B001344DB000B444433FA
:1046D0001B68002B74D07B6818687968BA69134628
:1046E0009B001344DB000B4444331B683A6992B2CD
:1046F000194606F024FD7968BA6913469B001344F5
:10470000DB000B4444331A683B69D1187868BA69F6
:1047100013469B001344DB0003444433196079685B
:10472000BA6913469B001344DB000B444C331A68F0
:104730003B69D1187868BA6913469B001344DB00C3
:1047400003444C331960BB695A013B6A134403F5B7
:10475000A0631A691D4B1340002B31D0BB695A016D
:104760003B6A134403F5A0631B68FB60FB6823F0FE
:104770008043FB60FB6843F00043FB60BB695A0168
:104780003B6A134403F5A0631A46FB68136079681B
:10479000BA6913469B001344DB000B4450331B786B
:1047A00083F00103D8B27968BA6913469B001344B9
:1047B000DB000B44503302461A7001E000BF00E0FA
:1047C00000BF00BF2837BD4680BD00BF0000F81FF6
:1047D00080B586B000AF78607B681B687B617B69C1
:1047E0003B613B6903F588631B68FB603B6903F52C
:1047F00088631B68BB60BB6823F02E03BB60FB684B
:1048000003F00203022B0BD1FB6803F00103012B21
:1048100002D178681FF0A0F8BB6843F00203BB60C8
:10482000FB6803F00803082B47D1BB6843F008037B
:10483000BB60FB6803F00403042B29D17B689B69F0
:10484000022B13D1FB6803F4C023B3F5802F06D1EC
:104850007B681B680221184606F0A0FD11E07B680A
:104860001B680121184606F099FD0AE07B68DB68A9
:10487000032B06D13B6903F580631A464EF660238D
:10488000536078681FF092F878681FF065F814E0BC
:1048900078681FF099F83B6903F588631B683A69EB
:1048A00002F5886223F02E0313607B681B689A6907
:1048B0007B681B6842F000529A61FB6803F020039A
:1048C000202B03D1BB6843F02003BB603B6903F599
:1048D00088631A46BB68136000BF1837BD4680BDA9
:1048E00080B582B000AF78607B68002B01D10123D6
:1048F00007E17B681B68854A934213D07B681B687D
:10490000834A93420ED07B681B68824A934209D047
:104910007B681B68804A934204D04FF4EF717F4854
:1049200019F07AFE7B689B68B3F5806F04D340F280
:10493000DF117A4819F070FE7B68DB68012B08D024
:104940007B68DB68022B04D04FF4F071734819F0D8
:1049500063FE7B681B69002B09D07B681B69B3F57C
:10496000004F04D040F2E1116C4819F055FE7B680D
:104970005B69FF2B04D94FF4F171684819F04CFEC4
:104980007B689B69002B20D07B689B69012B1CD026
:104990007B689B69022B18D07B689B69032B14D022
:1049A0007B689B69042B10D07B689B69052B0CD01E
:1049B0007B689B69062B08D07B689B69072B04D01A
:1049C00040F2E311554819F027FE7B68DB69002BA4
:1049D00009D07B68DB69B3F5002F04D04FF4F27186
:1049E0004E4819F019FE7B681B6A002B09D07B68C2
:1049F0001B6AB3F5003F04D040F2E511474819F0B7
:104A00000BFE7B6893F84130DBB2002B06D17B684C
:104A1000002283F84020786818F096FE7B682422F4
:104A200083F841207B681B681A687B681B6822F04A
:104A300001021A607B685A687B681B6822F070620A
:104A40001A617B681B689A687B681B6822F40042C5
:104A50009A607B68DB68012B07D17B689A687B686A
:104A60001B6842F400429A6006E07B689A687B68A3
:104A70001B6842F404429A607B68DB68022B04D115
:104A80007B681B684FF400625A607B681B6859683A
:104A90007B681A68224B0B4353607B681B68DA689B
:104AA0007B681B6822F40042DA607B681A697B68C5
:104AB0005B6942EA03017B689B691A027B681B6899
:104AC0000A43DA607B68D9697B681A6A7B681B686D
:104AD0000A431A607B681B681A687B681B6842F08F
:104AE00001021A607B6800225A647B68202283F8E6
:104AF00041207B6800221A637B68002283F84220F1
:104B0000002318460837BD4680BD00BF0054004052
:104B100000580040005C004000600040D06902087E
:104B20000080000280B588B002AFF86008461146E8
:104B30001A4603467B810B463B811346FB80FB886C
:104B4000012B07D0FB88022B04D040F6ED018448EE
:104B500019F062FDFB6893F84130DBB2202B40F086
:104B6000F9803B6A002B02D0BB8C002B05D1FB687F
:104B70004FF400725A640123EDE0FB6893F8403073
:104B8000012B01D10223E6E0FB68012283F84020DB
:104B9000FCF76EFB78617B690093192301224FF4C7
:104BA0000041F86800F0D4FA0346002B01D001233D
:104BB000D1E0FB68212283F84120FB68402283F882
:104BC0004220FB6800225A64FB683A6A5A62FB681A
:104BD000BA8C5A85FB6800225A63F8883A89798929
:104BE0007B690193BB6A00930346F86800F0E4F91F
:104BF0000346002B05D0FB68002283F840200123E8
:104C0000A9E0FB685B8D9BB2FF2B0ED9FB68FF22EE
:104C10001A85FB681B8DDAB27989002300934FF067
:104C20008073F86800F0B6FB0FE0FB685B8D9AB20A
:104C3000FB681A85FB681B8DDAB279890023009323
:104C40004FF00073F86800F0A5FB7A69B96AF8685C
:104C500000F0BEFA0346002B01D001237BE0FB6885
:104C60005B6A1A78FB681B689A62FB685B6A5A1C6D
:104C7000FB685A62FB685B8D9BB2013B9AB2FB6892
:104C80005A85FB681B8D013B9AB2FB681A85FB684D
:104C90005B8D9BB2002B34D0FB681B8D002B30D179
:104CA0007B690093BB6A00228021F86800F050FA0B
:104CB0000346002B01D001234DE0FB685B8D9BB2C6
:104CC000FF2B0ED9FB68FF221A85FB681B8DDAB219
:104CD0007989002300934FF08073F86800F05AFB45
:104CE0000FE0FB685B8D9AB2FB681A85FB681B8D31
:104CF000DAB27989002300934FF00073F86800F06E
:104D000049FBFB685B8D9BB2002B9ED17A69B96A27
:104D1000F86800F09DFA0346002B01D001231AE049
:104D2000FB681B682022DA61FB681B685968FB6816
:104D30001A680C4B0B405360FB68202283F841201B
:104D4000FB68002283F84220FB68002283F84020A1
:104D5000002300E0022318461837BD4680BD00BF7F
:104D6000D069020800E800FE80B588B002AFF860A4
:104D7000084611461A4603467B810B463B81134683
:104D8000FB80FB88012B07D0FB88022B04D040F668
:104D90007411864819F040FCFB6893F84130DBB28F
:104DA000202B40F0FD803B6A002B02D0BB8C002BF7
:104DB00005D1FB684FF400725A640123F1E0FB68EF
:104DC00093F84030012B01D10223EAE0FB68012275
:104DD00083F84020FCF74CFA78617B690093192333
:104DE00001224FF40041F86800F0B2F90346002BAD
:104DF00001D00123D5E0FB68222283F84120FB6823
:104E0000402283F84220FB6800225A64FB683A6A19
:104E10005A62FB68BA8C5A85FB6800225A63F8888C
:104E20003A8979897B690193BB6A00930346F868E4
:104E300000F016F90346002B05D0FB68002283F82A
:104E400040200123ADE0FB685B8D9BB2FF2B0ED9A8
:104E5000FB68FF221A85FB681B8DDAB27989544BF7
:104E600000934FF08073F86800F094FA0FE0FB684D
:104E70005B8D9AB2FB681A85FB681B8DDAB2798963
:104E80004B4B00934FF00073F86800F083FA7B6996
:104E90000093BB6A00220421F86800F059F9034628
:104EA000002B01D001237CE0FB681B685A6AFB6879
:104EB0005B6AD2B21A70FB685B6A5A1CFB685A6262
:104EC000FB681B8D013B9AB2FB681A85FB685B8D02
:104ED0009BB2013B9AB2FB685A85FB685B8D9BB223
:104EE000002B34D0FB681B8D002B30D17B690093E5
:104EF000BB6A00228021F86800F02AF90346002BE3
:104F000001D001234DE0FB685B8D9BB2FF2B0ED9D6
:104F1000FB68FF221A85FB681B8DDAB279890023B2
:104F200000934FF08073F86800F034FA0FE0FB68EC
:104F30005B8D9AB2FB681A85FB681B8DDAB27989A2
:104F4000002300934FF00073F86800F023FAFB6829
:104F50005B8D9BB2002B9AD17A69B96AF86800F030
:104F600077F90346002B01D001231AE0FB681B6888
:104F70002022DA61FB681B685968FB681A680D4BD0
:104F80000B405360FB68202283F84120FB6800221D
:104F900083F84220FB68002283F84020002300E0D1
:104FA000022318461837BD4680BD00BFD0690208ED
:104FB0000024008000E800FE80B586B002AFF860F3
:104FC000084611461A4603467B810B463B81134631
:104FD000FB80FB88DAB27989204B00934FF0807315
:104FE000F86800F0D7F9FA69B969F86800F0F0F8E4
:104FF0000346002B01D001232CE0FB88012B05D1B7
:105000003B89DAB2FB681B689A6215E03B891B0A90
:105010009BB2DAB2FB681B689A62FA69B969F868F0
:1050200000F0D6F80346002B01D0012312E03B89A3
:10503000DAB2FB681B689A62FB690093BB690022C5
:105040008021F86800F084F80346002B01D001238A
:1050500000E0002318461037BD4680BD00200080C8
:1050600080B586B002AFF860084611461A4603467E
:105070007B810B463B811346FB80FB88DAB2798942
:10508000204B00930023F86800F084F9FA69B969AD
:10509000F86800F09DF80346002B01D001232CE0B6
:1050A000FB88012B05D13B89DAB2FB681B689A6249
:1050B00015E03B891B0A9BB2DAB2FB681B689A6257
:1050C000FA69B969F86800F083F80346002B01D04B
:1050D000012312E03B89DAB2FB681B689A62FB6924
:1050E0000093BB6900224021F86800F031F80346C4
:1050F000002B01D0012300E0002318461037BD46E5
:1051000080BD00BF0020008080B483B000AF786015
:105110007B681B689B6903F00203022B03D17B6849
:105120001B6800229A627B681B689B6903F001037D
:10513000012B07D07B681B689A697B681B6842F06B
:1051400001029A6100BF0C37BD465DF8047B7047D1
:1051500080B584B000AFF860B9603B601346FB7166
:1051600022E03B68B3F1FF3F1ED0FCF781F8024616
:10517000BB69D31A3A689A4202D33B68002B13D119
:10518000FB685B6C43F02002FB685A64FB682022DA
:1051900083F84120FB68002283F84220FB6800224C
:1051A00083F8402001230FE0FB681B689A69BB6805
:1051B0001340BA689A420CBF01230023DBB21A469F
:1051C000FB799A42CDD0002318461037BD4680BDEA
:1051D00080B584B000AFF860B9607A602CE07A687E
:1051E000B968F86800F070F80346002B01D001237D
:1051F0002AE0BB68B3F1FF3F1ED0FCF739F8024646
:105200007B68D31ABA689A4202D3BB68002B13D1C9
:10521000FB685B6C43F02002FB685A64FB68202249
:1052200083F84120FB68002283F84220FB680022BB
:1052300083F84020012307E0FB681B689B6903F0AB
:105240000203022BCBD1002318461037BD4680BD88
:1052500080B584B000AFF860B9607A6028E07A6801
:10526000B968F86800F030F80346002B01D001233C
:1052700026E0FBF7FDFF02467B68D31ABA689A4224
:1052800002D3BB68002B13D1FB685B6C43F0200298
:10529000FB685A64FB68202283F84120FB680022E7
:1052A00083F84220FB68002283F84020012307E0B6
:1052B000FB681B689B6903F02003202BCFD10023E0
:1052C00018461037BD4680BD80B584B000AFF86089
:1052D000B9607A60FB681B689B6903F01003102BB0
:1052E00051D122E0BB68B3F1FF3F1ED0FBF7C0FFF6
:1052F00002467B68D31ABA689A4202D3BB68002B75
:1053000013D1FB685B6C43F02002FB685A64FB68B6
:10531000202283F84120FB68002283F84220FB68AA
:10532000002283F8402001232EE0FB681B689B6964
:1053300003F02003202BD5D1FB681B681022DA6113
:10534000FB681B682022DA61F868FFF7DDFEFB6866
:105350001B685968FB681A680D4B0B405360FB686B
:105360005B6C43F00402FB685A64FB68202283F8FC
:105370004120FB68002283F84220FB68002283F86A
:105380004020012300E0002318461037BD4680BDB1
:1053900000E800FE80B584B000AFF8607B600B468B
:1053A0007B8113467B72FB681B682D4A934213D0A6
:1053B000FB681B682B4A93420ED0FB681B682A4A85
:1053C000934209D0FB681B68284A934204D041F6F7
:1053D000C101274819F020F97B68B3F1807F0BD019
:1053E0007B68B3F1007F07D07B68002B04D041F6C7
:1053F000C2011F4819F010F9BB691E4A93420FD031
:10540000BB691D4A93420BD0BB691C4A934207D02B
:10541000BB69002B04D041F6C301154819F0FCF814
:10542000FB681B685A68BB695B0D03F48061144B11
:105430000B43DB4302EA03017B89C3F309027B7A56
:105440001B0403F47F031A437B681A43BB691A43A6
:10545000FB681B680A435A6000BF1037BD4680BD19
:105460000054004000580040005C004000600040D4
:10547000D0690208004000800024008000200080E5
:10548000FF63FF0380B582B000AF786039607B684E
:105490001B68324A934212D07B681B68304A9342A1
:1054A0000DD07B681B682F4A934208D07B681B682D
:1054B0002D4A934203D05F212C4819F0ADF83B6888
:1054C000002B07D03B68B3F5805F03D060212748ED
:1054D00019F0A2F87B6893F84130DBB2202B38D169
:1054E0007B6893F84030012B01D1022332E07B68C6
:1054F000012283F840207B68242283F841207B68C6
:105500001B681A687B681B6822F001021A607B68BE
:105510001B681A687B681B6822F480521A607B68DB
:105520001B6819687B681B683A680A431A607B68C5
:105530001B681A687B681B6842F001021A607B686E
:10554000202283F841207B68002283F8402000233A
:1055500000E0022318460837BD4680BD00540040D5
:1055600000580040005C004000600040086A0208EB
:1055700080B584B000AF786039607B681B68314AC1
:10558000934212D07B681B682F4A93420DD07B68F0
:105590001B682E4A934208D07B681B682C4A9342B2
:1055A00003D08D212B4819F037F83B680F2B03D916
:1055B0008E21284819F030F87B6893F84130DBB22F
:1055C000202B39D17B6893F84030012B01D1022385
:1055D00033E07B68012283F840207B68242283F833
:1055E00041207B681B681A687B681B6822F00102F7
:1055F0001A607B681B681B68FB60FB6823F47063A0
:10560000FB603B681B02FA681343FB607B681B6806
:10561000FA681A607B681B681A687B681B6842F02E
:1056200001021A607B68202283F841207B680022F7
:1056300083F84020002300E0022318461037BD46BF
:1056400080BD00BF0054004000580040005C004096
:1056500000600040086A020880B584B000AF78603E
:105660007B68002B01D101234BE17B681B68974AC3
:10567000934203D0CA21964818F0CEFF7B685B693D
:10568000B3F5805F03D3CB21914818F0C5FF7B6849
:105690009B69B3F5006F03D3CC218D4818F0BCFF94
:1056A0007B68DB69B3F5805F03D3CD21884818F0B0
:1056B000B3FF7B681B6AB3F5006F03D3CE21844828
:1056C00018F0AAFF7B689B6AB3F5006F03D3CF2164
:1056D0007F4818F0A1FF7B685B6AB3F5805F03D356
:1056E000D0217B4818F098FF7B681B6BB3F5006FE7
:1056F00003D3D121764818F08FFF7B68DB6AB3F5BE
:10570000805F03D3D221724818F086FF7B685B6804
:10571000002B08D07B685B68B3F1004F03D0D32126
:105720006B4818F079FF7B689B68002B08D07B687A
:105730009B68B3F1804F03D0D421654818F06CFF0B
:105740007B68DB68002B08D07B68DB68B3F1005F07
:1057500003D0D5215E4818F05FFF7B681B69002BE2
:1057600008D07B681B69B3F1805F03D0D62158480D
:1057700018F052FF7B6893F8A130DBB2002B06D102
:105780007B68002283F8A020786818F0F7F87B681F
:10579000022283F8A1207B681B689A697B681B68DA
:1057A00022F070429A617B681B6899697B685A682D
:1057B0007B689B681A437B68DB681A437B681B69BC
:1057C0001A437B681B680A439A617B681B68996867
:1057D0007B681A683F4B0B4093607B685B691B04D6
:1057E000FB607B681B6899687B689A69FB681A4351
:1057F0007B681B680A439A607B681B68D9687B6872
:105800001A68344B0B40D3607B68DB691B04FB6078
:105810007B681B68D9687B681A6AFB681A437B68D7
:105820001B680A43DA607B681B6819697B681A6821
:10583000284B0B4013617B685B6A1B04FB607B6831
:105840001B6819697B689A6AFB681A437B681B6846
:105850000A431A617B681B6859697B681A681D4B8B
:105860000B4053617B68DB6A1B04FB607B681B6831
:1058700059697B681A6BFB681A437B681B680A438B
:105880005A617B6893F835301B02FB607B6893F8A4
:1058900036301B04BB607B681B68DA6A7B681B6858
:1058A00002F07F42DA627B681B68D96ABA68FB68DB
:1058B00013437A6892F834201A437B681B680A43C2
:1058C000DA627B681B685A6B7B6805E00068014000
:1058D000446A020800F800F01B6842F006025A63AE
:1058E0007B681B689A697B681B6842F001029A61B9
:1058F0007B680022C3F8A4207B68012283F8A120E2
:10590000002318461037BD4680BD00BFB0B584B037
:1059100000AFF860B9607A607B68012B04D940F26F
:10592000FE21654818F078FEBB681B68B3F5805F00
:1059300004D340F2FF21604818F06EFEBB685B683C
:10594000B3F5803F04D34FF440715B4818F064FE18
:10595000BB689B68B3F5805F04D340F201315648C1
:1059600018F05AFEBB68DB68B3F5803F04D340F201
:105970000231514818F050FEBB681B69002B20D043
:10598000BB681B69012B1CD0BB681B69022B18D09C
:10599000BB681B69032B14D0BB681B69042B10D098
:1059A000BB681B69052B0CD0BB681B69062B08D094
:1059B000BB681B69072B04D040F203313E4818F046
:1059C0002BFEBB685B69FF2B04D94FF441713A4849
:1059D00018F022FEBB689B69FF2B04D940F2053109
:1059E000354818F019FEBB68DB69B3F5806F09D044
:1059F000BB68DB69B3F5C06F04D040F206312E48B6
:105A000018F00AFEBB681B6A052B08D0BB681B6A2E
:105A1000072B04D040F20731274818F0FDFDBB6882
:105A20009B6AB3F5005F04D34FF44271224818F02B
:105A3000F3FDBB68DB6AB3F5006F04D340F20931B4
:105A40001D4818F0E9FDFB6893F8A030012B01D147
:105A500002232CE0FB68012283F8A020FB680222CD
:105A600083F8A120FA687B68342101FB03F3134417
:105A700003F13802BB6814461D460FCD0FC40FCD8D
:105A80000FC40FCD0FC42B6823607A68B968F8681B
:105A900000F0D2F8FB681B6801225A62FB68012201
:105AA00083F8A120FB68002283F8A0200023184679
:105AB0001037BD46B0BD00BF446A020880B586B04D
:105AC00000AFF860B9607A607B68012B04D940F2BE
:105AD0001151194818F0A0FDFB6893F8A030012B74
