:020000040800F2
:1000000000000520B5FF010831D4010835D40108EE
:1000100039D401083DD4010841D401080000000092
:1000200000000000000000000000000045D40108AE
:1000300049D40108000000004DD4010851D4010842
:100040000500020805000208050002080500020874
:10005000050002080500020855D401080500020841
:1000600079D401080500020805000208050002080D
:100070000500020805000208050002080500020844
:100080000500020805000208050002080500020834
:100090000500020805000208050002080500020824
:1000A00081D40108050002080500020805000208C5
:1000B0000500020805000208DDD401080500020859
:1000C00005000208050002080500020805000208F4
:1000D0001DD50108050002080500020805000208F8
:1000E00029D50108050002080500020805000208DC
:1000F00091D9010805000208050002080500020860
:100100000500020805000208C9D901080500020817
:10011000050002080500020875DA0108A5DA0108E1
:100120000500020805000208050002080500020893
:10013000C1DA0108050002080500020805000208EE
:10014000050002080500020805000208CDDA0108D2
:100150000500020805000208050002080500020863
:100160000500020805000208050002080500020853
:1001700005000208D9DA01080500020800000000A5
:100180000500020805000208050002080500020833
:100190000500020805000208050002080500020823
:1001A0000500020805000208050002080500020813
:1001B0000500020805000208050002080500020803
:0801C000050002080500020819
:1001D00010B5054C237833B9044B13B10448AFF381
:1001E00000800123237010BD1001002000000000DA
:1001F000C014020808B5034B1BB103490348AFF311
:10020000008008BD0000000014010020C014020896
:1002100010F8012B11F8013B012A28BF9A42F7D0B0
:10022000D01A70470000000000000000000000002D
:1002300001F0FF01102A2BDB10F0070F08D010F897
:10024000013B013A8B422DD010F0070F42B3F6D19B
:10025000F0B441EA012141EA014122F007047FF0B4
:1002600000070023F0E80256083C85EA010586EA0B
:10027000010685FA47F5A3FA87F586FA47F6A5FA47
:1002800087F68EB9EED1F0BC01F0FF0102F0070253
:1002900032B110F8013B013A83EA010313B1F8D1FE
:1002A0000020704701387047002D06BF35460338DF
:1002B000073815F0010F07D1013015F4807F02BF18
:1002C000013015F4C03F0130F0BC0138704700BF69
:1002D00070B54FF0FF0C4CF4E06C1CEA11541DBFDC
:1002E0001CEA135594EA0C0F95EA0C0F00F0DEF8A7
:1002F0002C4481EA030621EA4C5123EA4C5350EA8C
:10030000013518BF52EA033541F4801143F48013DC
:1003100038D0A0FB02CE4FF00005E1FB02E506F06D
:100320000042E0FB03E54FF00006E1FB03569CF0C2
:10033000000F18BF4EF0010EA4F1FF04B6F5007FC8
:1003400064F5407404D25FEA4E0E6D4146EB06063A
:1003500042EAC62141EA55514FEAC52040EA5E50C3
:100360004FEACE2EB4F1FD0C88BFBCF5E06F1ED86D
:10037000BEF1004F08BF5FEA500E50F1000041EBA4
:10038000045170BD06F0004646EA010140EA020051
:1003900081EA0301B4EB5C04C2BFD4EB0C0541EA73
:1003A000045170BD41F480114FF0000E013C00F388
:1003B000AB8014F1360FDEBF002001F0004170BDAC
:1003C000C4F10004203C35DA0C341BDC04F11404C5
:1003D000C4F1200500FA05F320FA04F001FA05F251
:1003E00040EA020001F0004221F0004110EBD3701E
:1003F00021FA04F642EB06015EEA430E08BF20EA4A
:10040000D37070BDC4F10C04C4F1200500FA04F3EC
:1004100020FA05F001FA04F240EA020001F000417E
:1004200010EBD37041F100015EEA430E08BF20EAF1
:10043000D37070BDC4F1200500FA05F24EEA020E39
:1004400020FA04F301FA05F243EA020321FA04F068
:1004500001F0004121FA04F220EA020000EBD3701F
:100460005EEA430E08BF20EAD37070BD94F0000F1F
:100470000FD101F00046400041EB010111F4801F53
:1004800008BF013CF7D041EA060195F0000F18BF04
:10049000704703F00046520043EB030313F4801F40
:1004A00008BF013DF7D043EA0603704794EA0C0FFA
:1004B0000CEA135518BF95EA0C0F0CD050EA410610
:1004C00018BF52EA4306D1D181EA030101F000418D
:1004D0004FF0000070BD50EA410606BF10461946B5
:1004E00052EA430619D094EA0C0F02D150EA0136C1
:1004F00013D195EA0C0F05D152EA03361CBF104602
:1005000019460AD181EA030101F0004141F0FE41A0
:1005100041F470014FF0000070BD41F0FE4141F424
:10052000780170BD81F0004102E000BF83F000431C
:1005300030B54FEA41044FEA430594EA050F08BF7E
:1005400090EA020F1FBF54EA000C55EA020C7FEA42
:10055000645C7FEA655C00F0E2804FEA5454D4EBBF
:100560005555B8BF6D420CDD2C4480EA020281EA89
:10057000030382EA000083EA010180EA020281EAC1
:100580000303362D88BF30BD11F0004F4FEA013113
:100590004FF4801C4CEA113102D0404261EB410122
:1005A00013F0004F4FEA03334CEA133302D05242A8
:1005B00063EB430394EA050F00F0A780A4F1010464
:1005C000D5F1200E0DDB02FA0EFC22FA05F280189E
:1005D00041F1000103FA0EF2801843FA05F3594184
:1005E0000EE0A5F120050EF1200E012A03FA0EFC03
:1005F00028BF4CF0020C43FA05F3C01851EBE3712D
:1006000001F0004507D54FF0000EDCF1000C7EEB49
:1006100000006EEB0101B1F5801F1BD3B1F5001F87
:100620000CD349085FEA30004FEA3C0C04F10104A6
:100630004FEA445212F5800F80F09A80BCF1004FCF
:1006400008BF5FEA500C50F1000041EB045141EA51
:10065000050130BD5FEA4C0C404141EB0101013C1A
:1006600028BFB1F5801FE9D291F0000F04BF014609
:100670000020B1FA81F308BF2033A3F10B03B3F1DB
:1006800020020CDA0C3208DD02F1140CC2F10C026B
:1006900001FA0CF021FA02F10CE002F11402D8BFC9
:1006A000C2F1200C01FA02F120FA0CFCDCBF41EA95
:1006B0000C019040E41AA2BF01EB0451294330BD64
:1006C0006FEA04041F3C1CDA0C340EDC04F1140441
:1006D000C4F1200220FA04F001FA02F340EA030018
:1006E00021FA04F345EA030130BDC4F10C04C4F15E
:1006F000200220FA02F001FA04F340EA030029463E
:1007000030BD21FA04F0294630BD94F0000F83F487
:10071000801306BF81F480110134013D4EE77FEA6A
:10072000645C18BF7FEA655C29D094EA050F08BFB6
:1007300090EA020F05D054EA000C04BF1946104697
:1007400030BD91EA030F1EBF0021002030BD5FEADB
:10075000545C05D14000494128BF41F0004130BD03
:1007600014F580043CBF01F5801130BD01F0004557
:1007700045F0FE4141F470014FF0000030BD7FEACA
:10078000645C1ABF194610467FEA655C1CBF0B46C5
:10079000024650EA013406BF52EA033591EA030FDC
:1007A00041F4002130BD00BF90F0000F04BF0021D4
:1007B000704730B54FF4806404F132044FF0000507
:1007C0004FF0000150E700BF90F0000F04BF002180
:1007D000704730B54FF4806404F1320410F00045E6
:1007E00048BF40424FF000013EE700BF42004FEAE1
:1007F000E2014FEA31014FEA02701FBF12F07F435E
:1008000093F07F4F81F06051704732F07F4208BF14
:10081000704793F07F4F04BF41F40021704730B51B
:100820004FF4607401F0004521F000411CE700BF67
:1008300050EA010208BF704730B54FF000050AE0EA
:1008400050EA010208BF704730B511F0004502D5EB
:10085000404261EB41014FF4806404F132045FEAED
:10086000915C3FF4D8AE4FF003025FEADC0C18BF96
:1008700003325FEADC0C18BF033202EBDC02C2F188
:10088000200300FA03FC20FA02F001FA03FE40EA1A
:100890000E0021FA02F11444BDE600BF4FF0FF3C08
:1008A00006E000BF4FF0010C02E000BF4FF0010C6A
:1008B0004DF804CD4FEA410C7FEA6C5C4FEA430CE3
:1008C00018BF7FEA6C5C1BD001B050EA410C0CBF32
:1008D00052EA430C91EA030F02BF90EA020F002094
:1008E000704710F1000F91EA030F58BF994208BFFB
:1008F00090422CBFD8176FEAE37040F001007047B8
:100900004FEA410C7FEA6C5C02D150EA013C07D10E
:100910004FEA430C7FEA6C5CD6D152EA033CD3D059
:100920005DF8040B704700BF8446104662468C4653
:100930001946634600E000BF01B5FFF7B7FF002886
:1009400048BF10F1000F01BD4DF808EDFFF7F4FFAF
:100950000CBF012000205DF808FB00BF4DF808ED3A
:10096000FFF7EAFF34BF012000205DF808FB00BF5D
:100970004DF808EDFFF7E0FF94BF012000205DF87F
:1009800008FB00BF4DF808EDFFF7CEFF94BF012034
:1009900000205DF808FB00BF4DF808EDFFF7C4FF2D
:1009A00034BF012000205DF808FB00BF4A0011D2CF
:1009B00012F5001211D20DD56FF47873B3EB6252B9
:1009C0000ED44FEAC12343F0004343EA505323FAC5
:1009D00002F070474FF00000704750EA013002D13A
:1009E0004FF0FF3070474FF0000070474FEA410270
:1009F000B2F1E04324BFB3F5001CDCF1FE5C0DD97D
:100A000001F0004C4FEAC0024CEA5070B2F1004FC6
:100A100040EB830008BF20F00100704711F0804FC9
:100A200021D113F13872BCBF01F00040704741F48E
:100A300080114FEA5252C2F11802C2F1200C10FA92
:100A40000CF320FA02F018BF40F001004FEAC12376
:100A50004FEAD32303FA0CFC40EA0C0023FA02F31A
:100A60004FEA4303CCE77FEA625307D150EA0133F0
:100A70001EBF4FF0FE4040F44000704701F00040C0
:100A800040F0FE4040F40000704700BF80F000409E
:100A900002E000BF81F0004142001FBF5FEA410356
:100AA00092EA030F7FEA226C7FEA236C6AD04FEA56
:100AB0001262D2EB1363C1BFD2184140484041409B
:100AC000B8BF5B42192B88BF704710F0004F40F44D
:100AD000000020F07F4018BF404211F0004F41F469
:100AE000000121F07F4118BF494292EA030F3FD035
:100AF000A2F1010241FA03FC10EB0C00C3F1200348
:100B000001FA03F100F0004302D5494260EB4000D6
:100B1000B0F5000F13D3B0F1807F06D340084FEA41
:100B2000310102F10102FE2A51D2B1F1004F40EB36
:100B3000C25008BF20F0010040EA0300704749009E
:100B400040EB0000013A28BFB0F5000FEDD2B0FA3B
:100B500080FCACF1080CB2EB0C0200FA0CF0AABF5E
:100B600000EBC25052421843BCBFD04018437047FC
:100B700092F0000F81F4000106BF80F40000013202
:100B8000013BB5E74FEA41037FEA226C18BF7FEAD9
:100B9000236C21D092EA030F04D092F0000F08BF1B
:100BA0000846704790EA010F1CBF0020704712F002
:100BB0007F4F04D1400028BF40F00040704712F141
:100BC00000723CBF00F50000704700F0004343F0A6
:100BD000FE4040F4000070477FEA226216BF0846DC
:100BE0007FEA23630146420206BF5FEA412390EA9F
:100BF000010F40F4800070474FF0000304E000BF95
:100C000010F0004348BF40425FEA000C08BF704745
:100C100043F0964301464FF000001CE050EA010209
:100C200008BF70474FF000030AE000BF50EA01021E
:100C300008BF704711F0004302D5404261EB41010B
:100C40005FEA010C02BF84460146002043F0B64330
:100C500008BFA3F18053A3F50003BCFA8CF2083A55
:100C6000A3EBC25310DB01FA02FC634400FA02FC5E
:100C7000C2F12002BCF1004F20FA02F243EB020065
:100C800008BF20F00100704702F1200201FA02FCC7
:100C9000C2F1200250EA4C0021FA02F243EB0200BA
:100CA00008BF20EADC70704753B94AB9002908BF71
:100CB00000281CBF4FF0FF314FF0FF3000F094B917
:100CC000ADF1080C6DE904CE00F026F8DDF804E083
:100CD000DDE9022304B07047D0B5FFF787FD0C4B68
:100CE000002206460F46FFF7F3FAFFF75FFE0446C1
:100CF000FFF75AFD074B0022FFF7EAFA02460B46C0
:100D000030463946FFF712FCFFF750FE2146D0BDB2
:100D10000000F03D0000F0412DE9F047089D044639
:100D20008E46002B4DD18A42944669D9B2FA82F29E
:100D300052B101FA02F3C2F1200120FA01F10CFADA
:100D400002FC41EA030E94404FEA1C48210CBEFB12
:100D5000F8F61FFA8CF708FB16E341EA034306FB9B
:100D600007F199420AD91CEB030306F1FF3080F02A
:100D70001F81994240F21C81023E63445B1AA4B277
:100D8000B3FBF8F008FB103344EA034400FB07F719
:100D9000A7420AD91CEB040400F1FF3380F00A815A
:100DA000A74240F207816444023840EA0640E41B4F
:100DB00000261DB1D4400023C5E900433146BDE8FB
:100DC000F0878B4209D9002D00F0EF800026C5E99D
:100DD000000130463146BDE8F087B3FA83F6002EB5
:100DE0004AD18B4202D3824200F2F980841A61EB2D
:100DF000030301209E46002DE0D0C5E9004EDDE74B
:100E000002B9FFDEB2FA82F2002A40F09280A1EB32
:100E10000C014FEA1C471FFA8CFE0126200CB1FB87
:100E2000F7F307FB131140EA01410EFB03F0884280
:100E300008D91CEB010103F1FF3802D2884200F20D
:100E4000CB804346091AA4B2B1FBF7F007FB10119F
:100E500044EA01440EFB00FEA64508D91CEB04043D
:100E600000F1FF3102D2A64500F2BB800846A4EB98
:100E70000E0440EA03409CE7C6F12007B34022FA83
:100E800007FC4CEA030C20FA07F401FA06F31C43B2
:100E9000F9404FEA1C4900FA06F3B1FBF9F8200CBF
:100EA0001FFA8CFE09FB181140EA014108FB0EF005
:100EB000884202FA06F20BD91CEB010108F1FF3A55
:100EC00080F08880884240F28580A8F10208614461
:100ED000091AA4B2B1FBF9F009FB101144EA01416F
:100EE00000FB0EFE8E4508D91CEB010100F1FF341A
:100EF0006CD28E456AD90238614440EA0840A0FBB2
:100F00000294A1EB0E01A142C846A64656D353D087
:100F10005DB1B3EB080261EB0E0101FA07F722FAAB
:100F200006F3F1401F43C5E9007100263146BDE8D4
:100F3000F087C2F12003D8400CFA02FC21FA03F337
:100F4000914001434FEA1C471FFA8CFEB3FBF7F0B8
:100F500007FB10360B0C43EA064300FB0EF69E42DD
:100F600004FA02F408D91CEB030300F1FF382FD276
:100F70009E422DD9023863449B1B89B2B3FBF7F61E
:100F800007FB163341EA034106FB0EF38B4208D9F7
:100F90001CEB010106F1FF3816D28B4214D9023E38
:100FA0006144C91A46EA004638E72E46284605E756
:100FB0000646E3E61846F8E64B45A9D2B9EB020827
:100FC00064EB0C0E0138A3E74646EAE7204694E7B7
:100FD0004046D1E7D0467BE7023B614432E73046EA
:100FE00009E76444023842E7704700BF0E494FF4F6
:100FF0007A730E4A10B5097804461268B3FBF1F310
:10100000B2FBF3F000F0E2F808B90F2C01D901208F
:1010100010BD002221464FF0FF3000F05FF8044B76
:1010200000201C6010BD00BF0000002078000020E0
:1010300004000020074A032008B5136843F48073B6
:10104000136000F02DF80020FFF7D0FF1CF0D8F956
:10105000002008BD003C0240034A044B11681B7885
:101060000B441360704700BF2C01002000000020DB
:10107000014B1868704700BF2C01002038B50446AA
:10108000FFF7F6FF0546631C02D0044B1B781C4497
:10109000FFF7EEFF431BA342FAD338BD0000002048
:1010A000C31E042B10B504460CD8094924024FF680
:1010B000FF00084BCA6804F4E06402401443234371
:1010C000CB6010BD9221044819F0ECFEEDE700BFA3
:1010D00000ED00E00000FA05E01402080F2A70B5E8
:1010E000164605460C4636D80F2C2FD81C4BDB680D
:1010F000C3F30223C3F107001A1D042828BF0420EC
:10110000062A18D9033B4FF0FF329A4026EA02061E
:101110004FF0FF31002D01FA00F124EA010404FA36
:1011200003F444EA060409DB24010E4BE4B22B4429
:1011300083F8004370BD00263346E9E705F00F054C
:101140002401094BE4B22B441C7670BDAB21074847
:1011500019F0A8FECAE7AA21044819F0A3FEC3E7C4
:1011600000ED00E000E100E0FCEC00E0E01402082B
:10117000002808DB00F01F0101234009044A8B40CE
:1011800042F820307047BE21024819F08BBE00BFE4
:1011900000E100E0E014020800280EDB4309012210
:1011A00000F01F000749203302FA00F041F8230045
:1011B000BFF34F8FBFF36F8F7047CE21024819F0F6
:1011C00071BE00BF00E100E0E0140208431EB3F16D
:1011D000807F0CD24FF0E022002006494FF0F00C47
:1011E0005361072381F823C0906113617047012088
:1011F000704700BF00ED00E0BFF35F8F044B00219C
:101200005A6A22F480325A62C3F89410704700BFC1
:1012100000ED00E0064B40F00100C3F894005A6A6C
:1012200042F480325A62BFF34F8FBFF36F8F704723
:1012300000ED00E010B543780446072B74D82378FE
:10124000012B05D94FF498714C4819F02BFE2378E7
:1012500061784B4AC2F89810002B3BD0237B012BBE
:101260003DD8E37A5A1F012A01D9032B72D8A37AF9
:10127000022B5FD8637B012B4DD8A37B012B41D878
:10128000E37B012B35D8637AFF2B6CD0227A131FB6
:101290001B2B58D863683A49C1F89C30E37A207B0D
:1012A0001B0694F80FC043EA007320780343A07A2A
:1012B00043EAC043607B43EA8043A07B43EA404368
:1012C000607A43EA0C4343EA002343EA4203C1F84D
:1012D000A03010BDC2F89C30C2F8A03010BD4FF451
:1012E0009C71264819F0DEFDE37A5A1F012ABCD80A
:1012F000BDE740F23D11214819F0D4FD637AFF2B80
:10130000C4D130E04FF49E711C4819F0CBFDE37B53
:10131000012BB8D9EDE740F23B11184819F0C2FD96
:10132000A37B012BACD9EDE740F22F11134819F044
:10133000B9FD84E74FF49D71104819F0B3FD637B4C
:10134000012B9AD9E7E740F23F110C4819F0AAFDAA
:10135000227A9FE740F23911084819F0A3FDA37AD9
:10136000022B87D9E6E74FF49F71044819F09AFDE4
:10137000227A131F1B2B8DD9E5E700BFE01402086A
:1013800000ED00E038B50446FFF772FE002C00F0D7
:10139000358122680546AD4BAD499A4218BF8A4255
:1013A00001F1180114BF012300238A420CBF00235E
:1013B00003F0010318318A420CBF002303F001033C
:1013C00018318A420CBF002303F0010318318A420E
:1013D0000CBF002303F0010318318A420CBF002325
:1013E00003F0010318318A420CBF002303F001030C
:1013F00001F556718A420CBF002303F00103183136
:101400008A420CBF002303F0010318318A420CBF4B
:10141000002303F0010318318A420CBF002303F0BC
:10142000010318318A420CBF002303F00103183175
:101430008A420CBF002303F0010318318A420CBF1B
:10144000002303F001031BB1824B9A4240F01F813D
:10145000636823F0C063B3F1006F02D0002B40F04B
:101460001181A36833F0400202D0802B40F0A880A5
:10147000E36833F4007340F0AC80236933F4806395
:1014800040F0B080636933F4006203D0B3F5805F4D
:1014900040F09180A36933F4005203D0B3F5804F3C
:1014A00040F08480E36933F0200202D0B3F5807FFE
:1014B0006FD1236A33F4403373D1636A33F004028B
:1014C0005FD1002B4DD123680222002184F8352002
:1014D00084F834101A6822F001021A6006E0FFF75F
:1014E000C7FD401B052800F2828023681A68D107D7
:1014F000F5D4D4E90125E1682A43A0691D680A43AF
:1015000021690A4361690A43E16902430A43524976
:101510002940256A2A430A43616A042970D01A6067
:101520005A6922F007021143DAB259614B49103A65
:101530004B48A1FB02515F2A4A4A4FEA111102EAC5
:1015400003024FF03F03415C4FF0000088BF0432BC
:101550008B40E165A26593600123606584F83530B6
:1015600038BDA36A032B6CD8E36A33F0C0737DD116
:10157000236B33F4C003A6D0C9213B4819F092FC79
:10158000A1E7C221384819F08DFC636A002B9AD07C
:10159000E7E7C021344819F085FC236A33F440336F
:1015A0008BD0C121304819F07DFC86E7BF212E4841
:1015B00019F078FC76E7BE212B4819F073FC69E737
:1015C000BB21294819F06EFCE36833F400733FF443
:1015D00054AFBC21244819F065FC236933F48063BF
:1015E0003FF450AFBD21204819F05CFC4AE70323CB
:1015F00020221846626584F8353038BD012038BD98
:10160000D4E90B5129430A431A605969A26A21F0AF
:101610000701114341F00401002D85D058B3B0F506
:10162000005F3ED0022A05D9032A7FF47DAFEA018C
:101630007FF57AAF012340221846626584F8353081
:1016400038BDC721084819F02DFC8DE71060024015
:1016500028600240B86402403F8010F0ABAAAAAAFA
:101660005415020800FCFFFF1C150208C82114488D
:1016700019F018FC7CE7012A0ED032F002027FF448
:1016800053AFD4E7BA210E4819F00CFCE9E6B921B2
:101690000B4819F007FCDBE6B5F1C07F7FF444AFDF
:1016A000C8E7032A3FF640AF01A050F822F000BF80
:1016B000351600082F160008351600089916000880
:1016C0001C1502082DE9F8431E460446D0F8589030
:1016D000581E4FF6FE738846174698423BD894F83A
:1016E0003430012B40D0012384F8343094F8353065
:1016F000012B05D00023022084F83430BDE8F883A4
:101700000223256884F83530002363652B6823F4B1
:1017100080232B60A3686E60402B28D0C5F808801A
:10172000EF60E16D3F23226C8B40C9F808302B68D5
:1017300043F016032B606B6943F080036B611AB1B1
:101740002B6843F008032B602B68002043F0010353
:101750002B60BDE8F88340F2CD11074819F0A2FBD9
:1017600094F83430012BBED10220BDE8F883AF607D
:10177000C5F80C80D5E700BF1C15020870B50446FB
:10178000866DFFF775FC94F83530022B06D0802269
:1017900000230120626584F8343070BD236805465B
:1017A0001A6822F016021A605A6922F080025A6101
:1017B000226C3AB31A6822F008021A601A6822F002
:1017C00001021A6005E0FFF753FC431B052B0FD8FD
:1017D00023681B6813F00103F5D1E16D3F22184621
:1017E0008A400121B26084F8343084F8351070BD2D
:1017F0000323202100226165184684F8342084F8F0
:10180000353070BDA26C002AD4D1D7E790F83520CE
:101810000346022A03D0802201205A6570470268DD
:101820000521002083F83510136823F001031360AD
:10183000704700BF2DE9F0410022744B82B0804612
:101840001D6801920822D0E9166334689A4022424A
:1018500004D001680F68780700F1AB8001229A403C
:10186000224205D0D8F800104969090600F1998094
:1018700004229A40224205D0D8F8001009688F0748
:1018800000F1878010229A40224204D0D8F800103C
:101890000F68380768D420229A40224217D0D8F81F
:1018A00000100C68E00612D5B26098F83520052AC1
:1018B00039D00B6813F4802F0B6800F08D8019036A
:1018C00040F19880D8F83C300BB140469847D8F8A2
:1018D0005430002B45D0D8F85430DA071BD5D8F84F
:1018E000002005234A4988F835301368A1FB051507
:1018F00023F00103AD0A136002E01368DB0704D58F
:10190000019B0133AB420193F7D90022012388F8F0
:10191000342088F83530D8F84C3013B3404602B044
:10192000BDE8F04118470A6822F016020A604A69C9
:1019300022F080024A61D8F84020002A60D00A686C
:1019400022F008020A603F22002102FA03F301227A
:10195000B360D8F8503088F8341088F83520002B60
:10196000DCD102B0BDE8F081B2600A6812F4802FC9
:101970000A682AD1D70503D40A6822F008020A604F
:10198000D8F84020002A86D040469047D8F85C30EE
:1019900081E7B260D8F8542042F00402C8F854201D
:1019A00070E7B260D8F8542042F00202C8F8542020
:1019B0005EE70F6827F004070F60B260D8F8542084
:1019C00042F00102C8F8542048E71203D8D5D8F8ED
:1019D0004820002AD8D15EE713F480737FF472AFF9
:1019E0000A6822F010020A60012288F8343088F870
:1019F000352067E7D8F84430002B7FF466AF66E700
:101A0000D8F84820002A9AD19DE700BF780000202E
:101A1000B5814E1B002845D0026838B5254B0446D9
:101A20009A4203D0F621244819F03CFA636833F453
:101A3000403339D1A368042B2FD8E368B3F5804F26
:101A400026D294F8393003F0FF02DBB1236802217B
:101A500084F839101868D4E9012520F44030104387
:101A6000164A18600020596B21F007012943E568E8
:101A70005963196C0A402A431A640123E06384F80D
:101A8000393038BD204684F8382018F09FF8DDE75B
:101A9000F921094819F006FAD3E7F821064819F0A8
:101AA00001FACAE701207047F721034819F0FAF953
:101AB000C0E700BF00B002405C15020800C0FFFF95
:101AC0002DE9F843DDF8209004460F469046B9F51D
:101AD000803F1E4623D2B6F5804F28D294F8383086
:101AE000012B2DD00123256884F83830022384F897
:101AF0003930686C636800F04040B3F5403F40EA1D
:101B0000090040EA06406864C5F83C801BD0EF60DD
:101B10002B68002043F001032B60BDE8F8834FF4ED
:101B20002971214819F0BEF9B6F5804FD6D340F29D
:101B3000A5211D4819F0B6F994F83830012BD1D100
:101B40000220BDE8F883A368B3B1012B21D0022B9A
:101B500007F47F0207F47F44F8B21DD0032B07F08F
:101B60007F470BD0130D240B1B023F0F43EA0413D6
:101B700043EA101343EA0737AF63C9E7D20CE40A1C
:101B80009302FF0F43EA441343EAD00343EAC73703
:101B9000F2E727F07F47EFE7D70CA40AFF0247EAF6
:101BA000441747EAD007E7E75C15020870B5002341
:101BB00082B004460D46019303681A68D6070FD415
:101BC000DA69596A0A43910632D4002212200121AF
:101BD0009860104684F8391084F8382002B070BD3F
:101BE000FFF746FA06466A1C236847D15A689607EB
:101BF000E6D45A680192019A12F0210FF6D0019AA8
:101C0000900603D5E26B42F00202E263019AD1072B
:101C100003D5E26B42F00102E263212098600421C7
:101C20000022012084F8391084F8382002B070BDF9
:101C3000FFF71EFA0646681C23683BD15A68D10696
:101C4000C3D45A680192019A12F0290FF6D0019A72
:101C5000120703D5E26B42F00402E263019A960692
:101C600003D5E26B42F00202E263019AD50703D585
:101C7000E26B42F00102E2632920CFE75A68900745
:101C80009ED45A680192019A12F0210FB7D1FFF742
:101C9000EFF9801BA84201D8002DA4D1E36B0322E9
:101CA000002143F02003104684F83810E36384F8E1
:101CB000392093E75A68D20687D45A680192019A6C
:101CC00012F0290FC3D1FFF7D3F9801BA842E5D842
:101CD000002DB0D1E2E700BF012970B50D460446E2
:101CE00004D940F24A613F4819F0DCF804EB0512D0
:101CF0002E019369B3F5804F61D26268B2F5403F1F
:101D000004D0A319DB690A2B3FD82ABB94F83830DA
:101D1000012B2FD0A3190121022284F8381084F856
:101D20003920D3E9071241EA024209390129596AE7
:101D300034D942EA0162FDB121689869CD692A4B24
:101D40002B401A43CA61086100230122184684F817
:101D5000392084F8383070BD04EB05131B6A022B60
:101D6000D4D940F251611F4819F09CF894F83830EA
:101D7000012BCFD1022070BD21681B4B4D6AA06999
:101D80002B401A434A628861DEE740F24E611548F3
:101D900019F088F86268002AB8D0DDE701F07F40CA
:101DA000024395B92168104B4E6A606A3340A569B9
:101DB00020F07F401A434A628D618862C4E740F296
:101DC0004B61084819F06EF897E7206821F07F41D1
:101DD0009D69C669044B33401A43C26105610162C3
:101DE000B2E700BF5C150208F0FFFC00B54BB64A35
:101DF000904218BF98422DE9F04F18BF012385B0DB
:101E000008BF002306468846019326D0AF4B984270
:101E100023D003F5806398421FD003F58063984276
:101E20001BD003F58063984217D003F58063984276
:101E300013D003F5806398420FD002F5005203F5EA
:101E40000063904218BF984207D003F58063984220
:101E500003D0B1219E4819F025F8B8F80030002BC6
:101E600000F00C81D8F804209A4B9B4822F4001112
:101E70009A4218BF032A8CBF0123002382420CBF61
:101E8000002303F00103113A012A94BF002303F059
:101E90000103924A91420CBF002303F001031BB1DE
:101EA0008F4B994240F03281D8F80830022B00F273
:101EB000EA800024DFF850B203E00134102C00F077
:101EC000BC800125D8F80030A54005EA030A35EAB0
:101ED0000303F2D1D8F8043023F01000022814D103
:101EE000D8F810100F2900F2B980E70804F00702B3
:101EF0004FF00F0C920006EB870791400CFA02FCA2
:101F00003A6A22EA0C020A433A624FEA440903277A
:101F10003168013807FA09F7012821EA070C03F0B4
:101F200003016FEA070701FA09F141EA0C01316088
:101F300012D8D8F80C10032900F28280B06801FA98
:101F400009F138400143B160C3F300117068A1404A
:101F500020EA05050D437560F168DA0007EA01071C
:101F6000D8F8081001FA09F141EA0701F160A4D597
:101F7000DBF8441024F0030204F0030541F480412F
:101F8000AD00CBF84410DBF8441001F4804103911C
:101F90005449039811440F228868AA4020EA02029B
:101FA0004948864220D00198002852D047488642AE
:101FB0005FD04D4886426BD04C4886426DD04C482D
:101FC000864274D04B48864276D04B48864269D0D0
:101FD0004A48864200F09F80494886420CBF09204B
:101FE0000A2000FA05F52A438A60DF03454A6FEAB2
:101FF0000A01444804F10104126854BF0A404AEA45
:1020000002029D03026042683E4854BF0A404AEA09
:10201000020242608268D8023A4854BF0A404AEA43
:1020200002029B028260C26854BF11404AEA020168
:10203000344A102CD1607FF444AF05B0BDE8F08F76
:10204000D921234818F02EFFD8F80C10D8F8043006
:1020500074E7012000FA05F52A43C5E7C5211C48AD
:1020600018F020FFD8F80430D8F8101023F0100032
:102070003BE7022000FA05F52A43B5E7B2211448F0
:1020800018F010FFEEE6B421114818F00BFF10E72E
:10209000032000FA05F52A43A6E7042000FA05F517
:1020A0002A43A1E7072000FA05F52A439CE705200B
:1020B00000FA05F52A4397E7062000FA05F52A43BA
:1020C00092E700BF00040240000002400008024006
:1020D00098150208000021100000221000001110C5
:1020E0000000121000380140000C024000100240B5
:1020F0000014024000180240001C02400020024070
:1021000000240240003C014000380240B321044852
:1021100018F0C8FEC8E6082000FA05F52A4363E770
:102120009815020838B505460C4629B12B691C42A2
:1021300014BF0120002038BD4FF4BD71014818F0D4
:10214000B1FEF3E79815020870B506460C46154631
:1021500061B1012D03D805B92404B46170BD40F20A
:102160009B11054818F09EFEB46170BD4FF4CD710F
:10217000014818F097FEECE798150208704700BF79
:10218000044A5169014200D1704708B55061FFF718
:10219000F5FF08BD003C01402DE9F04F90F8F862D2
:1021A00085B00446012E9DF838509DF83C70BDF86E
:1021B000408026D04FF02C0C002602F07F0A4FF012
:1021C000010B0CFB010CD00984F8F8B28CF8383004
:1021D0008CF839108CF83AA08CF83B008CF83D60F4
:1021E0008CF83F708CF83C50ACF840800095CDE9FD
:1021F0000178206805F05EFC84F8F86205B0BDE85F
:10220000F08F022005B0BDE8F08F00BF90F8F832E3
:10221000012B0CD0012310B50446006884F8F83275
:1022200005F0C4FD0023184684F8F83210BD0220E2
:10223000704700BF00285FD02DE9F04104688AB0E4
:102240000646B4F1A04F02D02C4B9C4242D196F8E6
:10225000F93203F0FF02002B47D0204603236D46DE
:10226000371D86F8F932E36B344613F4807308BFE8
:10227000336105F02BFA54F810CB0FCC0FC50FCCFF
:102280000FC594E8030085E80300604697E80E0058
:1022900005F088F90121306805F020FAB446EE46D1
:1022A0005CF8108BBCE80F00AEE80F00BCE80F0034
:1022B000AEE80F0094E8030085E80300404697E885
:1022C0000E0005F0C9FA0123002086F8F9320AB0A1
:1022D000BDE8F08179210A4818F0E4FD96F8F9325A
:1022E000346803F0FF02002BB7D1304686F8F8229D
:1022F0001CF014FB3068B1E7012070470000044077
:10230000D41502088C462C2170B501FB0C019DF8F8
:102310001060059DBDF818409DF81CE081F83B2039
:1023200081F83F304EBB81F83DE04FF0030E2C2189
:1023300001FB0C0181F842E0032B09D8DFE803F030
:102340002C0220202C23002203FB0C0383F84220C4
:102350002C21002601FB0CF301FB0C01C218603399
:10236000383182F839C05564D4641665C652027C8F
:102370000068BDE8704005F051BC4FF0020ED6E792
:102380002C2303FB0C03CAB993F855100029DDD0A8
:10239000022283F84220DBE7012ED9D1002AD7D1CF
:1023A0002C2303FB0C038CB9012283F855202C232A
:1023B000022203FB0C0383F84220C9E793F8542060
:1023C000002AC3D0022283F84220C1E793F85520A7
:1023D000002ABBD0EBE700BF2DE9F04F056885B0C0
:1023E0000446284605F034FA012802D005B0BDE8BD
:1023F000F08F206805F020FA0028F7D0206805F05B
:102400001BFA10F4001F206802D04FF40013436140
:1024100005F012FA10F4801F206802D04FF48013E8
:10242000436105F009FA10F0806F206802D04FF088
:102430008063436105F000FA10F0020F206801D0BC
:102440000223436105F0F8F910F0005F206879D1AC
:1024500005F0F2F9C00100F1FB80206805F0ECF90D
:10246000010700F1EE80206805F0E6F9C206266853
:1024700000F12D81304605F0DFF98301B6D52068E3
:1024800005F090FCA2688146002A00F01B8100261E
:1024900005F5A0654FF02C0A30E0D4F80080F7B2C3
:1024A0004046394605F0CCF9410763D508F5A063ED
:1024B000042203EB47139A6007220AFB07433946BD
:1024C00083F86120206805F071FC3946206805F02A
:1024D000B7F910F4007F3946206863D008F5A0688A
:1024E00005F064FC4FF4007308EB4718C8F8083097
:1024F000A26801362035964280F0E48006F00F0392
:1025000029FA03F3DF07F4D52B681804C5D427682C
:102510005FFA86F83846414605F092F910F0040B50
:1025200079D007F5A06704230722414607EB481737
:10253000BB600AFB084383F86120206805F036FC85
:10254000A268D6E74FF000534361D5F84034DE0768
:102550003FF57EAF1021284605F0F6F8284605F035
:102560001DF90121206805F02BFA20461CF0D6FA4F
:1025700020686DE73946206805F062F9C20540F130
:10258000B88008F5A0634FF48072394603EB471317
:102590009A6008220AFB074383F86120206805F04F
:1025A00005FC92E705F04CF9C20740F1CC8008F534
:1025B000A06820232169780108EB471BCBF808307D
:1025C00051B1DBF810200AFB074CC2F31202DCF811
:1025D00048309B1ACCF850300AFB07430022DA65DA
:1025E000012283F86120CBF8082093F83F2012F0F5
:1025F000FD0200F0D980012A00F0278101290AFBA1
:10260000074700F0C88097F8543083F0010387F83B
:102610005430A2686DE74146206805F011F9810643
:102620007DD507F5A06720220AFB08F307EB4817C2
:10263000BA60E21892F83D10012900F01481A268F6
:1026400057E720461CF062FA2068082343610BE735
:102650002668D6F840340293D6F840340393039B9F
:1026600023F02E030393029B990707D5029BDA07F9
:1026700000F1BD80039B43F002030393029B1B0701
:1026800015D5039B43F008030393029B5F0740F1BA
:10269000AA80A169022900F0FF80E368012B03D121
:1026A0004EF66022C6F8042420461CF03BFA029B3A
:1026B000980603D5039B43F020030393039BC6F8BE
:1026C0004034CAE623684FF000725A618EE6B3695F
:1026D00023F01003B361376AC7F34341C7F30A120B
:1026E000022901D1002A68D1B36943F01003B36114
:1026F000C0E63946206805F0A3F8030733D508F58E
:10270000A0630822394603EB47139A6006220AFBAE
:10271000074383F86120206805F048FBD5E6414671
:10272000206805F08DF810F4007B64D007F5A063F5
:102730004FF400724146206803EB48139A6005F09D
:1027400035FBA268D5E63946206805F079F88006A1
:1027500040F1AD8008F5A068202308EB4718C8F8C1
:102760000830A268C5E63946206805F069F84005DA
:1027700040F1858008F5A0634FF48062394603EB91
:1027800047139A6009220AFB074383F861202068F7
:1027900005F00CFB99E6B7F84020BB6CB3FBF2F3F5
:1027A000DB073FF530AF4AE73946206805F0FEFA0F
:1027B00010232169CBF8083020E707F00F074FF00E
:1027C0002C0808FB0748D8F8441000298CD0D8F80A
:1027D0005030D8F84C001344834240F2D680042392
:1027E00088F8603080E720461CF0A0F95FE72046BB
:1027F0001CF090F93EE74146206805F021F810F002
:10280000010300F08D800AFB084241462068C2F8AF
:102810005CB0019205F014F807F5A06310F0400FCA
:10282000019A03EB481304D0012182F83D104022A5
:102830009A60012241469A600AFB084383F86120AE
:10284000206805F0B3FAA26853E650F8081041F08A
:10285000005140F808103946204683F860201CF0EB
:1028600069F92169CAE682F83DB0603340F202326C
:102870004146E252206805F099FAA26839E63946E5
:10288000206804F0DDFF01067FF51FAE08F5A063A8
:10289000802203EB47130EE6029B206803F4C0235B
:1028A000B3F5802F18BF012105F08AF8FCE6394600
:1028B000206804F0C5FF10F0020B00F0858008F5D9
:1028C000A06802200AFB07F2790108EB4713986021
:1028D000A01890F86130012B00F09080062B00F0DA
:1028E000E980072B00F0D580092B00F0D280052B62
:1028F00000F01D81032B00F01F81042B00F02E81BE
:10290000082B00F02081022B3FF499AE0AFB07430D
:102910003946204693F860201CF00CF9A268E8E5DF
:1029200041462068019304F08BFF420615D50AFB4F
:102930000842019B07F5A0674146D365052307EBD5
:10294000481782F86130012382F83D30206805F095
:102950002DFA4023BB60A268CBE54146206804F015
:102960006FFF10F0080B4ED007F5A0630822414618
:1029700003EB48139A6006220AFB084383F86120A0
:10298000206805F013FAA268B3E5304606F5A066A4
:10299000019204F02BFF06EB4711D8F84430019A5E
:1029A0000969D8F850001344C1F3C9411044C8F86C
:1029B00044307B01C8F8500021B1B8F84010914272
:1029C00000F0A88026688FE63946206804F038FFBA
:1029D00010F040023BD008F5A06340200AFB0742FC
:1029E000394603EB471398600523C2F85CB082F8C0
:1029F0006130206805F0DAF9A2687AE5603240F2C9
:102A00000123A35282E74146206804F019FFC30660
:102A100062D50AFB08430422C3F85CB083F8612046
:102A200093F83D303BB90AFB084393F83C2012B9B8
:102A3000012283F83D2007F5A0674146206805F094
:102A4000B5F9102307EB4817BB60A26851E539467A
:102A50002068019204F0F4FE10F0100F019A3FF488
:102A6000EEAD0AFB074393F83F10032900F0A58061
:102A700011F0FD0104D12269D965002A00F09E8081
:102A800008F5A068102308EB4718C8F80830A268BA
:102A90002FE50AFB07424FF0020382F86130D36D45
:102AA0000133022BD3650AD90023D365042382F8AE
:102AB00060302BE7603240F20523A35226E74FF047
:102AC000020382F8603051F8083023F0804343F06D
:102AD000004341F8083019E74146206804F0B0FE91
:102AE000000652D52369002B00F0EF800AFB084353
:102AF000DA6D0132022ADA6500F2DD804FF002025F
:102B000083F8602007F5A067802307EB4817BB60B8
:102B1000A268EEE49A5922F0804242F000429A51B3
:102B200098F8543083F0010388F854304AE74FF0A6
:102B3000020380F86130E9E60AFB07434FF0020226
:102B400083F86120E2E60AFB07F34FF40170E11815
:102B50006033CA6D0132CA65E052D7E60AFB07F35B
:102B600040F2022003F160022344A05293F83F3068
:102B700013F0FD0F7FF4CAAE51F8083023F0804304
:102B800043F0004341F80830C0E64146206804F0B5
:102B900057FE41051AD50AFB0843092207F5A0672D
:102BA000414683F86120206807EB481705F0FEF8DE
:102BB0004FF48063BB60A2689BE4DA650422394667
:102BC00083F86120206805F0F1F859E74146206854
:102BD00004F036FE82077FF532AD07F5A0670221CB
:102BE0000AFB08F34FEA481007EB48129160E2181D
:102BF00092F8611001293FD0032938D0042926D04A
:102C0000052924D006291DD0072902D009297FF4DF
:102C100016AD0AFB08434FF0020283F86120DA6D1B
:102C20000132022ADA6517D90022DA65042283F814
:102C300060200AFB08434146204693F860201BF0C1
:102C400079FFFCE4603340F20522E252F1E76033A1
:102C500040F20222E252ECE74FF0020283F86020D9
:102C60003B5823F0804343F000433B50E1E74FF0F3
:102C7000020382F86130DCE7603340F20121E15267
:102C800092F83F30023B012BD3D8236963B1012B6B
:102C9000CFD1D36C002BCCD0B2F84010013B0B4409
:102CA000B3FBF1F3DB07C4D592F8553083F0010391
:102CB00082F85530BDE7002241462046DA650422FD
:102CC00083F860201BF036FF1CE70AFB084307224D
:102CD000414683F86120206805F068F812E700BFDC
:102CE00038B590F8F832012B0FD004460125006862
:102CF00084F8F85204F0E2FC2946206804F0A2FEB1
:102D00000023184684F8F83238BD022038BD00BFD1
:102D100090F8F832012B0CD0012310B5044600685E
:102D200084F8F83205F0A8F80023184684F8F83241
:102D300010BD0220704700BF006804F063BE00BFF2
:102D40002C2303FB010191F8600070472C2303FB47
:102D50000101086D704700BF006804F0A7BE00BF06
:102D6000006804F097BE00BFF8B505460E4617464A
:102D7000701C2C682CD1A369990727D4A369DA06A3
:102D8000F9D5A3699A06FCD520231022E261E361FC
:102D9000A3699F0701D50023A362A369DE0703D4BB
:102DA000A36943F00103A361636800221B4820214B
:102DB0000340012063606B6C85F8402043F00403FE
:102DC0006B6485F8411085F84220F8BD0020F8BDFD
:102DD000A3699B07FAD4A369D9061BD4FEF748F967
:102DE000C01BB04201D8002EC2D16B6C2021002242
:102DF00001200B4385F840206B6485F8411085F86D
:102E00004220F8BDFEF734F9C01B8642EDD3002EF8
:102E1000EBD02C68A3699B06F4D5B5E700E800FE6B
:102E2000F8B505460E4617462C68A3699B0649D49B
:102E3000A369DA0626D5731C38D1A3699E06FCD592
:102E400020231022E261E361A369990701D50023E1
:102E5000A362A369DA0703D4A36943F00103A36162
:102E600063680022184820210340012063606B6CD6
:102E700085F8402043F004036B6485F8411085F821
:102E80004220F8BDFEF7F4F8C01BB04201D8002E76
:102E9000CAD16B6C2021002201200B4385F8402011
:102EA0006B6485F8411085F84220F8BDA369980647
:102EB000C6D4FEF7DDF8C01B8642EAD3002EE8D068
:102EC0002C68B8E70020F8BD00E800FE2DE9F047C7
:102ED00098468A460368174634490446344A5FFADE
:102EE00088F9089D934218BF8B4201F58061099EC5
:102EF00014BF012200228B420CBF002202F001020B
:102F000012B12C4A93423AD15968CAF3090A2A4AA3
:102F100020461140294A41EA0A0141EA09410A438F
:102F200029465A603246FFF71FFF814610BBB8F1B1
:102F3000010F15D1FFB222689762681C05D1936911
:102F40001906FCD54846BDE8F08793691B06F9D4FD
:102F5000FEF78EF8801B854218D3BDB12268ECE7DE
:102F60003A0A2368294620469A623246FFF7FCFE59
:102F70000028DFD04FF001094846BDE8F08741F650
:102F8000C1010F4817F08EFF2368BDE7636C202155
:102F900000224FF001090B43484684F84020636447
:102FA00084F8411084F84220BDE8F08700580040C2
:102FB0000054004000600040009800FC00200081A8
:102FC0000C1602082DE9F04798468A460368174612
:102FD00034490446344A5FFA88F9089D934218BF81
:102FE0008B4201F58061099E14BF012200228B42B1
:102FF0000CBF002202F0010212B12C4A93423AD1D6
:103000005968CAF3090A2A4A20461140294A41EA66
:103010000A0141EA09410A4329465A603246FFF74C
:10302000A3FE814610BBB8F1010F15D1FFB2226893
:103030009762681C05D193695906FCD54846BDE8DE
:10304000F08793695B06F9D4FEF712F8801B85427E
:1030500018D3BDB12268ECE73A0A23682946204616
:103060009A623246FFF780FE0028DFD04FF0010958
:103070004846BDE8F08741F6C1010F4817F012FF3E
:103080002368BDE7636C202100224FF001090B4348
:10309000484684F84020636484F8411084F8422054
:1030A000BDE8F08700580040005400400060004038
:1030B000009800FC002000800C160208002800F098
:1030C000C180614B0268614910B5044660489A426C
:1030D00018BF824214BF012300238A420CBF002381
:1030E00003F001031BB15B4B9A4240F0A580A3683B
:1030F000B3F5806F80F09A80E368013B012B55D8CF
:10310000236933F400435AD16369FF2B5FD8A36965
:10311000072B64D8E36933F4002369D1236A33F4BD
:1031200000336ED194F8413003F0FF02002B73D0CE
:1031300023682421626884F84110196822F07062C3
:10314000E06821F00101012819601A619A6822F4EF
:1031500000429A60A26865D042F4044202289A6054
:1031600002D14FF400625A6058684FF0200C3A497F
:10317000226901435960D96821F40041D960D4E93A
:103180000501024342EA0122D4E90710DA60002275
:10319000014310461960196841F001011960626429
:1031A00084F841C0226384F8422010BD4FF4F071CE
:1031B0002A4817F077FE236933F40043A4D040F285
:1031C000E111264817F06EFE6369FF2B9FD94FF47B
:1031D000F171224817F066FEA369072B9AD940F2D5
:1031E000E3111E4817F05EFEE36933F4002395D027
:1031F0004FF4F271194817F055FE236A33F4003387
:1032000090D040F2E511154817F04CFE94F841308B
:1032100003F0FF02002B8BD1204684F8402017F0EA
:10322000DBF885E742F400429A609DE740F2DF1147
:103230000A4817F037FE5FE74FF4EF71074817F0C1
:1032400031FE54E70120704700540040005C00400C
:103250000058004000600040008000020C16020888
:103260002DE9F04F1E46013B83B00446012B0F466B
:103270009146BDF834A0DDF8388004D940F6ED0160
:10328000A64817F00FFE94F84130202B40F0B5808F
:103290000C9B002B00F0AA80BAF1000F00F0A68072
:1032A00094F84030012B00F0A880012384F84030CE
:1032B000FDF7DEFE054605E0FDF7DAFE401B1928A6
:1032C00000F2B08023689B6913F4004BF4D10C9991
:1032D0003346C4F834B04A46616221212046CDE924
:1032E000008584F84110402184F842103946C4F822
:1032F00044B0A4F82AA0FFF7E9FD002840F081803F
:10330000638D9BB2FF2B40F2BC80FF23844A85492A
:1033100023852368934218BF8B4201F5806114BF57
:10332000012200228B420CBF002202F0010242B1B6
:103330007D4A934205D041F6C101784817F0B2FDAD
:1033400023685A68C7F3090778490A4078493A431D
:1033500011435960DFF8C8A1DFF8C891754E04E049
:10336000638D9BB2002B00F0C4802A464146204664
:10337000FFF7FAFC002840F08280626A216812F8A8
:10338000010B238D88626262013B628D9BB2013A20
:10339000238592B26285628D92B2002BE0D1002A21
:1033A000DED0B8F1FF3F30D18B691A06FCD5638DB2
:1033B0009BB2FF2B45D9514518BF49454FF0FF023D
:1033C00014BF012300232285B1420CBF002303F068
:1033D00001031BB1544B994240F084804B68534A1F
:1033E0001340534A3B431A434A60B9E74FF4007312
:1033F0000120636403B0BDE8F08F022003B0BDE894
:10340000F08F012084F840B0F4E78B691B06CED41E
:10341000FDF72EFE401B804504D3B8F1000F01D00C
:103420002168BEE7636C2021002201200B4384F851
:103430004020636484F8411084F8422003B0BDE862
:10344000F08F638D514518BF49459BB25FFA83FBEE
:10345000238514BF01230023B1420CBF002303F0D6
:10346000010313B1304B994235D14B682F4A1340B9
:1034700043EA0B433B4343F000734B6070E701208A
:10348000B8E7638D22689BB22649DEB22385244BC0
:103490009A4218BF8A4201F5806114BF01230023BC
:1034A0008A420CBF002303F0010343B11E4B9A4232
:1034B00005D041F6C101194817F0F4FC22685368A1
:1034C000C7F3090719490B403B4343EA064343F05E
:1034D000007353603EE741F6C101104817F0E2FC6B
:1034E0002168C2E741F6C1010C4817F0DBFC2168F6
:1034F00074E72A4641462046FFF792FC0028BED1D9
:10350000236820210C4DD9615A682A405A6084F8FA
:10351000411084F8400084F842006BE70C16020862
:10352000005400400058004000600040009C00FC37
:103530000000FF01005C004000E800FE2DE9F04FB4
:103540009846013B83B00446012B0F469146BDF8D7
:1035500034A00E9D04D940F674119E4817F0A2FCC9
:1035600094F84130202B40F0A7800C9B002B00F0FA
:103570009C80BAF1000F00F0988094F84030012B45
:1035800000F09A80012384F84030FDF771FD064673
:1035900004E0FDF76DFD801B192877D823689B692F
:1035A00013F4004BF5D10C994346C4F834B04A46A5
:1035B000616222212046CDE9005684F84110402165
:1035C00084F842103946C4F844B0A4F82AA0FFF7A2
:1035D000F9FC002874D1638D9BB2FF2B40F2C080B0
:1035E000FF2322687C4923857C4B9A4218BF8A427C
:1035F00001F5806114BF012300238A420CBF002320
:1036000003F0010343B1764B9A4205D041F6C10164
:10361000704817F047FC2268536872490B40C7F3A3
:1036200009010B430F46704919435160681CDFF8CC
:10363000ACA1DFF8A491DFF8C0811DD193695907CF
:10364000FCD5526A636A1A70628D636A013A01336B
:1036500092B26362238D6285013B628D9BB292B20E
:1036600023850AB1002B39D0638D9BB2002B00F06B
:10367000C580681C2268E1D093695B07E1D4FDF73F
:10368000F7FC801B854201D3002DF2D1636C202111
:10369000002201200B4384F84020636484F8411029
:1036A00084F8422003B0BDE8F08F4FF4007301208E
:1036B000636403B0BDE8F08F022003B0BDE8F08F73
:1036C000012084F840B0F4E793691B060CD4FDF7A1
:1036D000CFFC801B8542D9D3002DD7D0681C22682F
:1036E000F2D193691906FCD5638D9BB2FF2B19D9D2
:1036F000524518BF4A454FF0FF0114BF0123002374
:10370000218542450CBF002303F0010313B1344B64
:103710009A4258D1536835490B4035493B431943C8
:103720005160A1E7638D524518BF4A459BB25FFACD
:1037300083FB238514BF0123002342450CBF0023D4
:1037400003F0010313B1264B9A4235D15368274940
:103750000B403B4343EA0B4343F00073536083E762
:10376000638D22689BB21C495FFA83F823851B4B4B
:103770009A4218BF8A4201F5806114BF01230023D9
:103780008A420CBF002303F0010343B1144B9A4259
:1037900005D041F6C1010F4817F084FB2268536839
:1037A00010490B40C7F309010B430F46114943EA87
:1037B00008431943516039E741F6C101054817F044
:1037C00071FB2268C2E741F6C101024817F06AFBAB
:1037D00022689FE70C160208005800400054004081
:1037E00000600040009800FC0024FF81009C00FC69
:1037F0000000FF0100240082005C004032462946A0
:103800002046FFF70DFB68B923682021064DD961DA
:103810005A682A405A6084F8411084F8400084F8BD
:10382000420046E7012044E700E800FE234B02681F
:1038300070B5234D0446234E9A4218BFAA420D4646
:1038400014BF01230023B2420CBF002303F0010385
:1038500013B11D4B9A422CD135F4805324D194F8E6
:103860004130202BDEB21DD194F84030012B19D00D
:103870002368242284F841201A6822F001021A6089
:103880001A6822F480521A6019680D4300211D60E5
:1038900008461A6842F001021A6084F8416084F810
:1038A000401070BD022070BD6021084817F0FAFA80
:1038B000D5E75F21054817F0F5FACDE70054004041
:1038C00000580040005C00400060004044160208C0
:1038D000224B026870B5224D0446224E9A4218BF10
:1038E000AA420D4614BF01230023B2420CBF00239D
:1038F00003F0010313B11C4B9A422AD10F2D23D898
:1039000094F84130202BDEB21CD194F84030012BCA
:1039100018D02368242284F841201A6822F001027A
:103920001A60196821F4706141EA052500211D60C3
:1039300008461A6842F001021A6084F8416084F86F
:10394000401070BD022070BD8E21084817F0AAFA01
:10395000D6E78D21054817F0A5FACFE700540040BF
:1039600000580040005C004000600040441602081F
:10397000D2012DE9F047046802F18400D1F804A0D7
:103980002318E668D1F80CE05D68C6F30B460F68B3
:1039900005F4704506EB0A0CD1F818905D607D1CAB
:1039A000E668C6F30B462E4446EA0C465E60E568C0
:1039B000C5F30A0505EB0E069D6805F470459D608C
:1039C0008D68D4F80CC00135CCF30A0C65444FF077
:1039D000000C45EA06450E699D601D6925F0070546
:1039E0001D611E619D6991F832E091F83180C3F844
:1039F00018C091F8305045EA096545EA082545EABE
:103A00000E459D615D6925F0FF055D614D695D6154
:103A10001C4DD3F81CE00EEA0505DD61D1E9075223
:103A20001543DD619D6A4D6AC3F828C09D6246B1A9
:103A3000012E22D0B51E022D01D9072E1FD102253D
:103A400000E00425AAEB07028E6A05FB02F206FBE2
:103A500005F5033242EA0542CD6AD96A01F0E02158
:103A6000D962DA62084A196B0A401A631D63235847
:103A700043F001032350BDE8F0870325E2E7012569
:103A8000E0E700BFF8F8FFFF00F8FFFF002800F0B4
:103A9000E680026838B5734B04469A4203D0CA21C7
:103AA000714817F0FFF96369B3F5805F80F0D28049
:103AB000A369B3F5006F80F0C880E369B3F5805F58
:103AC00080F0BE80236AB3F5006F80F0B480A36AF3
:103AD000B3F5006F80F0AA80636AB3F5805F80F071
:103AE000A080236BB3F5006F80F09680E36AB3F596
:103AF000805F80F08C80636833F0004340F0828008
:103B0000A36833F0804378D1E36833F000536FD17A
:103B1000236933F0805366D194F8A13003F0FF029B
:103B2000002B5AD0A0680221E56984F8A110D4E9DD
:103B3000003299690243E06821F070410243206934
:103B400099610243996949480A439A619A68024017
:103B50009A606269996841EA0241A26911439960D9
:103B6000D9680140D960DA68216A42EA0542656A8B
:103B70000A43DA601A6902401A611969A26A41EAC5
:103B80000541E56A114319615969084058615A694C
:103B9000216B42EA05420A435A61D96A94F835001A
:103BA00001F07F4194F836C0D962D96A94F8342084
:103BB0000A4342EA0022002042EA0C42DA625A6BCF
:103BC00042F006025A639A6942F001029A610123A7
:103BD000C4F8A40084F8A13038BD204684F8A020A1
:103BE00016F0C2FC9EE7D6211F4817F05BF993E759
:103BF000D5211D4817F056F98AE7D4211A4817F045
:103C000051F981E7D321184817F04CF978E7D22110
:103C1000154817F047F96EE7D121134817F042F91C
:103C200064E7D021104817F03DF95AE7CF210E483C
:103C300017F038F950E7CE210B4817F033F946E773
:103C4000CD21094817F02EF93CE7CC21064817F0A2
:103C500029F932E7CB21044817F024F928E701209D
:103C6000704700BF006801408016020800F800F0AD
:103C7000012AF8B5164605460C4604D940F2FE2145
:103C8000654817F00FF92368B3F5805F5AD263686F
:103C9000B3F5803F5FD2A368B3F5805F64D2E36879
:103CA000B3F5803F69D22369072B6ED86369FF2B78
:103CB00073D8A369FF2B78D8E36923F40073B3F5B5
:103CC000806F7DD1236A23F00203052B40F08380AF
:103CD000A36AB3F5005F80F08880E36AB3F5006FF4
:103CE00080F08D8095F8A030012B00F092804FF08D
:103CF000340C01270223A6460CFB065C85F8A07055
:103D000085F8A1300CF1380CBEE80F00ACE80F00CC
:103D1000BEE80F00ACE80F00BEE80F00ACE80F00F3
:103D2000DEF80030324628462146CCF80030FFF756
:103D30001FFE00232A681846576285F8A17085F88F
:103D4000A030F8BD40F2FF21334817F0ABF86368AC
:103D5000B3F5803F9FD34FF440712F4817F0A2F87E
:103D6000A368B3F5805F9AD340F201312A4817F077
:103D700099F8E368B3F5803F95D340F202312648C5
:103D800017F090F82369072B90D940F203312248AD
:103D900017F088F86369FF2B8BD94FF441711E48E7
:103DA00017F080F8A369FF2B86D940F205311A4835
:103DB00017F078F8E36923F40073B3F5806F81D0CE
:103DC00040F20631144817F06DF8236A23F002031D
:103DD000052B3FF47DAF40F207310F4817F062F832
:103DE000A36AB3F5005FFFF478AF4FF442710A485D
:103DF00017F058F8E36AB3F5006FFFF473AF40F2C1
:103E00000931054817F04EF895F8A030012B7FF4E2
:103E10006EAF0220F8BD00BF80160208012A2DE90E
:103E2000F84F144605460E4604D940F211515A483F
:103E300017F038F895F8A030012B00F0A78028681B
:103E400002234FF0340C85F8A13000F1840EC768CE
:103E50000CFB045C0EEBC413C7F30B47DCF8449077
:103E6000CCF85C60DCF84020DCE90E1B07EB0B08AB
:103E70005F6801F1010A07F470475F60C768C7F324
:103E80000B47574447EA08475F60C768C7F30A070C
:103E900007EB09089F6807F470479F60C768C7F37E
:103EA0000A071744DCF85020013747EA08479CF816
:103EB00069809F609CF8687047EA0267DCF84C20D4
:103EC00047EA0827D3F8108028F00708C3F81080C5
:103ED0009CF86A8047EA0847DCF84880C3F81080FD
:103EE000D3F818904FF00009C3F818909F615F69EC
:103EF00027F0FF075F61294F5A61D3F81CA00AEA37
:103F00000707DF61DCE9157C47EA0C07DF619F6A80
:103F1000C3F828909E62E601B8F1000F28D104276B
:103F20003422ABEB010102FB0454DA6A07FB01F116
:103F300002F0E0220331DA62226E07FB02F241EA6C
:103F40000241174AD962616E1C6B22401A6301223A
:103F500019635EF8063043F001034EF80630002383
:103F60004262184685F8A12085F8A030BDE8F88F98
:103F7000B8F1010F0DD0A8F10207022F04D9B8F152
:103F8000070F01D00127CBE70227C9E70220BDE8D0
:103F9000F88F0327C4E700BF80160208F8F8FFFF78
:103FA00000F8FFFF38B54B1E0D460446012B04D91F
:103FB00040F2AA510D4816F075FF94F8A030012B7D
:103FC00011D0236802224FF0000C012184F8A120B7
:103FD0005A6B604642F008025A635D6284F8A11091
:103FE00084F8A0C038BD022038BD00BF801602088A
:103FF000FF292DE9F0410E460446154600F2B58032
:10400000012D04D940F297615D4816F04BFF94F8FA
:10401000A030012B00F0AF80022327684FF0340C52
:1040200084F8A13007EBC513F8680CFB054CC0F30E
:104030000B40CCF84C60DCE90E1200EB020ED3F81A
:10404000880001F1010800F47040C3F88800F868A6
:10405000C0F30B40404440EA0E40DCF844E0C3F8B3
:104060008800F868D3F88C80C0F30A0008F4704820
:104070008644DCF84000C3F88C80FF680130C7F349
:104080000A073844DCF8507040EA0E40C3F88C0050
:104090009CF8680040EA07609CF8697040EA0720D5
:1040A000D3F8947027F00707C3F894709CF86A70EF
:1040B00040EA0740DCF84870C3F89470D3F89CE0FD
:1040C0004FF0000EC3F89CE0C3F89C00D3F89800B2
:1040D00020F0FF00C3F89800C3F898602948D3F88F
:1040E000A0603040C3F8A000DCE915063043C3F8F7
:1040F000A000DCF85C00D3F8AC60C3F8ACE0C3F817
:10410000AC0003F184002FBB0427511A3422C66A85
:1041100002FB054507FB01F106F0E0262A6E03319C
:10412000C66207FB02F26D6E41EA0241164AC162A5
:10413000016B0A400021026305630120D3F884204B
:104140000243C3F8842084F8A100084684F8A01034
:10415000BDE8F081012F11D0BE1E022E03D9072F1A
:1041600001D00127D1E70227CFE740F2966104484A
:1041700016F098FE44E70220BDE8F0810327C4E76B
:1041800080160208F8F8FFFF00F8FFFF1A4B1A6CC0
:1041900042F0805230B51A6483B01B6C174C03F0A8
:1041A00080530193019B236843F480332360FCF721
:1041B0005FFF054605E0FCF75BFF401BB0F57A7F2B
:1041C00017D86368DA03F6D523680C4D43F400333F
:1041D0002360FCF74DFF044605E0FCF749FF001B98
:1041E000B0F57A7F05D86B689B03F6D5002003B045
:1041F00030BD032003B030BD0038024000700040E5
:10420000002800F02B8203680F2B2DE9F0410446B3
:1042100082B000F21C81DD0734D5636833F480324C
:1042200003D0B3F5A02F40F06E81A44A936803F049
:104230000C03042B1DD0936803F00C03082B15D03E
:104240006368B3F5803F00F06481002B00F0958136
:10425000B3F5A02F994B1A6800F0088222F480323F
:104260001A601A6822F480221A6057E153685802D3
:10427000E6D5924B1B68990303D56368002B00F0C9
:10428000F88023689F0731D5E368012B00F2F580A1
:1042900023691F2B00F2FA80884B9A6812F00C0FEA
:1042A00000F0E0809A6802F00C02082A00F0D68044
:1042B000E368824D002B00F096812B6843F00103E8
:1042C0002B60FCF7D5FE064605E0FCF7D1FE801B0F
:1042D000022800F24E812B689807F6D52B682269D8
:1042E00023F0F80343EAC2032B6023681A072AD499
:1042F0005E0744D5A368012B06D9052B04D040F2F4
:1043000007216F4816F0CEFD6C4B1A6CD50040F1BA
:10431000E58000256B4E3368D80540F11A81A3680B
:10432000012B00F07281002B00F03D81052B634BC7
:104330001A6F00F0B58122F001021A671A6F22F09D
:1043400004021A6766E16369012B00F2BD805B4DD0
:10435000002B00F0A1806B6F43F001036B67FCF74B
:1043600087FE064605E0FCF783FE801B022800F26C
:1043700000816B6F9B07F6D523685E07BAD4A369EB
:10438000022B00F2B680002B5DD04C4DAA6802F0E3
:104390000C02082A6DD0022B40F04F81E36933F400
:1043A000800340F06B81236A023B3D2B00F2728157
:1043B000636A323BB3F5BF7F00F26681A36A082BC4
:1043C00000F24E814FF4AA7222FA03F3D80740F1AB
:1043D0004781E36A023B0D2B00F26A81374D2B685F
:1043E00023F080732B60FCF743FE064605E0FCF7E4
:1043F0003FFE801B022800F2BC802B689901F6D496
:10440000A26A606A5208D4E90731013A0B43E16AB3
:104410002A4C43EA024343EA801343EA016343F030
:1044200000536B602B6843F080732B60FCF720FE19
:10443000054605E0FCF71CFE401B022800F29980AF
:1044400023689A01F6D5002002B0BDE8F0814FF450
:10445000B2711B4816F026FD2368DCE65B685E023D
:104460003FF526AF154B1B689D0765D5E368012B0B
:1044700062D0012002B0BDE8F0814FF4CE71104847
:1044800016F010FD23691F2B7FF606AF40F29D1139
:104490000B4816F007FDFFE66B6F23F001036B6717
:1044A000FCF7E6FD064604E0FCF7E2FD801B02286F
:1044B0005FD86B6F9F07F7D45EE700BF00380240FC
:1044C000BC1602080070004040F2DD117B4816F077
:1044D000E9FC63697A4D002BDED03CE71A6C0125BC
:1044E00042F080521A641B6C03F080530193019BCD
:1044F00010E740F24B21714816F0D4FCA369002B61
:104500007FF443AF9FE74FF4B5716C4816F0CAFCD7
:104510008BE66B4A136843F480331360FCF7A8FD05
:10452000674E054604E0FCF7A3FD401B642820D835
:1045300033689A03F7D5A4E6614A2169136823F02A
:10454000F80343EAC103136023681A077FF5D0AE6E
:10455000F9E6336843F480733360FCF789FD07465E
:104560003368D9053FF5DBAEFCF782FDC01B64283C
:10457000F6D9032002B0BDE8F081514D2B6823F439
:1045800080332B602B6823F480232B60FCF770FDB5
:10459000064604E0FCF76CFD801B6428E9D82B6814
:1045A0009B03F7D46DE6464E41F28838336F23F013
:1045B00001033367336F23F004033367FCF758FDBF
:1045C000074604E0FCF754FDC01B4045D1D8336FCB
:1045D0009B07F7D4002D3FF4D2AE394A136C23F079
:1045E00080531364CBE62B6823F001032B60FCF7A8
:1045F0003FFD064604E0FCF73BFD801B0228B8D8CF
:104600002B689907F7D4236870E62D4A136F43F09F
:1046100001031367FCF72CFD294F41F28838064649
:1046200004E0FCF725FD801B4045A2D83B6F9A07AC
:10463000F7D5002D3FF4A3AECFE72B6823F08073AE
:104640002B60FCF715FD044604E0FCF711FD001B90
:1046500002288ED82B689B01F7D4F4E6012070471E
:1046600040F25721154816F01DFCB2E642F48022B4
:104670001A601A6842F480321A604FE74FF41571DD
:104680000E4816F00FFC8EE640F256210B4816F04D
:1046900009FC93E640F25521084816F003FC87E632
:1046A00042F004021A671A6F42F001021A67B1E77A
:1046B0004FF41671014816F0F5FB8FE6BC160208A0
:1046C00000380240002800F017810368013B0E2BE0
:1046D0002DE9F04104460D4600F2E5800F2D00F271
:1046E000D280964A136803F00F03AB426FD323685E
:1046F000980730D5590704D591498A6842F4E052A9
:104700008A601A0704D58E498A6842F460428A603A
:10471000A16821F0200221F08000902A18BF002813
:1047200021F0400014BF01220022F0290CBF00221A
:1047300002F00102A0280CBF002202F0010222B107
:1047400021F01002C02A40F0E1807D48826822F00A
:10475000F00211438160DF0726D56368022B00F267
:10476000C280774A012B126800F0B780022B00F05C
:10477000B080910728D5724E41F28838B26822F095
:1047800003021343B360FCF773FC074605E0FCF734
:104790006FFCC01B404500F2AD80B368626803F057
:1047A0000C03B3EB820FF2D1644A136803F00F03DA
:1047B000AB421AD9136823F00F032B43136013681D
:1047C00003F00F03AB4210D00120BDE8F081136865
:1047D00023F00F032B431360136803F00F03AB4266
:1047E000F2D12368980785D4B5E723685A0713D513
:1047F000E16821F4805221F40060B0F5A05F18BF99
:10480000002A03D0B1F5C05F40F088804C48826830
:1048100022F4E0520A4382601B0713D5226922F476
:10482000006122F48053B1F5A05F18BF002B02D0C5
:10483000B2F5C05F7AD142498B6823F4604343EA02
:10484000C2038B603E498B6803F00C03042B48D0F5
:10485000082B2ED14A684B6802F03F02496813F4D6
:1048600080034BD03748C1F388110023A1FB00011E
:10487000FCF71AFA324B5B68C3F3014301335B0068
:10488000B0FBF3F316E040F2CB212F4816F00AFB01
:104890002A4B01201A68196821F00F010D431D6091
:1048A0001B68BDE8F08140F2CA21274816F0FAFAE9
:1048B00014E7264B224A264892682649C2F303127F
:1048C000825C0020D3400B60FCF790FB0020BDE829
:1048D000F08190013FF54FAF76E796033FF54BAF80
:1048E00072E7184BE6E740F2F621174816F0DAFABD
:1048F000636836E7032068E7012070471348C1F377
:104900008811A1FB0001FCF7CFF9B3E740F2EF21DA
:104910000D4816F0C7FAA168236816E740F2333154
:10492000094816F0BFFAE16823686FE740F23A31B0
:10493000054816F0B7FA22697DE700BF003C024047
:104940000038024040787D01BC1602080024F400C3
:10495000086F020878000020594A03681A402DE9C0
:10496000F043044683B0002A00F0068313F00106EA
:104970000FD0666B36F4000240F00983514A91680B
:1049800021F40001916091683143B6FA86F6760908
:10499000916013F4002517D0E56B35F4801203D035
:1049A000B5F5001F40F001834649B5F5801FD1F8E9
:1049B0008C2022F4401242EA0502C1F88C2000F05B
:1049C000E182B5FA85F56D09D90217D5216C31F46C
:1049D000800203D0B1F5000F40F0E0823948B1F514
:1049E000800FD0F88C2022F4400242EA0102C0F885
:1049F0008C2000F0CA82002908BF012513F0807FB7
:104A000018BF01269A0640F19980226B2E48B2F514
:104A1000807F18BFB2F5007F22F4A02722F4403136
:104A200014BF0123002387420CBF002303F00103BE
:104A300022F4102700F5003087420CBF002303F05A
:104A4000010300F5802022F4881781420CBF002367
:104A500003F0010300F5C02087420CBF002303F0E0
:104A6000010300F5003081420CBF002303F0010375
:104A700000F5802081420CBF002303F0010300F504
:104A8000802081420CBF002303F001032BB122F4EC
:104A900080320E4B9A4240F0ED830A4B0C4F1A6C59
:104AA00042F080521A641B6C03F080530193019B07
:104AB0003B6843F480733B60FCF7DAFA804610E011
:104AC000F9FFFF01003802400003020000031C0050
:104AD00000700040FCF7CCFAA0EB0800642800F25C
:104AE000D5813B68DB05F5D5AB4F236B3A6F03F4FB
:104AF000407112F4407211D091420FD03A6F386F6A
:104B000022F4407240F480303867386F20F48030EF
:104B100038673A673A6FD00700F12483B1F5407FD8
:104B200000F069829C498A6822F4F8128A609A4AE5
:104B3000C3F30B03116F0B4313672368DA0610D519
:104B4000A76B37F0807240F08482934AD2F88C00D1
:104B500020F08070C2F88C00D2F88C103943C2F873
:104B60008C105F040FD5616E31F4803203D0B1F543
:104B7000003F40F021828848D0F8902022F4403253
:104B80000A43C0F8902018040FD5A16E31F480229A
:104B900003D0B1F5002F40F016827F48D0F8902066
:104BA00022F440220A43C0F89020D9030FD5E16EC9
:104BB00031F4801203D0B1F5001F40F00C8276482A
:104BC000D0F8902022F440120A43C0F890209A03B3
:104BD0000FD5216F31F4800203D0B1F5000F40F002
:104BE00002826D48D0F8902022F440020A43C0F8B7
:104BF00090205F060BD5616C032900F2498266485C
:104C0000D0F8902022F003020A43C0F89020180642
:104C10000CD5A16C31F00C0240F060825E48D0F8F7
:104C2000902022F00C020A43C0F89020D9050CD540
:104C3000E16C31F0300240F05F825748D0F89020AC
:104C400022F030020A43C0F890209A050CD5216D5D
:104C500031F0C00240F058824F48D0F8902022F046
:104C6000C0020A43C0F890205F050CD5616D31F495
:104C7000407240F051824848D0F8902022F44072AF
:104C80000A43C0F8902018050CD5A16D31F440629C
:104C900040F04A824048D0F8902022F440620A4313
:104CA000C0F89020D9040CD5E16D31F4405240F0A9
:104CB000FD813948D0F8902022F440520A43C0F8D0
:104CC00090209A040CD5216E31F4404240F0F681D8
:104CD0003148D0F8902022F440420A43C0F8902096
:104CE0005F020CD5A16F31F0806240F0C1812A488B
:104CF000D0F8902022F080620A43C0F890209802F9
:104D000010D5E16F31F0006240F0BA812248B1F174
:104D1000006FD0F8902008BF012522F000620A43FE
:104D2000C0F8902013F0080F18BF012559030CD5C7
:104D3000616F31F0407240F0C9811748D0F890207F
:104D400022F040720A43C0F890201A020DD5D4F820
:104D5000802032F0805340F083810F49D1F89030A9
:104D600023F080531343C1F89030012E00F092805D
:104D70002368B3F1007F00F08D80012D03D0002067
:104D800003B0BDE8F083044D2B6823F080532B6003
:104D9000FCF76EF9064606E000380240FCF768F9B9
:104DA000801B642872D82B689F00F7D46369323B5C
:104DB000B3F5BF7F00F2FD8123681D0300F1E6819A
:104DC000D80226D5226C22BBA369023B0D2B00F230
:104DD0003C82A36A591E1F2900F22F82B04AD2F8E2
:104DE0008830D2F8880003F4403300F0E0400343F9
:104DF000606943EA8013A06943EA0063C2F888301F
:104E0000D2F88C3023F4F85343EA0123C2F88C30F3
:104E10002368990204D5E26FB2F1006F00F0F281CD
:104E20001A0722D5E369023B052B00F20082E06AF3
:104E300030F4403340F00F82994A6569D2F8881007
:104E4000D2F8883001F0706103F440330B43E1691C
:104E500043EA851343EA0173C2F88830D2F88C30F4
:104E600023F440330343C2F88C308D4C236843F065
:104E700080532360FCF7FCF8054623689B003FF550
:104E80007EAFFCF7F5F8401B6428F6D9032003B089
:104E9000BDE8F083824E336823F080633360FCF713
:104EA000E7F8074604E0FCF7E3F8C01B6428EDD8F8
:104EB00033681B01F7D46368323BB3F5BF7F00F260
:104EC00015812368DF0703D5626B002A00F0348167
:104ED0001E0304D5E26BB2F5801F00F09580D80266
:104EE00004D5226CB2F5800F00F08E80D90114D564
:104EF0002769032F00F2768169496068D1F8842020
:104F0000D1F8846002F0706206F0E046324342EA73
:104F1000801242EA0742C1F884209A011AD5236917
:104F2000032B00F25981A368023B052B00F24E814E
:104F3000E268931E0D2B00F24281236961681B0415
:104F400043EA8113A16843EA0173554943EA0263C6
:104F5000C1F88430524E336843F080633360FCF70D
:104F600087F8074604E0FCF783F8C01B64288DD857
:104F700033681B01F7D500E774214A4815F092FF0A
:104F80002368F3E4002501261EE5012636E57A2193
:104F9000444815F087FF666B2368EFE49E21414883
:104FA00015F080FF216C236818E58A213D4815F033
:104FB00079FFE56B2368F7E4FD213A4815F072FFAD
:104FC000616E2368D7E540F20711364815F06AFF95
:104FD000A16E2368E1E540F21111324815F062FF3D
:104FE000E16E2368EBE540F21B112E4815F05AFFE5
:104FF000216F2368F5E52A482B498268194022F47D
:10500000F8120A43826092E5E368023B0D2B00F23E
:10501000CA80636A591E1F2900F2BD80204AD2F857
:105020008430D2F8840003F4403300F0E0400343BE
:10503000606843EA8013E06843EA0063C2F88430A2
:10504000D2F88C3023F01F030B43C2F88C30236856
:105050004CE7F321134815F025FFA76B236874E58F
:1050600040F2A1110F4815F01DFFD4F8802074E61E
:1050700040F275110B4815F015FFA16F236836E655
:1050800040F27F11074815F00DFFE16F23683DE600
:1050900040F22511034815F005FF616C2368AEE569
:1050A00000380240F4160208FFFCFF0F40F26111C5
:1050B000734815F0F7FEE16D2368FAE540F26B11D5
:1050C0006F4815F0EFFE216E236801E640F297115C
:1050D0006B4815F0E7FE616F23682EE640F22F1152
:1050E000674815F0DFFEA16C236897E54FF4EE7179
:1050F000634815F0D7FEE4E640F23911604815F038
:10510000D1FEE16C236898E540F243115C4815F04C
:10511000C9FE216D23689FE540F24D11584815F0F6
:10512000C1FE616D2368A6E540F25711544815F0A1
:10513000B9FEA16D2368ADE5A768BA1E052A59D846
:1051400050496068D1F88420D1F8846002F440327C
:1051500006F07066324342EA801242EA0772C1F8F2
:105160008420B5E6FBF784FF41F28839804606E0EB
:10517000FBF77EFFA0EB080048453FF687AE3B6F8C
:105180009907F5D5236B03F44071C7E4E26B002A5D
:105190003FF41AAE14E64FF4FA71394815F082FE66
:1051A000636A591E3AE74FF4F971354815F07AFEF3
:1051B0002FE740F24621324815F074FEFCE54FF42B
:1051C00006712F4815F06EFEE268B6E640F2172130
:1051D0002B4815F067FEABE640F21621284815F083
:1051E00061FEA0E640F20721254815F05BFE276925
:1051F000236881E64FF4F171214815F053FEA7684A
:1052000023689DE7206A03282CD81E49D1F88820FE
:10521000D1F8885002F0706205F0E0452A436569D4
:1052200042EA851242EA0042C1F88820F8E540F2DD
:105230007121134815F036FEF9E540F24F21104870
:1052400015F030FEA36A591EC8E540F24D210C4806
:1052500015F028FEBDE50A4840F2722115F022FE45
:10526000E06AE9E5064840F2622115F01BFE206A7B
:105270002368CAE7B921024815F014FE0DE400BF07
:10528000F416020800380240534B544A0260D3F827
:105290008420C2F388124260D3F88420C2F3014212
:1052A0000261D3F88420C2F30362C260D3F8842081
:1052B000C2F302728260D3F88820C2F3881242617E
:1052C000D3F88820C2F301420262D3F88820C2F3E7
:1052D00003628261D3F88820C2F30272C261D3F8FC
:1052E0008C2002F01F024262D3F88C20C2F3042209
:1052F0008262D3F88C20C2F30142C262D3F88C20C0
:1053000002F44012C263D3F88C2002F4400202641B
:105310009A6802F400024263D3F8902002F440320B
:105320004266D3F8902002F440228266D3F890209F
:1053300002F44012C266D3F8902002F440020267E1
:10534000D3F8902002F003024264D3F8902002F0D8
:105350000C028264D3F8902002F03002C264D3F8C9
:10536000902002F0C0020265D3F8902002F440724F
:105370004265D3F8902002F440628265D3F8902011
:1053800002F44052C265D3F8902002F44042026613
:10539000D3F8902002F040724267D3F8902002F0D8
:1053A00080628267D3F8902002F00062C267D3F86F
:1053B000902002F08052C0F8802099681A6F01F4A2
:1053C000F81102F440720A430263D3F88C3003F000
:1053D00080738363704700BF00380240F1FFFF0015
:1053E000B0F5002F2FD0B0F5801F2AD12C4AD2F86B
:1053F0008C3003F44003B3F5800F31D0B3F5000FC8
:105400002CD0F3B9536851685A02254B01F03F0183
:1054100054BF24482448D3F88820B0FBF1F1D3F8D6
:105420008800C2F30362D3F88C30C0F38810C3F352
:10543000042301FB00F00133B0FBF2F0B0FBF3F00A
:10544000704700207047164AD2F88C3003F440139E
:10545000B3F5801F04D0B3F5001FD2D113487047B5
:10546000536851685B020E4B01F03F0154BF0D4879
:105470000D48D3F88420B0FBF1F1D3F88400C2F3D7
:105480000362D3F88C30C0F3881003F01F0301FBD4
:1054900000F00133B0FBF2F0B0FBF3F0704700BF57
:1054A000003802400024F40040787D010080BB00F9
:1054B000002800F07F820268AE49F8B5AE4B044682
:1054C000AE489A4218BF824214BF012300238A4289
:1054D0000CBF002303F001031BB1A94B9A4240F01B
:1054E0003282E2694BF68031A64BA7489A4218BF38
:1054F00082424AF6444014BF012300238A420CBF73
:10550000002303F0010345F2226182420CBF002315
:1055100003F00103B2F5FA4F0CBF002303F00103BF
:105520008A420CBF002303F0010342F61131B2F5A9
:105530007A5F0CBF002303F001038A420CBF0023F3
:1055400003F00103B2F5FA5F0CBF002303F001037F
:1055500013B1002A40F03082236B33F0040202D0F2
:10556000082B40F07E816368032B00F28381636B1C
:1055700023F02002802A04D023F0A003402B40F027
:10558000EE81A36B33F4807340F0A781E36B012BB2
:1055900000F2B980A368032B00F2BE80236933F4C4
:1055A000005340F0C380636933F4002340F0C880A7
:1055B000A369042B00F2CD80636A33F4805340F07A
:1055C000D280A36A23F4004223F48041B1F5204F36
:1055D00018BF002A03D0B3F5404F40F0BA81E36A08
:1055E00033F0100340F0A981E368022B00F29F81A1
:1055F000236C083BF82B00F29481636C013B7F2BFA
:1056000000F28981A36C33F4803340F07E81E36C37
:1056100033F4003340F07381236D33F4802340F082
:105620006881636D182B00F25E81A36D33F0400238
:1056300002D0802B40F02481E36D013B0F2B00F260
:105640002981236EB3F5803F80F02E8194F87D3060
:1056500003F0FF02002B00F033814C4B02204C4939
:1056600022681B6884F87D00A1FB031311681B0BE3
:1056700021F480318340116002E01168CE0307D528
:10568000013BFAD2D4F8803043F04003C4F88030B4
:10569000E368012B00F01E81022B15BF01202120A1
:1056A00000212021A368022B00F01181032B00F0C0
:1056B0000D81012B14BF00254FF480652E4B9A42BB
:1056C0006CD020339A4269D0324BC3F8001CE36996
:1056D000002B6AD0274B9A4200F052812033D31A14
:1056E000B3FA83F35B09002B40F04A811946236229
:1056F000636833F002005ED0E06B012814BF002025
:105700004FF400705CE04FF4BC71234815F0CAFB05
:10571000A368032B7FF642AF40F279111E4815F0C3
:10572000C1FB236933F400533FF43DAF4FF4BD7127
:10573000194815F0B7FB636933F400233FF438AF21
:1057400040F27B11144815F0ADFBA369042B7FF6E2
:1057500033AF4FF4BE71104815F0A4FB636A33F405
:1057600080533FF42EAF40F27D110B4815F09AFBA9
:1057700027E700BF045C0140045801402458014061
:10578000245C014000EE0200007701007800002058
:105790001BECCB950050014030170208894BC3F831
:1057A0000018E369002B40F0E080236A1905636864
:1057B00033F00200A0D1E66B012E18BF4FF4007049
:1057C000266B17683343666B3343A66B3343666AB5
:1057D000334326693343666933437B4E2B433E4054
:1057E0007A4D0B43A169166016683343034378482A
:1057F000136053681D40A36A1943E36A5560194357
:105800005568236D2943516091680840A16C0B4392
:10581000E16C90604FF220000B43216C95680139D8
:105820000B43616C013943EA01232B439360D16838
:10583000D4E9153501402B43D160216ED06843EA8D
:105840000143E16D013943EA012300210343084686
:10585000D3600123C4F8801084F87C1084F87D3074
:10586000F8BD4FF4BA715B4815F01CFB6368032B5D
:105870007FF67DAE40F27511564815F013FB76E6C3
:1058800040F28B11534815F00DFBE36D013B0F2BDC
:105890007FF6D7AE4FF4C6714E4815F003FB236E6A
:1058A000B3F5803FFFF4D2AE40F28D11494815F0B8
:1058B000F9FA94F87D3003F0FF02002B7FF4CDAEAF
:1058C000204684F87C2017F0BBF8C6E601464FF46A
:1058D0000065F3E611201021E4E640F277113D481F
:1058E00015F0E0FA52E64FF4C5713A4815F0DAFACD
:1058F0009BE640F28711374815F0D4FA91E64FF451
:10590000C371344815F0CEFA86E640F2851131486D
:1059100015F0C8FA7BE64FF4C2712E4815F0C2FAB2
:1059200070E640F283112B4815F0BCFA65E64FF49F
:10593000C071284815F0B6FA5AE640F27F112548A2
:1059400015F0B0FA50E64FF4B871224815F0AAFAF3
:10595000C7E54FF4BF711F4815F0A4FA3FE64FF4B6
:10596000BB711C4815F09EFA0BE64FF40020FFF7C0
:1059700037FD2268184B9A4202D020339A4204D154
:105980004FF48010FFF72CFD226800EB8000E169E6
:10599000430012484902B3FBF1F3A0FB0310C00817
:1059A00000EB8001A3EB4103092B08BF0130010587
:1059B0002062FCE60120704740F27311054815F0A3
:1059C00071FAC9E50050014010C005FFF01FFFFF4C
:1059D0000080F8FF30170208045C0140CDCCCCCC2D
:1059E00090F87C20012A0DD00346002110B40468F1
:1059F0000846226822F40032226083F87C105DF8A9
:105A0000044B70470220704790F87C200346012A1F
:105A100010D00268116841F4003111601168C903A7
:105A200003D4116841F4803111600022104683F8DC
:105A30007C2070470220704738B590F87C30012BED
:105A400058D0026804460125C06E84F87C50136863
:105A500023F40033136018B194F87D30122B3AD040
:105A60000025206F18B194F87D30222B23D0234BD2
:105A7000234A21681B68A2FB03230A681B0B22F43C
:105A800080329B000A6002E00A68D20307D5013B1E
:105A9000FAD2D4F8803043F04003C4F880304B6829
:105AA0000122284643F008034B60002384F87D2040
:105AB00084F87C3038BDFBF761FE0028D7D0236F17
:105AC0005B6D802BD3D0D4F88030012543F0800368
:105AD000C4F88030CBE7FBF751FE0028C0D0E36E5E
